{
  "_format": "hh-sol-artifact-1",
  "contractName": "ERC1155NFT",
  "sourceName": "contracts/erc1155nft.sol",
  "abi": [
    {
      "inputs": [
        {
          "internalType": "address",
          "name": "marketPlaceAddress",
          "type": "address"
        }
      ],
      "stateMutability": "nonpayable",
      "type": "constructor"
    },
    {
      "anonymous": false,
      "inputs": [
        {
          "indexed": true,
          "internalType": "address",
          "name": "account",
          "type": "address"
        },
        {
          "indexed": true,
          "internalType": "address",
          "name": "operator",
          "type": "address"
        },
        {
          "indexed": false,
          "internalType": "bool",
          "name": "approved",
          "type": "bool"
        }
      ],
      "name": "ApprovalForAll",
      "type": "event"
    },
    {
      "anonymous": false,
      "inputs": [
        {
          "indexed": true,
          "internalType": "address",
          "name": "previousOwner",
          "type": "address"
        },
        {
          "indexed": true,
          "internalType": "address",
          "name": "newOwner",
          "type": "address"
        }
      ],
      "name": "OwnershipTransferred",
      "type": "event"
    },
    {
      "anonymous": false,
      "inputs": [
        {
          "indexed": true,
          "internalType": "address",
          "name": "operator",
          "type": "address"
        },
        {
          "indexed": true,
          "internalType": "address",
          "name": "from",
          "type": "address"
        },
        {
          "indexed": true,
          "internalType": "address",
          "name": "to",
          "type": "address"
        },
        {
          "indexed": false,
          "internalType": "uint256[]",
          "name": "ids",
          "type": "uint256[]"
        },
        {
          "indexed": false,
          "internalType": "uint256[]",
          "name": "values",
          "type": "uint256[]"
        }
      ],
      "name": "TransferBatch",
      "type": "event"
    },
    {
      "anonymous": false,
      "inputs": [
        {
          "indexed": true,
          "internalType": "address",
          "name": "operator",
          "type": "address"
        },
        {
          "indexed": true,
          "internalType": "address",
          "name": "from",
          "type": "address"
        },
        {
          "indexed": true,
          "internalType": "address",
          "name": "to",
          "type": "address"
        },
        {
          "indexed": false,
          "internalType": "uint256",
          "name": "id",
          "type": "uint256"
        },
        {
          "indexed": false,
          "internalType": "uint256",
          "name": "value",
          "type": "uint256"
        }
      ],
      "name": "TransferSingle",
      "type": "event"
    },
    {
      "anonymous": false,
      "inputs": [
        {
          "indexed": false,
          "internalType": "string",
          "name": "value",
          "type": "string"
        },
        {
          "indexed": true,
          "internalType": "uint256",
          "name": "id",
          "type": "uint256"
        }
      ],
      "name": "URI",
      "type": "event"
    },
    {
      "inputs": [
        {
          "internalType": "address",
          "name": "account",
          "type": "address"
        },
        {
          "internalType": "uint256",
          "name": "id",
          "type": "uint256"
        }
      ],
      "name": "balanceOf",
      "outputs": [
        {
          "internalType": "uint256",
          "name": "",
          "type": "uint256"
        }
      ],
      "stateMutability": "view",
      "type": "function"
    },
    {
      "inputs": [
        {
          "internalType": "address[]",
          "name": "accounts",
          "type": "address[]"
        },
        {
          "internalType": "uint256[]",
          "name": "ids",
          "type": "uint256[]"
        }
      ],
      "name": "balanceOfBatch",
      "outputs": [
        {
          "internalType": "uint256[]",
          "name": "",
          "type": "uint256[]"
        }
      ],
      "stateMutability": "view",
      "type": "function"
    },
    {
      "inputs": [],
      "name": "baseURI",
      "outputs": [
        {
          "internalType": "string",
          "name": "",
          "type": "string"
        }
      ],
      "stateMutability": "view",
      "type": "function"
    },
    {
      "inputs": [
        {
          "internalType": "uint256",
          "name": "amount",
          "type": "uint256"
        },
        {
          "internalType": "string",
          "name": "_uri",
          "type": "string"
        }
      ],
      "name": "createToken",
      "outputs": [],
      "stateMutability": "nonpayable",
      "type": "function"
    },
    {
      "inputs": [],
      "name": "currentIndex",
      "outputs": [
        {
          "internalType": "uint256",
          "name": "",
          "type": "uint256"
        }
      ],
      "stateMutability": "view",
      "type": "function"
    },
    {
      "inputs": [
        {
          "internalType": "uint256",
          "name": "tokenId",
          "type": "uint256"
        }
      ],
      "name": "giveResaleApproval",
      "outputs": [],
      "stateMutability": "nonpayable",
      "type": "function"
    },
    {
      "inputs": [
        {
          "internalType": "address",
          "name": "account",
          "type": "address"
        },
        {
          "internalType": "address",
          "name": "operator",
          "type": "address"
        }
      ],
      "name": "isApprovedForAll",
      "outputs": [
        {
          "internalType": "bool",
          "name": "",
          "type": "bool"
        }
      ],
      "stateMutability": "view",
      "type": "function"
    },
    {
      "inputs": [],
      "name": "name",
      "outputs": [
        {
          "internalType": "string",
          "name": "",
          "type": "string"
        }
      ],
      "stateMutability": "view",
      "type": "function"
    },
    {
      "inputs": [],
      "name": "owner",
      "outputs": [
        {
          "internalType": "address",
          "name": "",
          "type": "address"
        }
      ],
      "stateMutability": "view",
      "type": "function"
    },
    {
      "inputs": [],
      "name": "renounceOwnership",
      "outputs": [],
      "stateMutability": "nonpayable",
      "type": "function"
    },
    {
      "inputs": [
        {
          "internalType": "address",
          "name": "from",
          "type": "address"
        },
        {
          "internalType": "address",
          "name": "to",
          "type": "address"
        },
        {
          "internalType": "uint256[]",
          "name": "ids",
          "type": "uint256[]"
        },
        {
          "internalType": "uint256[]",
          "name": "amounts",
          "type": "uint256[]"
        },
        {
          "internalType": "bytes",
          "name": "data",
          "type": "bytes"
        }
      ],
      "name": "safeBatchTransferFrom",
      "outputs": [],
      "stateMutability": "nonpayable",
      "type": "function"
    },
    {
      "inputs": [
        {
          "internalType": "address",
          "name": "from",
          "type": "address"
        },
        {
          "internalType": "address",
          "name": "to",
          "type": "address"
        },
        {
          "internalType": "uint256",
          "name": "id",
          "type": "uint256"
        },
        {
          "internalType": "uint256",
          "name": "amount",
          "type": "uint256"
        },
        {
          "internalType": "bytes",
          "name": "data",
          "type": "bytes"
        }
      ],
      "name": "safeTransferFrom",
      "outputs": [],
      "stateMutability": "nonpayable",
      "type": "function"
    },
    {
      "inputs": [
        {
          "internalType": "address",
          "name": "operator",
          "type": "address"
        },
        {
          "internalType": "bool",
          "name": "approved",
          "type": "bool"
        }
      ],
      "name": "setApprovalForAll",
      "outputs": [],
      "stateMutability": "nonpayable",
      "type": "function"
    },
    {
      "inputs": [
        {
          "internalType": "uint256",
          "name": "tokenId",
          "type": "uint256"
        },
        {
          "internalType": "string",
          "name": "_uri",
          "type": "string"
        }
      ],
      "name": "setTokenUri",
      "outputs": [],
      "stateMutability": "nonpayable",
      "type": "function"
    },
    {
      "inputs": [
        {
          "internalType": "bytes4",
          "name": "interfaceId",
          "type": "bytes4"
        }
      ],
      "name": "supportsInterface",
      "outputs": [
        {
          "internalType": "bool",
          "name": "",
          "type": "bool"
        }
      ],
      "stateMutability": "view",
      "type": "function"
    },
    {
      "inputs": [
        {
          "internalType": "address",
          "name": "newOwner",
          "type": "address"
        }
      ],
      "name": "transferOwnership",
      "outputs": [],
      "stateMutability": "nonpayable",
      "type": "function"
    },
    {
      "inputs": [
        {
          "internalType": "uint256",
          "name": "tokenId",
          "type": "uint256"
        }
      ],
      "name": "uri",
      "outputs": [
        {
          "internalType": "string",
          "name": "",
          "type": "string"
        }
      ],
      "stateMutability": "view",
      "type": "function"
    }
  ],
  "bytecode": "0x608060405260016005556040518060400160405280600f81526020017f636f6c6c656374696f6e206e616d650000000000000000000000000000000000815250600690805190602001906200005692919062000230565b506040518060800160405280605181526020016200378460519139600790805190602001906200008892919062000230565b503480156200009657600080fd5b50604051620037d5380380620037d58339818101604052810190620000bc9190620002f7565b60405180602001604052806000815250620000dd816200014660201b60201c565b50620000fe620000f26200016260201b60201c565b6200016a60201b60201c565b80600460006101000a81548173ffffffffffffffffffffffffffffffffffffffff021916908373ffffffffffffffffffffffffffffffffffffffff16021790555050620003d6565b80600290805190602001906200015e92919062000230565b5050565b600033905090565b6000600360009054906101000a900473ffffffffffffffffffffffffffffffffffffffff16905081600360006101000a81548173ffffffffffffffffffffffffffffffffffffffff021916908373ffffffffffffffffffffffffffffffffffffffff1602179055508173ffffffffffffffffffffffffffffffffffffffff168173ffffffffffffffffffffffffffffffffffffffff167f8be0079c531659141344cd1fd0a4f28419497f9722a3daafe3b4186f6b6457e060405160405180910390a35050565b8280546200023e9062000357565b90600052602060002090601f016020900481019282620002625760008555620002ae565b82601f106200027d57805160ff1916838001178555620002ae565b82800160010185558215620002ae579182015b82811115620002ad57825182559160200191906001019062000290565b5b509050620002bd9190620002c1565b5090565b5b80821115620002dc576000816000905550600101620002c2565b5090565b600081519050620002f181620003bc565b92915050565b6000602082840312156200030a57600080fd5b60006200031a84828501620002e0565b91505092915050565b6000620003308262000337565b9050919050565b600073ffffffffffffffffffffffffffffffffffffffff82169050919050565b600060028204905060018216806200037057607f821691505b602082108114156200038757620003866200038d565b5b50919050565b7f4e487b7100000000000000000000000000000000000000000000000000000000600052602260045260246000fd5b620003c78162000323565b8114620003d357600080fd5b50565b61339e80620003e66000396000f3fe608060405234801561001057600080fd5b506004361061010a5760003560e01c806357f7789e116100a25780638da5cb5b116100715780638da5cb5b146102a3578063a22cb465146102c1578063e985e9c5146102dd578063f242432a1461030d578063f2fde38b146103295761010a565b806357f7789e146102435780636c0360eb1461025f578063715018a61461027d5780637e78146c146102875761010a565b80631b3efe85116100de5780631b3efe85146101bd57806326987b60146101d95780632eb2c2d6146101f75780634e1273f4146102135761010a565b8062fdd58e1461010f57806301ffc9a71461013f57806306fdde031461016f5780630e89341c1461018d575b600080fd5b61012960048036038101906101249190612279565b610345565b6040516101369190612a31565b60405180910390f35b61015960048036038101906101549190612321565b61040e565b6040516101669190612834565b60405180910390f35b6101776104f0565b604051610184919061284f565b60405180910390f35b6101a760048036038101906101a29190612373565b61057e565b6040516101b4919061284f565b60405180910390f35b6101d760048036038101906101d2919061239c565b61069f565b005b6101e16107a6565b6040516101ee9190612a31565b60405180910390f35b610211600480360381019061020c91906120ef565b6107ac565b005b61022d600480360381019061022891906122b5565b61084d565b60405161023a91906127db565b60405180910390f35b61025d6004803603810190610258919061239c565b6109fe565b005b610267610aa6565b604051610274919061284f565b60405180910390f35b610285610b34565b005b6102a1600480360381019061029c9190612373565b610bbc565b005b6102ab610c39565b6040516102b891906126fe565b60405180910390f35b6102db60048036038101906102d6919061223d565b610c63565b005b6102f760048036038101906102f291906120b3565b610c79565b6040516103049190612834565b60405180910390f35b610327600480360381019061032291906121ae565b610d0d565b005b610343600480360381019061033e919061208a565b610dae565b005b60008073ffffffffffffffffffffffffffffffffffffffff168373ffffffffffffffffffffffffffffffffffffffff1614156103b6576040517f08c379a00000000000000000000000000000000000000000000000000000000081526004016103ad906128b1565b60405180910390fd5b60008083815260200190815260200160002060008473ffffffffffffffffffffffffffffffffffffffff1673ffffffffffffffffffffffffffffffffffffffff16815260200190815260200160002054905092915050565b60007fd9b67a26000000000000000000000000000000000000000000000000000000007bffffffffffffffffffffffffffffffffffffffffffffffffffffffff1916827bffffffffffffffffffffffffffffffffffffffffffffffffffffffff191614806104d957507f0e89341c000000000000000000000000000000000000000000000000000000007bffffffffffffffffffffffffffffffffffffffffffffffffffffffff1916827bffffffffffffffffffffffffffffffffffffffffffffffffffffffff1916145b806104e957506104e882610ea6565b5b9050919050565b600680546104fd90612cd1565b80601f016020809104026020016040519081016040528092919081815260200182805461052990612cd1565b80156105765780601f1061054b57610100808354040283529160200191610576565b820191906000526020600020905b81548152906001019060200180831161055957829003601f168201915b505050505081565b6060610588610f10565b73ffffffffffffffffffffffffffffffffffffffff166105a6610c39565b73ffffffffffffffffffffffffffffffffffffffff16146105fc576040517f08c379a00000000000000000000000000000000000000000000000000000000081526004016105f390612971565b60405180910390fd5b60086000838152602001908152602001600020805461061a90612cd1565b80601f016020809104026020016040519081016040528092919081815260200182805461064690612cd1565b80156106935780601f1061066857610100808354040283529160200191610693565b820191906000526020600020905b81548152906001019060200180831161067657829003601f168201915b50505050509050919050565b6106a7610f10565b73ffffffffffffffffffffffffffffffffffffffff166106c5610c39565b73ffffffffffffffffffffffffffffffffffffffff161461071b576040517f08c379a000000000000000000000000000000000000000000000000000000000815260040161071290612971565b60405180910390fd5b6000600554905061073d33828560405180602001604052806000815250610f18565b81600860008381526020019081526020016000209080519060200190610764929190611d82565b508080600101915050806005819055506107a1600460009054906101000a900473ffffffffffffffffffffffffffffffffffffffff166001610c63565b505050565b60055481565b6107b4610f10565b73ffffffffffffffffffffffffffffffffffffffff168573ffffffffffffffffffffffffffffffffffffffff1614806107fa57506107f9856107f4610f10565b610c79565b5b610839576040517f08c379a000000000000000000000000000000000000000000000000000000000815260040161083090612931565b60405180910390fd5b61084685858585856110ae565b5050505050565b60608151835114610893576040517f08c379a000000000000000000000000000000000000000000000000000000000815260040161088a906129d1565b60405180910390fd5b6000835167ffffffffffffffff8111156108d6577f4e487b7100000000000000000000000000000000000000000000000000000000600052604160045260246000fd5b6040519080825280602002602001820160405280156109045781602001602082028036833780820191505090505b50905060005b84518110156109f35761099d85828151811061094f577f4e487b7100000000000000000000000000000000000000000000000000000000600052603260045260246000fd5b6020026020010151858381518110610990577f4e487b7100000000000000000000000000000000000000000000000000000000600052603260045260246000fd5b6020026020010151610345565b8282815181106109d6577f4e487b7100000000000000000000000000000000000000000000000000000000600052603260045260246000fd5b602002602001018181525050806109ec90612d34565b905061090a565b508091505092915050565b610a06610f10565b73ffffffffffffffffffffffffffffffffffffffff16610a24610c39565b73ffffffffffffffffffffffffffffffffffffffff1614610a7a576040517f08c379a0000000000000000000000000000000000000000000000000000000008152600401610a7190612971565b60405180910390fd5b80600860008481526020019081526020016000209080519060200190610aa1929190611d82565b505050565b60078054610ab390612cd1565b80601f0160208091040260200160405190810160405280929190818152602001828054610adf90612cd1565b8015610b2c5780601f10610b0157610100808354040283529160200191610b2c565b820191906000526020600020905b815481529060010190602001808311610b0f57829003601f168201915b505050505081565b610b3c610f10565b73ffffffffffffffffffffffffffffffffffffffff16610b5a610c39565b73ffffffffffffffffffffffffffffffffffffffff1614610bb0576040517f08c379a0000000000000000000000000000000000000000000000000000000008152600401610ba790612971565b60405180910390fd5b610bba600061140e565b565b6000610bc83383610345565b1415610c09576040517f08c379a0000000000000000000000000000000000000000000000000000000008152600401610c0090612991565b60405180910390fd5b610c36600460009054906101000a900473ffffffffffffffffffffffffffffffffffffffff166001610c63565b50565b6000600360009054906101000a900473ffffffffffffffffffffffffffffffffffffffff16905090565b610c75610c6e610f10565b83836114d4565b5050565b6000600160008473ffffffffffffffffffffffffffffffffffffffff1673ffffffffffffffffffffffffffffffffffffffff16815260200190815260200160002060008373ffffffffffffffffffffffffffffffffffffffff1673ffffffffffffffffffffffffffffffffffffffff16815260200190815260200160002060009054906101000a900460ff16905092915050565b610d15610f10565b73ffffffffffffffffffffffffffffffffffffffff168573ffffffffffffffffffffffffffffffffffffffff161480610d5b5750610d5a85610d55610f10565b610c79565b5b610d9a576040517f08c379a0000000000000000000000000000000000000000000000000000000008152600401610d91906128f1565b60405180910390fd5b610da78585858585611641565b5050505050565b610db6610f10565b73ffffffffffffffffffffffffffffffffffffffff16610dd4610c39565b73ffffffffffffffffffffffffffffffffffffffff1614610e2a576040517f08c379a0000000000000000000000000000000000000000000000000000000008152600401610e2190612971565b60405180910390fd5b600073ffffffffffffffffffffffffffffffffffffffff168173ffffffffffffffffffffffffffffffffffffffff161415610e9a576040517f08c379a0000000000000000000000000000000000000000000000000000000008152600401610e91906128d1565b60405180910390fd5b610ea38161140e565b50565b60007f01ffc9a7000000000000000000000000000000000000000000000000000000007bffffffffffffffffffffffffffffffffffffffffffffffffffffffff1916827bffffffffffffffffffffffffffffffffffffffffffffffffffffffff1916149050919050565b600033905090565b600073ffffffffffffffffffffffffffffffffffffffff168473ffffffffffffffffffffffffffffffffffffffff161415610f88576040517f08c379a0000000000000000000000000000000000000000000000000000000008152600401610f7f90612a11565b60405180910390fd5b6000610f92610f10565b9050610fb381600087610fa4886118c3565b610fad886118c3565b87611989565b8260008086815260200190815260200160002060008773ffffffffffffffffffffffffffffffffffffffff1673ffffffffffffffffffffffffffffffffffffffff16815260200190815260200160002060008282546110129190612bc5565b925050819055508473ffffffffffffffffffffffffffffffffffffffff16600073ffffffffffffffffffffffffffffffffffffffff168273ffffffffffffffffffffffffffffffffffffffff167fc3d58168c5ae7397731d063d5bbf3d657854427343f4c083240f7aacaa2d0f628787604051611090929190612a4c565b60405180910390a46110a781600087878787611991565b5050505050565b81518351146110f2576040517f08c379a00000000000000000000000000000000000000000000000000000000081526004016110e9906129f1565b60405180910390fd5b600073ffffffffffffffffffffffffffffffffffffffff168473ffffffffffffffffffffffffffffffffffffffff161415611162576040517f08c379a000000000000000000000000000000000000000000000000000000000815260040161115990612911565b60405180910390fd5b600061116c610f10565b905061117c818787878787611989565b60005b84518110156113795760008582815181106111c3577f4e487b7100000000000000000000000000000000000000000000000000000000600052603260045260246000fd5b602002602001015190506000858381518110611208577f4e487b7100000000000000000000000000000000000000000000000000000000600052603260045260246000fd5b60200260200101519050600080600084815260200190815260200160002060008b73ffffffffffffffffffffffffffffffffffffffff1673ffffffffffffffffffffffffffffffffffffffff168152602001908152602001600020549050818110156112a9576040517f08c379a00000000000000000000000000000000000000000000000000000000081526004016112a090612951565b60405180910390fd5b81810360008085815260200190815260200160002060008c73ffffffffffffffffffffffffffffffffffffffff1673ffffffffffffffffffffffffffffffffffffffff168152602001908152602001600020819055508160008085815260200190815260200160002060008b73ffffffffffffffffffffffffffffffffffffffff1673ffffffffffffffffffffffffffffffffffffffff168152602001908152602001600020600082825461135e9190612bc5565b925050819055505050508061137290612d34565b905061117f565b508473ffffffffffffffffffffffffffffffffffffffff168673ffffffffffffffffffffffffffffffffffffffff168273ffffffffffffffffffffffffffffffffffffffff167f4a39dc06d4c0dbc64b70af90fd698a233a518aa5d07e595d983b8c0526c8f7fb87876040516113f09291906127fd565b60405180910390a4611406818787878787611b78565b505050505050565b6000600360009054906101000a900473ffffffffffffffffffffffffffffffffffffffff16905081600360006101000a81548173ffffffffffffffffffffffffffffffffffffffff021916908373ffffffffffffffffffffffffffffffffffffffff1602179055508173ffffffffffffffffffffffffffffffffffffffff168173ffffffffffffffffffffffffffffffffffffffff167f8be0079c531659141344cd1fd0a4f28419497f9722a3daafe3b4186f6b6457e060405160405180910390a35050565b8173ffffffffffffffffffffffffffffffffffffffff168373ffffffffffffffffffffffffffffffffffffffff161415611543576040517f08c379a000000000000000000000000000000000000000000000000000000000815260040161153a906129b1565b60405180910390fd5b80600160008573ffffffffffffffffffffffffffffffffffffffff1673ffffffffffffffffffffffffffffffffffffffff16815260200190815260200160002060008473ffffffffffffffffffffffffffffffffffffffff1673ffffffffffffffffffffffffffffffffffffffff16815260200190815260200160002060006101000a81548160ff0219169083151502179055508173ffffffffffffffffffffffffffffffffffffffff168373ffffffffffffffffffffffffffffffffffffffff167f17307eab39ab6107e8899845ad3d59bd9653f200f220920489ca2b5937696c31836040516116349190612834565b60405180910390a3505050565b600073ffffffffffffffffffffffffffffffffffffffff168473ffffffffffffffffffffffffffffffffffffffff1614156116b1576040517f08c379a00000000000000000000000000000000000000000000000000000000081526004016116a890612911565b60405180910390fd5b60006116bb610f10565b90506116db8187876116cc886118c3565b6116d5886118c3565b87611989565b600080600086815260200190815260200160002060008873ffffffffffffffffffffffffffffffffffffffff1673ffffffffffffffffffffffffffffffffffffffff16815260200190815260200160002054905083811015611772576040517f08c379a000000000000000000000000000000000000000000000000000000000815260040161176990612951565b60405180910390fd5b83810360008087815260200190815260200160002060008973ffffffffffffffffffffffffffffffffffffffff1673ffffffffffffffffffffffffffffffffffffffff168152602001908152602001600020819055508360008087815260200190815260200160002060008873ffffffffffffffffffffffffffffffffffffffff1673ffffffffffffffffffffffffffffffffffffffff16815260200190815260200160002060008282546118279190612bc5565b925050819055508573ffffffffffffffffffffffffffffffffffffffff168773ffffffffffffffffffffffffffffffffffffffff168373ffffffffffffffffffffffffffffffffffffffff167fc3d58168c5ae7397731d063d5bbf3d657854427343f4c083240f7aacaa2d0f6288886040516118a4929190612a4c565b60405180910390a46118ba828888888888611991565b50505050505050565b60606000600167ffffffffffffffff811115611908577f4e487b7100000000000000000000000000000000000000000000000000000000600052604160045260246000fd5b6040519080825280602002602001820160405280156119365781602001602082028036833780820191505090505b5090508281600081518110611974577f4e487b7100000000000000000000000000000000000000000000000000000000600052603260045260246000fd5b60200260200101818152505080915050919050565b505050505050565b6119b08473ffffffffffffffffffffffffffffffffffffffff16611d5f565b15611b70578373ffffffffffffffffffffffffffffffffffffffff1663f23a6e6187878686866040518663ffffffff1660e01b81526004016119f6959493929190612781565b602060405180830381600087803b158015611a1057600080fd5b505af1925050508015611a4157506040513d601f19601f82011682018060405250810190611a3e919061234a565b60015b611ae757611a4d612e0a565b806308c379a01415611aaa5750611a62613276565b80611a6d5750611aac565b806040517f08c379a0000000000000000000000000000000000000000000000000000000008152600401611aa1919061284f565b60405180910390fd5b505b6040517f08c379a0000000000000000000000000000000000000000000000000000000008152600401611ade90612871565b60405180910390fd5b63f23a6e6160e01b7bffffffffffffffffffffffffffffffffffffffffffffffffffffffff1916817bffffffffffffffffffffffffffffffffffffffffffffffffffffffff191614611b6e576040517f08c379a0000000000000000000000000000000000000000000000000000000008152600401611b6590612891565b60405180910390fd5b505b505050505050565b611b978473ffffffffffffffffffffffffffffffffffffffff16611d5f565b15611d57578373ffffffffffffffffffffffffffffffffffffffff1663bc197c8187878686866040518663ffffffff1660e01b8152600401611bdd959493929190612719565b602060405180830381600087803b158015611bf757600080fd5b505af1925050508015611c2857506040513d601f19601f82011682018060405250810190611c25919061234a565b60015b611cce57611c34612e0a565b806308c379a01415611c915750611c49613276565b80611c545750611c93565b806040517f08c379a0000000000000000000000000000000000000000000000000000000008152600401611c88919061284f565b60405180910390fd5b505b6040517f08c379a0000000000000000000000000000000000000000000000000000000008152600401611cc590612871565b60405180910390fd5b63bc197c8160e01b7bffffffffffffffffffffffffffffffffffffffffffffffffffffffff1916817bffffffffffffffffffffffffffffffffffffffffffffffffffffffff191614611d55576040517f08c379a0000000000000000000000000000000000000000000000000000000008152600401611d4c90612891565b60405180910390fd5b505b505050505050565b6000808273ffffffffffffffffffffffffffffffffffffffff163b119050919050565b828054611d8e90612cd1565b90600052602060002090601f016020900481019282611db05760008555611df7565b82601f10611dc957805160ff1916838001178555611df7565b82800160010185558215611df7579182015b82811115611df6578251825591602001919060010190611ddb565b5b509050611e049190611e08565b5090565b5b80821115611e21576000816000905550600101611e09565b5090565b6000611e38611e3384612a9a565b612a75565b90508083825260208201905082856020860282011115611e5757600080fd5b60005b85811015611e875781611e6d8882611f79565b845260208401935060208301925050600181019050611e5a565b5050509392505050565b6000611ea4611e9f84612ac6565b612a75565b90508083825260208201905082856020860282011115611ec357600080fd5b60005b85811015611ef35781611ed98882612075565b845260208401935060208301925050600181019050611ec6565b5050509392505050565b6000611f10611f0b84612af2565b612a75565b905082815260208101848484011115611f2857600080fd5b611f33848285612c8f565b509392505050565b6000611f4e611f4984612b23565b612a75565b905082815260208101848484011115611f6657600080fd5b611f71848285612c8f565b509392505050565b600081359050611f888161330c565b92915050565b600082601f830112611f9f57600080fd5b8135611faf848260208601611e25565b91505092915050565b600082601f830112611fc957600080fd5b8135611fd9848260208601611e91565b91505092915050565b600081359050611ff181613323565b92915050565b6000813590506120068161333a565b92915050565b60008151905061201b8161333a565b92915050565b600082601f83011261203257600080fd5b8135612042848260208601611efd565b91505092915050565b600082601f83011261205c57600080fd5b813561206c848260208601611f3b565b91505092915050565b60008135905061208481613351565b92915050565b60006020828403121561209c57600080fd5b60006120aa84828501611f79565b91505092915050565b600080604083850312156120c657600080fd5b60006120d485828601611f79565b92505060206120e585828601611f79565b9150509250929050565b600080600080600060a0868803121561210757600080fd5b600061211588828901611f79565b955050602061212688828901611f79565b945050604086013567ffffffffffffffff81111561214357600080fd5b61214f88828901611fb8565b935050606086013567ffffffffffffffff81111561216c57600080fd5b61217888828901611fb8565b925050608086013567ffffffffffffffff81111561219557600080fd5b6121a188828901612021565b9150509295509295909350565b600080600080600060a086880312156121c657600080fd5b60006121d488828901611f79565b95505060206121e588828901611f79565b94505060406121f688828901612075565b935050606061220788828901612075565b925050608086013567ffffffffffffffff81111561222457600080fd5b61223088828901612021565b9150509295509295909350565b6000806040838503121561225057600080fd5b600061225e85828601611f79565b925050602061226f85828601611fe2565b9150509250929050565b6000806040838503121561228c57600080fd5b600061229a85828601611f79565b92505060206122ab85828601612075565b9150509250929050565b600080604083850312156122c857600080fd5b600083013567ffffffffffffffff8111156122e257600080fd5b6122ee85828601611f8e565b925050602083013567ffffffffffffffff81111561230b57600080fd5b61231785828601611fb8565b9150509250929050565b60006020828403121561233357600080fd5b600061234184828501611ff7565b91505092915050565b60006020828403121561235c57600080fd5b600061236a8482850161200c565b91505092915050565b60006020828403121561238557600080fd5b600061239384828501612075565b91505092915050565b600080604083850312156123af57600080fd5b60006123bd85828601612075565b925050602083013567ffffffffffffffff8111156123da57600080fd5b6123e68582860161204b565b9150509250929050565b60006123fc83836126e0565b60208301905092915050565b61241181612c1b565b82525050565b600061242282612b64565b61242c8185612b92565b935061243783612b54565b8060005b8381101561246857815161244f88826123f0565b975061245a83612b85565b92505060018101905061243b565b5085935050505092915050565b61247e81612c2d565b82525050565b600061248f82612b6f565b6124998185612ba3565b93506124a9818560208601612c9e565b6124b281612e2c565b840191505092915050565b60006124c882612b7a565b6124d28185612bb4565b93506124e2818560208601612c9e565b6124eb81612e2c565b840191505092915050565b6000612503603483612bb4565b915061250e82612e4a565b604082019050919050565b6000612526602883612bb4565b915061253182612e99565b604082019050919050565b6000612549602b83612bb4565b915061255482612ee8565b604082019050919050565b600061256c602683612bb4565b915061257782612f37565b604082019050919050565b600061258f602983612bb4565b915061259a82612f86565b604082019050919050565b60006125b2602583612bb4565b91506125bd82612fd5565b604082019050919050565b60006125d5603283612bb4565b91506125e082613024565b604082019050919050565b60006125f8602a83612bb4565b915061260382613073565b604082019050919050565b600061261b602083612bb4565b9150612626826130c2565b602082019050919050565b600061263e602b83612bb4565b9150612649826130eb565b604082019050919050565b6000612661602983612bb4565b915061266c8261313a565b604082019050919050565b6000612684602983612bb4565b915061268f82613189565b604082019050919050565b60006126a7602883612bb4565b91506126b2826131d8565b604082019050919050565b60006126ca602183612bb4565b91506126d582613227565b604082019050919050565b6126e981612c85565b82525050565b6126f881612c85565b82525050565b60006020820190506127136000830184612408565b92915050565b600060a08201905061272e6000830188612408565b61273b6020830187612408565b818103604083015261274d8186612417565b905081810360608301526127618185612417565b905081810360808301526127758184612484565b90509695505050505050565b600060a0820190506127966000830188612408565b6127a36020830187612408565b6127b060408301866126ef565b6127bd60608301856126ef565b81810360808301526127cf8184612484565b90509695505050505050565b600060208201905081810360008301526127f58184612417565b905092915050565b600060408201905081810360008301526128178185612417565b9050818103602083015261282b8184612417565b90509392505050565b60006020820190506128496000830184612475565b92915050565b6000602082019050818103600083015261286981846124bd565b905092915050565b6000602082019050818103600083015261288a816124f6565b9050919050565b600060208201905081810360008301526128aa81612519565b9050919050565b600060208201905081810360008301526128ca8161253c565b9050919050565b600060208201905081810360008301526128ea8161255f565b9050919050565b6000602082019050818103600083015261290a81612582565b9050919050565b6000602082019050818103600083015261292a816125a5565b9050919050565b6000602082019050818103600083015261294a816125c8565b9050919050565b6000602082019050818103600083015261296a816125eb565b9050919050565b6000602082019050818103600083015261298a8161260e565b9050919050565b600060208201905081810360008301526129aa81612631565b9050919050565b600060208201905081810360008301526129ca81612654565b9050919050565b600060208201905081810360008301526129ea81612677565b9050919050565b60006020820190508181036000830152612a0a8161269a565b9050919050565b60006020820190508181036000830152612a2a816126bd565b9050919050565b6000602082019050612a4660008301846126ef565b92915050565b6000604082019050612a6160008301856126ef565b612a6e60208301846126ef565b9392505050565b6000612a7f612a90565b9050612a8b8282612d03565b919050565b6000604051905090565b600067ffffffffffffffff821115612ab557612ab4612ddb565b5b602082029050602081019050919050565b600067ffffffffffffffff821115612ae157612ae0612ddb565b5b602082029050602081019050919050565b600067ffffffffffffffff821115612b0d57612b0c612ddb565b5b612b1682612e2c565b9050602081019050919050565b600067ffffffffffffffff821115612b3e57612b3d612ddb565b5b612b4782612e2c565b9050602081019050919050565b6000819050602082019050919050565b600081519050919050565b600081519050919050565b600081519050919050565b6000602082019050919050565b600082825260208201905092915050565b600082825260208201905092915050565b600082825260208201905092915050565b6000612bd082612c85565b9150612bdb83612c85565b9250827fffffffffffffffffffffffffffffffffffffffffffffffffffffffffffffffff03821115612c1057612c0f612d7d565b5b828201905092915050565b6000612c2682612c65565b9050919050565b60008115159050919050565b60007fffffffff0000000000000000000000000000000000000000000000000000000082169050919050565b600073ffffffffffffffffffffffffffffffffffffffff82169050919050565b6000819050919050565b82818337600083830152505050565b60005b83811015612cbc578082015181840152602081019050612ca1565b83811115612ccb576000848401525b50505050565b60006002820490506001821680612ce957607f821691505b60208210811415612cfd57612cfc612dac565b5b50919050565b612d0c82612e2c565b810181811067ffffffffffffffff82111715612d2b57612d2a612ddb565b5b80604052505050565b6000612d3f82612c85565b91507fffffffffffffffffffffffffffffffffffffffffffffffffffffffffffffffff821415612d7257612d71612d7d565b5b600182019050919050565b7f4e487b7100000000000000000000000000000000000000000000000000000000600052601160045260246000fd5b7f4e487b7100000000000000000000000000000000000000000000000000000000600052602260045260246000fd5b7f4e487b7100000000000000000000000000000000000000000000000000000000600052604160045260246000fd5b600060033d1115612e295760046000803e612e26600051612e3d565b90505b90565b6000601f19601f8301169050919050565b60008160e01c9050919050565b7f455243313135353a207472616e7366657220746f206e6f6e204552433131353560008201527f526563656976657220696d706c656d656e746572000000000000000000000000602082015250565b7f455243313135353a204552433131353552656365697665722072656a6563746560008201527f6420746f6b656e73000000000000000000000000000000000000000000000000602082015250565b7f455243313135353a2062616c616e636520717565727920666f7220746865207a60008201527f65726f2061646472657373000000000000000000000000000000000000000000602082015250565b7f4f776e61626c653a206e6577206f776e657220697320746865207a65726f206160008201527f6464726573730000000000000000000000000000000000000000000000000000602082015250565b7f455243313135353a2063616c6c6572206973206e6f74206f776e6572206e6f7260008201527f20617070726f7665640000000000000000000000000000000000000000000000602082015250565b7f455243313135353a207472616e7366657220746f20746865207a65726f20616460008201527f6472657373000000000000000000000000000000000000000000000000000000602082015250565b7f455243313135353a207472616e736665722063616c6c6572206973206e6f742060008201527f6f776e6572206e6f7220617070726f7665640000000000000000000000000000602082015250565b7f455243313135353a20696e73756666696369656e742062616c616e636520666f60008201527f72207472616e7366657200000000000000000000000000000000000000000000602082015250565b7f4f776e61626c653a2063616c6c6572206973206e6f7420746865206f776e6572600082015250565b7f596f75206d757374206f776e2074686973204e465420696e206f72646572207460008201527f6f20726573656c6c206974000000000000000000000000000000000000000000602082015250565b7f455243313135353a2073657474696e6720617070726f76616c2073746174757360008201527f20666f722073656c660000000000000000000000000000000000000000000000602082015250565b7f455243313135353a206163636f756e747320616e6420696473206c656e67746860008201527f206d69736d617463680000000000000000000000000000000000000000000000602082015250565b7f455243313135353a2069647320616e6420616d6f756e7473206c656e6774682060008201527f6d69736d61746368000000000000000000000000000000000000000000000000602082015250565b7f455243313135353a206d696e7420746f20746865207a65726f2061646472657360008201527f7300000000000000000000000000000000000000000000000000000000000000602082015250565b600060443d101561328657613309565b61328e612a90565b60043d036004823e80513d602482011167ffffffffffffffff821117156132b6575050613309565b808201805167ffffffffffffffff8111156132d45750505050613309565b80602083010160043d0385018111156132f1575050505050613309565b61330082602001850186612d03565b82955050505050505b90565b61331581612c1b565b811461332057600080fd5b50565b61332c81612c2d565b811461333757600080fd5b50565b61334381612c39565b811461334e57600080fd5b50565b61335a81612c85565b811461336557600080fd5b5056fea2646970667358221220c5d06d5c4a8affe6c9c6a294e35d58c3bd9b62e4542becee35855585f51eec1264736f6c6343000804003368747470733a2f2f676174657761792e70696e6174612e636c6f75642f697066732f516d5372373579533462455071344e443554527558684a4b4454313833613558767455564d6f7874526f6d564c6f2f",
  "linkReferences": {},
  "deployedLinkReferences": {}
}