{
  "_format": "hh-sol-artifact-1",
  "contractName": "ERC1155NFT",
  "sourceName": "contracts/erc1155nft.sol",
  "abi": [
    {
      "inputs": [
        {
          "internalType": "address",
          "name": "marketPlaceAddress",
          "type": "address"
        }
      ],
      "stateMutability": "nonpayable",
      "type": "constructor"
    },
    {
      "anonymous": false,
      "inputs": [
        {
          "indexed": true,
          "internalType": "address",
          "name": "account",
          "type": "address"
        },
        {
          "indexed": true,
          "internalType": "address",
          "name": "operator",
          "type": "address"
        },
        {
          "indexed": false,
          "internalType": "bool",
          "name": "approved",
          "type": "bool"
        }
      ],
      "name": "ApprovalForAll",
      "type": "event"
    },
    {
      "anonymous": false,
      "inputs": [
        {
          "indexed": true,
          "internalType": "address",
          "name": "previousOwner",
          "type": "address"
        },
        {
          "indexed": true,
          "internalType": "address",
          "name": "newOwner",
          "type": "address"
        }
      ],
      "name": "OwnershipTransferred",
      "type": "event"
    },
    {
      "anonymous": false,
      "inputs": [
        {
          "indexed": true,
          "internalType": "address",
          "name": "operator",
          "type": "address"
        },
        {
          "indexed": true,
          "internalType": "address",
          "name": "from",
          "type": "address"
        },
        {
          "indexed": true,
          "internalType": "address",
          "name": "to",
          "type": "address"
        },
        {
          "indexed": false,
          "internalType": "uint256[]",
          "name": "ids",
          "type": "uint256[]"
        },
        {
          "indexed": false,
          "internalType": "uint256[]",
          "name": "values",
          "type": "uint256[]"
        }
      ],
      "name": "TransferBatch",
      "type": "event"
    },
    {
      "anonymous": false,
      "inputs": [
        {
          "indexed": true,
          "internalType": "address",
          "name": "operator",
          "type": "address"
        },
        {
          "indexed": true,
          "internalType": "address",
          "name": "from",
          "type": "address"
        },
        {
          "indexed": true,
          "internalType": "address",
          "name": "to",
          "type": "address"
        },
        {
          "indexed": false,
          "internalType": "uint256",
          "name": "id",
          "type": "uint256"
        },
        {
          "indexed": false,
          "internalType": "uint256",
          "name": "value",
          "type": "uint256"
        }
      ],
      "name": "TransferSingle",
      "type": "event"
    },
    {
      "anonymous": false,
      "inputs": [
        {
          "indexed": false,
          "internalType": "string",
          "name": "value",
          "type": "string"
        },
        {
          "indexed": true,
          "internalType": "uint256",
          "name": "id",
          "type": "uint256"
        }
      ],
      "name": "URI",
      "type": "event"
    },
    {
      "inputs": [
        {
          "internalType": "address",
          "name": "account",
          "type": "address"
        },
        {
          "internalType": "uint256",
          "name": "id",
          "type": "uint256"
        }
      ],
      "name": "balanceOf",
      "outputs": [
        {
          "internalType": "uint256",
          "name": "",
          "type": "uint256"
        }
      ],
      "stateMutability": "view",
      "type": "function"
    },
    {
      "inputs": [
        {
          "internalType": "address[]",
          "name": "accounts",
          "type": "address[]"
        },
        {
          "internalType": "uint256[]",
          "name": "ids",
          "type": "uint256[]"
        }
      ],
      "name": "balanceOfBatch",
      "outputs": [
        {
          "internalType": "uint256[]",
          "name": "",
          "type": "uint256[]"
        }
      ],
      "stateMutability": "view",
      "type": "function"
    },
    {
      "inputs": [
        {
          "internalType": "uint256",
          "name": "amount",
          "type": "uint256"
        },
        {
          "internalType": "string",
          "name": "_uri",
          "type": "string"
        }
      ],
      "name": "createToken",
      "outputs": [],
      "stateMutability": "nonpayable",
      "type": "function"
    },
    {
      "inputs": [],
      "name": "currentIndex",
      "outputs": [
        {
          "internalType": "uint256",
          "name": "",
          "type": "uint256"
        }
      ],
      "stateMutability": "view",
      "type": "function"
    },
    {
      "inputs": [
        {
          "internalType": "uint256",
          "name": "tokenId",
          "type": "uint256"
        }
      ],
      "name": "giveResaleApproval",
      "outputs": [],
      "stateMutability": "nonpayable",
      "type": "function"
    },
    {
      "inputs": [
        {
          "internalType": "address",
          "name": "account",
          "type": "address"
        },
        {
          "internalType": "address",
          "name": "operator",
          "type": "address"
        }
      ],
      "name": "isApprovedForAll",
      "outputs": [
        {
          "internalType": "bool",
          "name": "",
          "type": "bool"
        }
      ],
      "stateMutability": "view",
      "type": "function"
    },
    {
      "inputs": [],
      "name": "owner",
      "outputs": [
        {
          "internalType": "address",
          "name": "",
          "type": "address"
        }
      ],
      "stateMutability": "view",
      "type": "function"
    },
    {
      "inputs": [],
      "name": "renounceOwnership",
      "outputs": [],
      "stateMutability": "nonpayable",
      "type": "function"
    },
    {
      "inputs": [
        {
          "internalType": "address",
          "name": "from",
          "type": "address"
        },
        {
          "internalType": "address",
          "name": "to",
          "type": "address"
        },
        {
          "internalType": "uint256[]",
          "name": "ids",
          "type": "uint256[]"
        },
        {
          "internalType": "uint256[]",
          "name": "amounts",
          "type": "uint256[]"
        },
        {
          "internalType": "bytes",
          "name": "data",
          "type": "bytes"
        }
      ],
      "name": "safeBatchTransferFrom",
      "outputs": [],
      "stateMutability": "nonpayable",
      "type": "function"
    },
    {
      "inputs": [
        {
          "internalType": "address",
          "name": "from",
          "type": "address"
        },
        {
          "internalType": "address",
          "name": "to",
          "type": "address"
        },
        {
          "internalType": "uint256",
          "name": "id",
          "type": "uint256"
        },
        {
          "internalType": "uint256",
          "name": "amount",
          "type": "uint256"
        },
        {
          "internalType": "bytes",
          "name": "data",
          "type": "bytes"
        }
      ],
      "name": "safeTransferFrom",
      "outputs": [],
      "stateMutability": "nonpayable",
      "type": "function"
    },
    {
      "inputs": [
        {
          "internalType": "address",
          "name": "operator",
          "type": "address"
        },
        {
          "internalType": "bool",
          "name": "approved",
          "type": "bool"
        }
      ],
      "name": "setApprovalForAll",
      "outputs": [],
      "stateMutability": "nonpayable",
      "type": "function"
    },
    {
      "inputs": [
        {
          "internalType": "uint256",
          "name": "tokenId",
          "type": "uint256"
        },
        {
          "internalType": "string",
          "name": "_uri",
          "type": "string"
        }
      ],
      "name": "setTokenUri",
      "outputs": [],
      "stateMutability": "nonpayable",
      "type": "function"
    },
    {
      "inputs": [
        {
          "internalType": "bytes4",
          "name": "interfaceId",
          "type": "bytes4"
        }
      ],
      "name": "supportsInterface",
      "outputs": [
        {
          "internalType": "bool",
          "name": "",
          "type": "bool"
        }
      ],
      "stateMutability": "view",
      "type": "function"
    },
    {
      "inputs": [
        {
          "internalType": "address",
          "name": "newOwner",
          "type": "address"
        }
      ],
      "name": "transferOwnership",
      "outputs": [],
      "stateMutability": "nonpayable",
      "type": "function"
    },
    {
      "inputs": [
        {
          "internalType": "uint256",
          "name": "tokenId",
          "type": "uint256"
        }
      ],
      "name": "uri",
      "outputs": [
        {
          "internalType": "string",
          "name": "",
          "type": "string"
        }
      ],
      "stateMutability": "view",
      "type": "function"
    }
  ],
  "bytecode": "0x608060405260016005553480156200001657600080fd5b506040516200351a3803806200351a83398181016040528101906200003c919062000277565b604051806020016040528060008152506200005d81620000c660201b60201c565b506200007e62000072620000e260201b60201c565b620000ea60201b60201c565b80600460006101000a81548173ffffffffffffffffffffffffffffffffffffffff021916908373ffffffffffffffffffffffffffffffffffffffff1602179055505062000356565b8060029080519060200190620000de929190620001b0565b5050565b600033905090565b6000600360009054906101000a900473ffffffffffffffffffffffffffffffffffffffff16905081600360006101000a81548173ffffffffffffffffffffffffffffffffffffffff021916908373ffffffffffffffffffffffffffffffffffffffff1602179055508173ffffffffffffffffffffffffffffffffffffffff168173ffffffffffffffffffffffffffffffffffffffff167f8be0079c531659141344cd1fd0a4f28419497f9722a3daafe3b4186f6b6457e060405160405180910390a35050565b828054620001be90620002d7565b90600052602060002090601f016020900481019282620001e257600085556200022e565b82601f10620001fd57805160ff19168380011785556200022e565b828001600101855582156200022e579182015b828111156200022d57825182559160200191906001019062000210565b5b5090506200023d919062000241565b5090565b5b808211156200025c57600081600090555060010162000242565b5090565b60008151905062000271816200033c565b92915050565b6000602082840312156200028a57600080fd5b60006200029a8482850162000260565b91505092915050565b6000620002b082620002b7565b9050919050565b600073ffffffffffffffffffffffffffffffffffffffff82169050919050565b60006002820490506001821680620002f057607f821691505b602082108114156200030757620003066200030d565b5b50919050565b7f4e487b7100000000000000000000000000000000000000000000000000000000600052602260045260246000fd5b6200034781620002a3565b81146200035357600080fd5b50565b6131b480620003666000396000f3fe608060405234801561001057600080fd5b50600436106100f45760003560e01c806357f7789e11610097578063a22cb46511610066578063a22cb4651461026f578063e985e9c51461028b578063f242432a146102bb578063f2fde38b146102d7576100f4565b806357f7789e1461020f578063715018a61461022b5780637e78146c146102355780638da5cb5b14610251576100f4565b80631b3efe85116100d35780631b3efe851461018957806326987b60146101a55780632eb2c2d6146101c35780634e1273f4146101df576100f4565b8062fdd58e146100f957806301ffc9a7146101295780630e89341c14610159575b600080fd5b610113600480360381019061010e919061208f565b6102f3565b6040516101209190612847565b60405180910390f35b610143600480360381019061013e9190612137565b6103bc565b604051610150919061264a565b60405180910390f35b610173600480360381019061016e9190612189565b61049e565b6040516101809190612665565b60405180910390f35b6101a3600480360381019061019e91906121b2565b610543565b005b6101ad61064a565b6040516101ba9190612847565b60405180910390f35b6101dd60048036038101906101d89190611f05565b610650565b005b6101f960048036038101906101f491906120cb565b6106f1565b60405161020691906125f1565b60405180910390f35b610229600480360381019061022491906121b2565b6108a2565b005b61023361094a565b005b61024f600480360381019061024a9190612189565b6109d2565b005b610259610a4f565b6040516102669190612514565b60405180910390f35b61028960048036038101906102849190612053565b610a79565b005b6102a560048036038101906102a09190611ec9565b610a8f565b6040516102b2919061264a565b60405180910390f35b6102d560048036038101906102d09190611fc4565b610b23565b005b6102f160048036038101906102ec9190611ea0565b610bc4565b005b60008073ffffffffffffffffffffffffffffffffffffffff168373ffffffffffffffffffffffffffffffffffffffff161415610364576040517f08c379a000000000000000000000000000000000000000000000000000000000815260040161035b906126c7565b60405180910390fd5b60008083815260200190815260200160002060008473ffffffffffffffffffffffffffffffffffffffff1673ffffffffffffffffffffffffffffffffffffffff16815260200190815260200160002054905092915050565b60007fd9b67a26000000000000000000000000000000000000000000000000000000007bffffffffffffffffffffffffffffffffffffffffffffffffffffffff1916827bffffffffffffffffffffffffffffffffffffffffffffffffffffffff1916148061048757507f0e89341c000000000000000000000000000000000000000000000000000000007bffffffffffffffffffffffffffffffffffffffffffffffffffffffff1916827bffffffffffffffffffffffffffffffffffffffffffffffffffffffff1916145b80610497575061049682610cbc565b5b9050919050565b60606006600083815260200190815260200160002080546104be90612ae7565b80601f01602080910402602001604051908101604052809291908181526020018280546104ea90612ae7565b80156105375780601f1061050c57610100808354040283529160200191610537565b820191906000526020600020905b81548152906001019060200180831161051a57829003601f168201915b50505050509050919050565b61054b610d26565b73ffffffffffffffffffffffffffffffffffffffff16610569610a4f565b73ffffffffffffffffffffffffffffffffffffffff16146105bf576040517f08c379a00000000000000000000000000000000000000000000000000000000081526004016105b690612787565b60405180910390fd5b600060055490506105e133828560405180602001604052806000815250610d2e565b81600660008381526020019081526020016000209080519060200190610608929190611b98565b50808060010191505080600581905550610645600460009054906101000a900473ffffffffffffffffffffffffffffffffffffffff166001610a79565b505050565b60055481565b610658610d26565b73ffffffffffffffffffffffffffffffffffffffff168573ffffffffffffffffffffffffffffffffffffffff16148061069e575061069d85610698610d26565b610a8f565b5b6106dd576040517f08c379a00000000000000000000000000000000000000000000000000000000081526004016106d490612747565b60405180910390fd5b6106ea8585858585610ec4565b5050505050565b60608151835114610737576040517f08c379a000000000000000000000000000000000000000000000000000000000815260040161072e906127e7565b60405180910390fd5b6000835167ffffffffffffffff81111561077a577f4e487b7100000000000000000000000000000000000000000000000000000000600052604160045260246000fd5b6040519080825280602002602001820160405280156107a85781602001602082028036833780820191505090505b50905060005b8451811015610897576108418582815181106107f3577f4e487b7100000000000000000000000000000000000000000000000000000000600052603260045260246000fd5b6020026020010151858381518110610834577f4e487b7100000000000000000000000000000000000000000000000000000000600052603260045260246000fd5b60200260200101516102f3565b82828151811061087a577f4e487b7100000000000000000000000000000000000000000000000000000000600052603260045260246000fd5b6020026020010181815250508061089090612b4a565b90506107ae565b508091505092915050565b6108aa610d26565b73ffffffffffffffffffffffffffffffffffffffff166108c8610a4f565b73ffffffffffffffffffffffffffffffffffffffff161461091e576040517f08c379a000000000000000000000000000000000000000000000000000000000815260040161091590612787565b60405180910390fd5b80600660008481526020019081526020016000209080519060200190610945929190611b98565b505050565b610952610d26565b73ffffffffffffffffffffffffffffffffffffffff16610970610a4f565b73ffffffffffffffffffffffffffffffffffffffff16146109c6576040517f08c379a00000000000000000000000000000000000000000000000000000000081526004016109bd90612787565b60405180910390fd5b6109d06000611224565b565b60006109de33836102f3565b1415610a1f576040517f08c379a0000000000000000000000000000000000000000000000000000000008152600401610a16906127a7565b60405180910390fd5b610a4c600460009054906101000a900473ffffffffffffffffffffffffffffffffffffffff166001610a79565b50565b6000600360009054906101000a900473ffffffffffffffffffffffffffffffffffffffff16905090565b610a8b610a84610d26565b83836112ea565b5050565b6000600160008473ffffffffffffffffffffffffffffffffffffffff1673ffffffffffffffffffffffffffffffffffffffff16815260200190815260200160002060008373ffffffffffffffffffffffffffffffffffffffff1673ffffffffffffffffffffffffffffffffffffffff16815260200190815260200160002060009054906101000a900460ff16905092915050565b610b2b610d26565b73ffffffffffffffffffffffffffffffffffffffff168573ffffffffffffffffffffffffffffffffffffffff161480610b715750610b7085610b6b610d26565b610a8f565b5b610bb0576040517f08c379a0000000000000000000000000000000000000000000000000000000008152600401610ba790612707565b60405180910390fd5b610bbd8585858585611457565b5050505050565b610bcc610d26565b73ffffffffffffffffffffffffffffffffffffffff16610bea610a4f565b73ffffffffffffffffffffffffffffffffffffffff1614610c40576040517f08c379a0000000000000000000000000000000000000000000000000000000008152600401610c3790612787565b60405180910390fd5b600073ffffffffffffffffffffffffffffffffffffffff168173ffffffffffffffffffffffffffffffffffffffff161415610cb0576040517f08c379a0000000000000000000000000000000000000000000000000000000008152600401610ca7906126e7565b60405180910390fd5b610cb981611224565b50565b60007f01ffc9a7000000000000000000000000000000000000000000000000000000007bffffffffffffffffffffffffffffffffffffffffffffffffffffffff1916827bffffffffffffffffffffffffffffffffffffffffffffffffffffffff1916149050919050565b600033905090565b600073ffffffffffffffffffffffffffffffffffffffff168473ffffffffffffffffffffffffffffffffffffffff161415610d9e576040517f08c379a0000000000000000000000000000000000000000000000000000000008152600401610d9590612827565b60405180910390fd5b6000610da8610d26565b9050610dc981600087610dba886116d9565b610dc3886116d9565b8761179f565b8260008086815260200190815260200160002060008773ffffffffffffffffffffffffffffffffffffffff1673ffffffffffffffffffffffffffffffffffffffff1681526020019081526020016000206000828254610e2891906129db565b925050819055508473ffffffffffffffffffffffffffffffffffffffff16600073ffffffffffffffffffffffffffffffffffffffff168273ffffffffffffffffffffffffffffffffffffffff167fc3d58168c5ae7397731d063d5bbf3d657854427343f4c083240f7aacaa2d0f628787604051610ea6929190612862565b60405180910390a4610ebd816000878787876117a7565b5050505050565b8151835114610f08576040517f08c379a0000000000000000000000000000000000000000000000000000000008152600401610eff90612807565b60405180910390fd5b600073ffffffffffffffffffffffffffffffffffffffff168473ffffffffffffffffffffffffffffffffffffffff161415610f78576040517f08c379a0000000000000000000000000000000000000000000000000000000008152600401610f6f90612727565b60405180910390fd5b6000610f82610d26565b9050610f9281878787878761179f565b60005b845181101561118f576000858281518110610fd9577f4e487b7100000000000000000000000000000000000000000000000000000000600052603260045260246000fd5b60200260200101519050600085838151811061101e577f4e487b7100000000000000000000000000000000000000000000000000000000600052603260045260246000fd5b60200260200101519050600080600084815260200190815260200160002060008b73ffffffffffffffffffffffffffffffffffffffff1673ffffffffffffffffffffffffffffffffffffffff168152602001908152602001600020549050818110156110bf576040517f08c379a00000000000000000000000000000000000000000000000000000000081526004016110b690612767565b60405180910390fd5b81810360008085815260200190815260200160002060008c73ffffffffffffffffffffffffffffffffffffffff1673ffffffffffffffffffffffffffffffffffffffff168152602001908152602001600020819055508160008085815260200190815260200160002060008b73ffffffffffffffffffffffffffffffffffffffff1673ffffffffffffffffffffffffffffffffffffffff168152602001908152602001600020600082825461117491906129db565b925050819055505050508061118890612b4a565b9050610f95565b508473ffffffffffffffffffffffffffffffffffffffff168673ffffffffffffffffffffffffffffffffffffffff168273ffffffffffffffffffffffffffffffffffffffff167f4a39dc06d4c0dbc64b70af90fd698a233a518aa5d07e595d983b8c0526c8f7fb8787604051611206929190612613565b60405180910390a461121c81878787878761198e565b505050505050565b6000600360009054906101000a900473ffffffffffffffffffffffffffffffffffffffff16905081600360006101000a81548173ffffffffffffffffffffffffffffffffffffffff021916908373ffffffffffffffffffffffffffffffffffffffff1602179055508173ffffffffffffffffffffffffffffffffffffffff168173ffffffffffffffffffffffffffffffffffffffff167f8be0079c531659141344cd1fd0a4f28419497f9722a3daafe3b4186f6b6457e060405160405180910390a35050565b8173ffffffffffffffffffffffffffffffffffffffff168373ffffffffffffffffffffffffffffffffffffffff161415611359576040517f08c379a0000000000000000000000000000000000000000000000000000000008152600401611350906127c7565b60405180910390fd5b80600160008573ffffffffffffffffffffffffffffffffffffffff1673ffffffffffffffffffffffffffffffffffffffff16815260200190815260200160002060008473ffffffffffffffffffffffffffffffffffffffff1673ffffffffffffffffffffffffffffffffffffffff16815260200190815260200160002060006101000a81548160ff0219169083151502179055508173ffffffffffffffffffffffffffffffffffffffff168373ffffffffffffffffffffffffffffffffffffffff167f17307eab39ab6107e8899845ad3d59bd9653f200f220920489ca2b5937696c318360405161144a919061264a565b60405180910390a3505050565b600073ffffffffffffffffffffffffffffffffffffffff168473ffffffffffffffffffffffffffffffffffffffff1614156114c7576040517f08c379a00000000000000000000000000000000000000000000000000000000081526004016114be90612727565b60405180910390fd5b60006114d1610d26565b90506114f18187876114e2886116d9565b6114eb886116d9565b8761179f565b600080600086815260200190815260200160002060008873ffffffffffffffffffffffffffffffffffffffff1673ffffffffffffffffffffffffffffffffffffffff16815260200190815260200160002054905083811015611588576040517f08c379a000000000000000000000000000000000000000000000000000000000815260040161157f90612767565b60405180910390fd5b83810360008087815260200190815260200160002060008973ffffffffffffffffffffffffffffffffffffffff1673ffffffffffffffffffffffffffffffffffffffff168152602001908152602001600020819055508360008087815260200190815260200160002060008873ffffffffffffffffffffffffffffffffffffffff1673ffffffffffffffffffffffffffffffffffffffff168152602001908152602001600020600082825461163d91906129db565b925050819055508573ffffffffffffffffffffffffffffffffffffffff168773ffffffffffffffffffffffffffffffffffffffff168373ffffffffffffffffffffffffffffffffffffffff167fc3d58168c5ae7397731d063d5bbf3d657854427343f4c083240f7aacaa2d0f6288886040516116ba929190612862565b60405180910390a46116d08288888888886117a7565b50505050505050565b60606000600167ffffffffffffffff81111561171e577f4e487b7100000000000000000000000000000000000000000000000000000000600052604160045260246000fd5b60405190808252806020026020018201604052801561174c5781602001602082028036833780820191505090505b509050828160008151811061178a577f4e487b7100000000000000000000000000000000000000000000000000000000600052603260045260246000fd5b60200260200101818152505080915050919050565b505050505050565b6117c68473ffffffffffffffffffffffffffffffffffffffff16611b75565b15611986578373ffffffffffffffffffffffffffffffffffffffff1663f23a6e6187878686866040518663ffffffff1660e01b815260040161180c959493929190612597565b602060405180830381600087803b15801561182657600080fd5b505af192505050801561185757506040513d601f19601f820116820180604052508101906118549190612160565b60015b6118fd57611863612c20565b806308c379a014156118c0575061187861308c565b8061188357506118c2565b806040517f08c379a00000000000000000000000000000000000000000000000000000000081526004016118b79190612665565b60405180910390fd5b505b6040517f08c379a00000000000000000000000000000000000000000000000000000000081526004016118f490612687565b60405180910390fd5b63f23a6e6160e01b7bffffffffffffffffffffffffffffffffffffffffffffffffffffffff1916817bffffffffffffffffffffffffffffffffffffffffffffffffffffffff191614611984576040517f08c379a000000000000000000000000000000000000000000000000000000000815260040161197b906126a7565b60405180910390fd5b505b505050505050565b6119ad8473ffffffffffffffffffffffffffffffffffffffff16611b75565b15611b6d578373ffffffffffffffffffffffffffffffffffffffff1663bc197c8187878686866040518663ffffffff1660e01b81526004016119f395949392919061252f565b602060405180830381600087803b158015611a0d57600080fd5b505af1925050508015611a3e57506040513d601f19601f82011682018060405250810190611a3b9190612160565b60015b611ae457611a4a612c20565b806308c379a01415611aa75750611a5f61308c565b80611a6a5750611aa9565b806040517f08c379a0000000000000000000000000000000000000000000000000000000008152600401611a9e9190612665565b60405180910390fd5b505b6040517f08c379a0000000000000000000000000000000000000000000000000000000008152600401611adb90612687565b60405180910390fd5b63bc197c8160e01b7bffffffffffffffffffffffffffffffffffffffffffffffffffffffff1916817bffffffffffffffffffffffffffffffffffffffffffffffffffffffff191614611b6b576040517f08c379a0000000000000000000000000000000000000000000000000000000008152600401611b62906126a7565b60405180910390fd5b505b505050505050565b6000808273ffffffffffffffffffffffffffffffffffffffff163b119050919050565b828054611ba490612ae7565b90600052602060002090601f016020900481019282611bc65760008555611c0d565b82601f10611bdf57805160ff1916838001178555611c0d565b82800160010185558215611c0d579182015b82811115611c0c578251825591602001919060010190611bf1565b5b509050611c1a9190611c1e565b5090565b5b80821115611c37576000816000905550600101611c1f565b5090565b6000611c4e611c49846128b0565b61288b565b90508083825260208201905082856020860282011115611c6d57600080fd5b60005b85811015611c9d5781611c838882611d8f565b845260208401935060208301925050600181019050611c70565b5050509392505050565b6000611cba611cb5846128dc565b61288b565b90508083825260208201905082856020860282011115611cd957600080fd5b60005b85811015611d095781611cef8882611e8b565b845260208401935060208301925050600181019050611cdc565b5050509392505050565b6000611d26611d2184612908565b61288b565b905082815260208101848484011115611d3e57600080fd5b611d49848285612aa5565b509392505050565b6000611d64611d5f84612939565b61288b565b905082815260208101848484011115611d7c57600080fd5b611d87848285612aa5565b509392505050565b600081359050611d9e81613122565b92915050565b600082601f830112611db557600080fd5b8135611dc5848260208601611c3b565b91505092915050565b600082601f830112611ddf57600080fd5b8135611def848260208601611ca7565b91505092915050565b600081359050611e0781613139565b92915050565b600081359050611e1c81613150565b92915050565b600081519050611e3181613150565b92915050565b600082601f830112611e4857600080fd5b8135611e58848260208601611d13565b91505092915050565b600082601f830112611e7257600080fd5b8135611e82848260208601611d51565b91505092915050565b600081359050611e9a81613167565b92915050565b600060208284031215611eb257600080fd5b6000611ec084828501611d8f565b91505092915050565b60008060408385031215611edc57600080fd5b6000611eea85828601611d8f565b9250506020611efb85828601611d8f565b9150509250929050565b600080600080600060a08688031215611f1d57600080fd5b6000611f2b88828901611d8f565b9550506020611f3c88828901611d8f565b945050604086013567ffffffffffffffff811115611f5957600080fd5b611f6588828901611dce565b935050606086013567ffffffffffffffff811115611f8257600080fd5b611f8e88828901611dce565b925050608086013567ffffffffffffffff811115611fab57600080fd5b611fb788828901611e37565b9150509295509295909350565b600080600080600060a08688031215611fdc57600080fd5b6000611fea88828901611d8f565b9550506020611ffb88828901611d8f565b945050604061200c88828901611e8b565b935050606061201d88828901611e8b565b925050608086013567ffffffffffffffff81111561203a57600080fd5b61204688828901611e37565b9150509295509295909350565b6000806040838503121561206657600080fd5b600061207485828601611d8f565b925050602061208585828601611df8565b9150509250929050565b600080604083850312156120a257600080fd5b60006120b085828601611d8f565b92505060206120c185828601611e8b565b9150509250929050565b600080604083850312156120de57600080fd5b600083013567ffffffffffffffff8111156120f857600080fd5b61210485828601611da4565b925050602083013567ffffffffffffffff81111561212157600080fd5b61212d85828601611dce565b9150509250929050565b60006020828403121561214957600080fd5b600061215784828501611e0d565b91505092915050565b60006020828403121561217257600080fd5b600061218084828501611e22565b91505092915050565b60006020828403121561219b57600080fd5b60006121a984828501611e8b565b91505092915050565b600080604083850312156121c557600080fd5b60006121d385828601611e8b565b925050602083013567ffffffffffffffff8111156121f057600080fd5b6121fc85828601611e61565b9150509250929050565b600061221283836124f6565b60208301905092915050565b61222781612a31565b82525050565b60006122388261297a565b61224281856129a8565b935061224d8361296a565b8060005b8381101561227e5781516122658882612206565b97506122708361299b565b925050600181019050612251565b5085935050505092915050565b61229481612a43565b82525050565b60006122a582612985565b6122af81856129b9565b93506122bf818560208601612ab4565b6122c881612c42565b840191505092915050565b60006122de82612990565b6122e881856129ca565b93506122f8818560208601612ab4565b61230181612c42565b840191505092915050565b60006123196034836129ca565b915061232482612c60565b604082019050919050565b600061233c6028836129ca565b915061234782612caf565b604082019050919050565b600061235f602b836129ca565b915061236a82612cfe565b604082019050919050565b60006123826026836129ca565b915061238d82612d4d565b604082019050919050565b60006123a56029836129ca565b91506123b082612d9c565b604082019050919050565b60006123c86025836129ca565b91506123d382612deb565b604082019050919050565b60006123eb6032836129ca565b91506123f682612e3a565b604082019050919050565b600061240e602a836129ca565b915061241982612e89565b604082019050919050565b60006124316020836129ca565b915061243c82612ed8565b602082019050919050565b6000612454602b836129ca565b915061245f82612f01565b604082019050919050565b60006124776029836129ca565b915061248282612f50565b604082019050919050565b600061249a6029836129ca565b91506124a582612f9f565b604082019050919050565b60006124bd6028836129ca565b91506124c882612fee565b604082019050919050565b60006124e06021836129ca565b91506124eb8261303d565b604082019050919050565b6124ff81612a9b565b82525050565b61250e81612a9b565b82525050565b6000602082019050612529600083018461221e565b92915050565b600060a082019050612544600083018861221e565b612551602083018761221e565b8181036040830152612563818661222d565b90508181036060830152612577818561222d565b9050818103608083015261258b818461229a565b90509695505050505050565b600060a0820190506125ac600083018861221e565b6125b9602083018761221e565b6125c66040830186612505565b6125d36060830185612505565b81810360808301526125e5818461229a565b90509695505050505050565b6000602082019050818103600083015261260b818461222d565b905092915050565b6000604082019050818103600083015261262d818561222d565b90508181036020830152612641818461222d565b90509392505050565b600060208201905061265f600083018461228b565b92915050565b6000602082019050818103600083015261267f81846122d3565b905092915050565b600060208201905081810360008301526126a08161230c565b9050919050565b600060208201905081810360008301526126c08161232f565b9050919050565b600060208201905081810360008301526126e081612352565b9050919050565b6000602082019050818103600083015261270081612375565b9050919050565b6000602082019050818103600083015261272081612398565b9050919050565b60006020820190508181036000830152612740816123bb565b9050919050565b60006020820190508181036000830152612760816123de565b9050919050565b6000602082019050818103600083015261278081612401565b9050919050565b600060208201905081810360008301526127a081612424565b9050919050565b600060208201905081810360008301526127c081612447565b9050919050565b600060208201905081810360008301526127e08161246a565b9050919050565b600060208201905081810360008301526128008161248d565b9050919050565b60006020820190508181036000830152612820816124b0565b9050919050565b60006020820190508181036000830152612840816124d3565b9050919050565b600060208201905061285c6000830184612505565b92915050565b60006040820190506128776000830185612505565b6128846020830184612505565b9392505050565b60006128956128a6565b90506128a18282612b19565b919050565b6000604051905090565b600067ffffffffffffffff8211156128cb576128ca612bf1565b5b602082029050602081019050919050565b600067ffffffffffffffff8211156128f7576128f6612bf1565b5b602082029050602081019050919050565b600067ffffffffffffffff82111561292357612922612bf1565b5b61292c82612c42565b9050602081019050919050565b600067ffffffffffffffff82111561295457612953612bf1565b5b61295d82612c42565b9050602081019050919050565b6000819050602082019050919050565b600081519050919050565b600081519050919050565b600081519050919050565b6000602082019050919050565b600082825260208201905092915050565b600082825260208201905092915050565b600082825260208201905092915050565b60006129e682612a9b565b91506129f183612a9b565b9250827fffffffffffffffffffffffffffffffffffffffffffffffffffffffffffffffff03821115612a2657612a25612b93565b5b828201905092915050565b6000612a3c82612a7b565b9050919050565b60008115159050919050565b60007fffffffff0000000000000000000000000000000000000000000000000000000082169050919050565b600073ffffffffffffffffffffffffffffffffffffffff82169050919050565b6000819050919050565b82818337600083830152505050565b60005b83811015612ad2578082015181840152602081019050612ab7565b83811115612ae1576000848401525b50505050565b60006002820490506001821680612aff57607f821691505b60208210811415612b1357612b12612bc2565b5b50919050565b612b2282612c42565b810181811067ffffffffffffffff82111715612b4157612b40612bf1565b5b80604052505050565b6000612b5582612a9b565b91507fffffffffffffffffffffffffffffffffffffffffffffffffffffffffffffffff821415612b8857612b87612b93565b5b600182019050919050565b7f4e487b7100000000000000000000000000000000000000000000000000000000600052601160045260246000fd5b7f4e487b7100000000000000000000000000000000000000000000000000000000600052602260045260246000fd5b7f4e487b7100000000000000000000000000000000000000000000000000000000600052604160045260246000fd5b600060033d1115612c3f5760046000803e612c3c600051612c53565b90505b90565b6000601f19601f8301169050919050565b60008160e01c9050919050565b7f455243313135353a207472616e7366657220746f206e6f6e204552433131353560008201527f526563656976657220696d706c656d656e746572000000000000000000000000602082015250565b7f455243313135353a204552433131353552656365697665722072656a6563746560008201527f6420746f6b656e73000000000000000000000000000000000000000000000000602082015250565b7f455243313135353a2062616c616e636520717565727920666f7220746865207a60008201527f65726f2061646472657373000000000000000000000000000000000000000000602082015250565b7f4f776e61626c653a206e6577206f776e657220697320746865207a65726f206160008201527f6464726573730000000000000000000000000000000000000000000000000000602082015250565b7f455243313135353a2063616c6c6572206973206e6f74206f776e6572206e6f7260008201527f20617070726f7665640000000000000000000000000000000000000000000000602082015250565b7f455243313135353a207472616e7366657220746f20746865207a65726f20616460008201527f6472657373000000000000000000000000000000000000000000000000000000602082015250565b7f455243313135353a207472616e736665722063616c6c6572206973206e6f742060008201527f6f776e6572206e6f7220617070726f7665640000000000000000000000000000602082015250565b7f455243313135353a20696e73756666696369656e742062616c616e636520666f60008201527f72207472616e7366657200000000000000000000000000000000000000000000602082015250565b7f4f776e61626c653a2063616c6c6572206973206e6f7420746865206f776e6572600082015250565b7f596f75206d757374206f776e2074686973204e465420696e206f72646572207460008201527f6f20726573656c6c206974000000000000000000000000000000000000000000602082015250565b7f455243313135353a2073657474696e6720617070726f76616c2073746174757360008201527f20666f722073656c660000000000000000000000000000000000000000000000602082015250565b7f455243313135353a206163636f756e747320616e6420696473206c656e67746860008201527f206d69736d617463680000000000000000000000000000000000000000000000602082015250565b7f455243313135353a2069647320616e6420616d6f756e7473206c656e6774682060008201527f6d69736d61746368000000000000000000000000000000000000000000000000602082015250565b7f455243313135353a206d696e7420746f20746865207a65726f2061646472657360008201527f7300000000000000000000000000000000000000000000000000000000000000602082015250565b600060443d101561309c5761311f565b6130a46128a6565b60043d036004823e80513d602482011167ffffffffffffffff821117156130cc57505061311f565b808201805167ffffffffffffffff8111156130ea575050505061311f565b80602083010160043d03850181111561310757505050505061311f565b61311682602001850186612b19565b82955050505050505b90565b61312b81612a31565b811461313657600080fd5b50565b61314281612a43565b811461314d57600080fd5b50565b61315981612a4f565b811461316457600080fd5b50565b61317081612a9b565b811461317b57600080fd5b5056fea2646970667358221220c9e281e4469da08779259c4010eac09dc4b55f143e84049c283280112bbc58bf64736f6c63430008040033",
  "linkReferences": {},
  "deployedLinkReferences": {}
}