{
  "_format": "hh-sol-artifact-1",
  "contractName": "NFTMarket",
  "sourceName": "contracts/Market.sol",
  "abi": [
    {
      "inputs": [],
      "stateMutability": "nonpayable",
      "type": "constructor"
    },
    {
      "anonymous": false,
      "inputs": [
        {
          "indexed": false,
          "internalType": "uint256",
          "name": "itemId",
          "type": "uint256"
        },
        {
          "indexed": true,
          "internalType": "address",
          "name": "nftContract",
          "type": "address"
        },
        {
          "indexed": true,
          "internalType": "address",
          "name": "owner",
          "type": "address"
        },
        {
          "indexed": true,
          "internalType": "uint256",
          "name": "tokenId",
          "type": "uint256"
        },
        {
          "indexed": false,
          "internalType": "uint256",
          "name": "price",
          "type": "uint256"
        },
        {
          "indexed": false,
          "internalType": "bool",
          "name": "sold",
          "type": "bool"
        }
      ],
      "name": "MarketItemCreated",
      "type": "event"
    },
    {
      "anonymous": false,
      "inputs": [
        {
          "indexed": true,
          "internalType": "address",
          "name": "acquirer",
          "type": "address"
        },
        {
          "indexed": true,
          "internalType": "uint256",
          "name": "tokenId",
          "type": "uint256"
        },
        {
          "indexed": false,
          "internalType": "uint256",
          "name": "timeGotten",
          "type": "uint256"
        }
      ],
      "name": "NftBought",
      "type": "event"
    },
    {
      "anonymous": false,
      "inputs": [
        {
          "indexed": true,
          "internalType": "address",
          "name": "from",
          "type": "address"
        },
        {
          "indexed": true,
          "internalType": "address",
          "name": "to",
          "type": "address"
        },
        {
          "indexed": true,
          "internalType": "uint256",
          "name": "tokenId",
          "type": "uint256"
        },
        {
          "indexed": false,
          "internalType": "uint256",
          "name": "timeGifted",
          "type": "uint256"
        }
      ],
      "name": "NftGifted",
      "type": "event"
    },
    {
      "anonymous": false,
      "inputs": [
        {
          "indexed": true,
          "internalType": "address",
          "name": "seller",
          "type": "address"
        },
        {
          "indexed": true,
          "internalType": "uint256",
          "name": "tokenId",
          "type": "uint256"
        },
        {
          "indexed": true,
          "internalType": "uint256",
          "name": "timeSold",
          "type": "uint256"
        }
      ],
      "name": "NftSold",
      "type": "event"
    },
    {
      "anonymous": false,
      "inputs": [
        {
          "indexed": true,
          "internalType": "address",
          "name": "previousOwner",
          "type": "address"
        },
        {
          "indexed": true,
          "internalType": "address",
          "name": "newOwner",
          "type": "address"
        }
      ],
      "name": "OwnershipTransferred",
      "type": "event"
    },
    {
      "anonymous": false,
      "inputs": [
        {
          "indexed": true,
          "internalType": "address",
          "name": "sender",
          "type": "address"
        },
        {
          "indexed": true,
          "internalType": "uint256",
          "name": "tokenId",
          "type": "uint256"
        },
        {
          "indexed": true,
          "internalType": "uint256",
          "name": "amount",
          "type": "uint256"
        }
      ],
      "name": "TryingToSellPrematureNFT",
      "type": "event"
    },
    {
      "inputs": [
        {
          "internalType": "address",
          "name": "nftContract",
          "type": "address"
        },
        {
          "internalType": "uint64",
          "name": "itemId",
          "type": "uint64"
        }
      ],
      "name": "buyNft",
      "outputs": [],
      "stateMutability": "payable",
      "type": "function"
    },
    {
      "inputs": [
        {
          "internalType": "address",
          "name": "nftContract",
          "type": "address"
        },
        {
          "internalType": "uint256",
          "name": "tokenId",
          "type": "uint256"
        },
        {
          "internalType": "uint256",
          "name": "price",
          "type": "uint256"
        }
      ],
      "name": "createMarketItem",
      "outputs": [],
      "stateMutability": "nonpayable",
      "type": "function"
    },
    {
      "inputs": [
        {
          "internalType": "uint256",
          "name": "tokenId",
          "type": "uint256"
        }
      ],
      "name": "fetchMarketItem",
      "outputs": [
        {
          "components": [
            {
              "internalType": "uint256",
              "name": "itemId",
              "type": "uint256"
            },
            {
              "internalType": "uint256",
              "name": "tokenId",
              "type": "uint256"
            },
            {
              "internalType": "uint256",
              "name": "price",
              "type": "uint256"
            },
            {
              "internalType": "address",
              "name": "nftContract",
              "type": "address"
            },
            {
              "internalType": "address",
              "name": "owner",
              "type": "address"
            },
            {
              "internalType": "bool",
              "name": "sold",
              "type": "bool"
            }
          ],
          "internalType": "struct NFTMarket.MarketItem",
          "name": "",
          "type": "tuple"
        }
      ],
      "stateMutability": "view",
      "type": "function"
    },
    {
      "inputs": [],
      "name": "fetchMarketItems",
      "outputs": [
        {
          "components": [
            {
              "internalType": "uint256",
              "name": "itemId",
              "type": "uint256"
            },
            {
              "internalType": "uint256",
              "name": "tokenId",
              "type": "uint256"
            },
            {
              "internalType": "uint256",
              "name": "price",
              "type": "uint256"
            },
            {
              "internalType": "address",
              "name": "nftContract",
              "type": "address"
            },
            {
              "internalType": "address",
              "name": "owner",
              "type": "address"
            },
            {
              "internalType": "bool",
              "name": "sold",
              "type": "bool"
            }
          ],
          "internalType": "struct NFTMarket.MarketItem[]",
          "name": "",
          "type": "tuple[]"
        }
      ],
      "stateMutability": "view",
      "type": "function"
    },
    {
      "inputs": [
        {
          "internalType": "address",
          "name": "loggedInUser",
          "type": "address"
        }
      ],
      "name": "fetchMyNFTs",
      "outputs": [
        {
          "components": [
            {
              "internalType": "uint256",
              "name": "itemId",
              "type": "uint256"
            },
            {
              "internalType": "uint256",
              "name": "tokenId",
              "type": "uint256"
            },
            {
              "internalType": "uint256",
              "name": "price",
              "type": "uint256"
            },
            {
              "internalType": "address",
              "name": "nftContract",
              "type": "address"
            },
            {
              "internalType": "address",
              "name": "owner",
              "type": "address"
            },
            {
              "internalType": "bool",
              "name": "sold",
              "type": "bool"
            }
          ],
          "internalType": "struct NFTMarket.MarketItem[]",
          "name": "",
          "type": "tuple[]"
        }
      ],
      "stateMutability": "view",
      "type": "function"
    },
    {
      "inputs": [
        {
          "internalType": "address",
          "name": "nftContract",
          "type": "address"
        },
        {
          "internalType": "address",
          "name": "to",
          "type": "address"
        },
        {
          "internalType": "uint256",
          "name": "itemId",
          "type": "uint256"
        }
      ],
      "name": "giftNft",
      "outputs": [],
      "stateMutability": "nonpayable",
      "type": "function"
    },
    {
      "inputs": [],
      "name": "owner",
      "outputs": [
        {
          "internalType": "address",
          "name": "",
          "type": "address"
        }
      ],
      "stateMutability": "view",
      "type": "function"
    },
    {
      "inputs": [],
      "name": "renounceOwnership",
      "outputs": [],
      "stateMutability": "nonpayable",
      "type": "function"
    },
    {
      "inputs": [
        {
          "internalType": "uint256",
          "name": "itemId",
          "type": "uint256"
        },
        {
          "internalType": "address",
          "name": "nftContract",
          "type": "address"
        }
      ],
      "name": "sellNft",
      "outputs": [],
      "stateMutability": "nonpayable",
      "type": "function"
    },
    {
      "inputs": [
        {
          "internalType": "address",
          "name": "newOwner",
          "type": "address"
        }
      ],
      "name": "transferOwnership",
      "outputs": [],
      "stateMutability": "nonpayable",
      "type": "function"
    }
  ],
  "bytecode": "0x60806040523480156200001157600080fd5b5060016000819055506200003a6200002e6200004060201b60201c565b6200004860201b60201c565b6200010e565b600033905090565b6000600160009054906101000a900473ffffffffffffffffffffffffffffffffffffffff16905081600160006101000a81548173ffffffffffffffffffffffffffffffffffffffff021916908373ffffffffffffffffffffffffffffffffffffffff1602179055508173ffffffffffffffffffffffffffffffffffffffff168173ffffffffffffffffffffffffffffffffffffffff167f8be0079c531659141344cd1fd0a4f28419497f9722a3daafe3b4186f6b6457e060405160405180910390a35050565b612e01806200011e6000396000f3fe6080604052600436106100915760003560e01c806358eb2df51161005957806358eb2df5146101805780636c282460146101a9578063715018a6146101d25780638da5cb5b146101e9578063f2fde38b1461021457610091565b80630f08efe0146100965780630f876dc6146100c157806310afee1e146100ea5780632a45b2501461012757806335a9813614610164575b600080fd5b3480156100a257600080fd5b506100ab61023d565b6040516100b8919061271e565b60405180910390f35b3480156100cd57600080fd5b506100e860048036038101906100e39190612379565b6104fd565b005b3480156100f657600080fd5b50610111600480360381019061010c9190612224565b610a26565b60405161011e919061271e565b60405180910390f35b34801561013357600080fd5b5061014e60048036038101906101499190612350565b610d6c565b60405161015b9190612862565b60405180910390f35b61017e60048036038101906101799190612314565b610e7e565b005b34801561018c57600080fd5b506101a760048036038101906101a291906122c5565b6111d5565b005b3480156101b557600080fd5b506101d060048036038101906101cb9190612276565b611522565b005b3480156101de57600080fd5b506101e7611b89565b005b3480156101f557600080fd5b506101fe611c11565b60405161020b91906126cc565b60405180910390f35b34801561022057600080fd5b5061023b60048036038101906102369190612224565b611c3b565b005b6060600061024b6002611d33565b905060006102596004611d33565b6102636002611d33565b61026d9190612a05565b90506000808267ffffffffffffffff8111156102b2577f4e487b7100000000000000000000000000000000000000000000000000000000600052604160045260246000fd5b6040519080825280602002602001820160405280156102eb57816020015b6102d861216c565b8152602001906001900390816102d05790505b50905060005b848110156104f257600073ffffffffffffffffffffffffffffffffffffffff16600660006001846103229190612924565b815260200190815260200160002060040160009054906101000a900473ffffffffffffffffffffffffffffffffffffffff1673ffffffffffffffffffffffffffffffffffffffff1614156104df57600060018261037f9190612924565b90506000600660008381526020019081526020016000209050806040518060c00160405290816000820154815260200160018201548152602001600282015481526020016003820160009054906101000a900473ffffffffffffffffffffffffffffffffffffffff1673ffffffffffffffffffffffffffffffffffffffff1673ffffffffffffffffffffffffffffffffffffffff1681526020016004820160009054906101000a900473ffffffffffffffffffffffffffffffffffffffff1673ffffffffffffffffffffffffffffffffffffffff1673ffffffffffffffffffffffffffffffffffffffff1681526020016004820160149054906101000a900460ff1615151515815250508486815181106104c2577f4e487b7100000000000000000000000000000000000000000000000000000000600052603260045260246000fd5b60200260200101819052506001856104da9190612924565b945050505b80806104ea90612ac8565b9150506102f1565b508094505050505090565b60026000541415610543576040517f08c379a000000000000000000000000000000000000000000000000000000000815260040161053a90612822565b60405180910390fd5b600260008190555060006105576002611d33565b905060006006600085815260200190815260200160002060010154905060006006600086815260200190815260200160002060020154905060008473ffffffffffffffffffffffffffffffffffffffff16636352211e846040518263ffffffff1660e01b81526004016105ca919061287d565b60206040518083038186803b1580156105e257600080fd5b505afa1580156105f6573d6000803e3d6000fd5b505050506040513d601f19601f8201168201806040525081019061061a919061224d565b90503373ffffffffffffffffffffffffffffffffffffffff168173ffffffffffffffffffffffffffffffffffffffff161461068a576040517f08c379a000000000000000000000000000000000000000000000000000000000815260040161068190612782565b60405180910390fd5b600080600080600090505b878110156108075789600760006001846106af9190612924565b8152602001908152602001600020600001541480156106fa5750600760006001836106da9190612924565b815260200190815260200160002060040160149054906101000a900460ff165b1561073c5760018161070c9190612924565b925060009150600760006001836107239190612924565b81526020019081526020016000206001015493506107d8565b896008600060018461074e9190612924565b8152602001908152602001600020600101541480156107995750600860006001836107799190612924565b815260200190815260200160002060040160149054906101000a900460ff165b156107d7576001816107ab9190612924565b925060019150600860006001836107c29190612924565b81526020019081526020016000206002015493505b5b6107ea6107e56004611d33565b611d41565b6107f46004611dda565b80806107ff90612ac8565b915050610695565b506000610815868589611e36565b90508873ffffffffffffffffffffffffffffffffffffffff166342842e0e33308a6040518463ffffffff1660e01b8152600401610854939291906126e7565b600060405180830381600087803b15801561086e57600080fd5b505af1158015610882573d6000803e3d6000fd5b5050505081156108db5742600860008581526020019081526020016000206003018190555060006008600085815260200190815260200160002060040160146101000a81548160ff021916908315150217905550610926565b42600760008581526020019081526020016000206002018190555060006007600085815260200190815260200160002060040160146101000a81548160ff0219169083151502179055505b6000600660008c815260200190815260200160002060040160006101000a81548173ffffffffffffffffffffffffffffffffffffffff021916908373ffffffffffffffffffffffffffffffffffffffff1602179055503373ffffffffffffffffffffffffffffffffffffffff166108fc829081150290604051600060405180830381858888f193505050501580156109c2573d6000803e3d6000fd5b506109cd6003611ef4565b42873373ffffffffffffffffffffffffffffffffffffffff167f9b9577bfad2e67a8df72aa8f54ee39ff58080e7c899e842302b6ec46d519919760405160405180910390a4505050505050505060016000819055505050565b60606000610a346002611d33565b905060008060005b83811015610add578573ffffffffffffffffffffffffffffffffffffffff1660066000600184610a6c9190612924565b815260200190815260200160002060040160009054906101000a900473ffffffffffffffffffffffffffffffffffffffff1673ffffffffffffffffffffffffffffffffffffffff161415610aca57600183610ac79190612924565b92505b8080610ad590612ac8565b915050610a3c565b5060008267ffffffffffffffff811115610b20577f4e487b7100000000000000000000000000000000000000000000000000000000600052604160045260246000fd5b604051908082528060200260200182016040528015610b5957816020015b610b4661216c565b815260200190600190039081610b3e5790505b50905060005b84811015610d5f578673ffffffffffffffffffffffffffffffffffffffff1660066000600184610b8f9190612924565b815260200190815260200160002060040160009054906101000a900473ffffffffffffffffffffffffffffffffffffffff1673ffffffffffffffffffffffffffffffffffffffff161415610d4c576000600182610bec9190612924565b90506000600660008381526020019081526020016000209050806040518060c00160405290816000820154815260200160018201548152602001600282015481526020016003820160009054906101000a900473ffffffffffffffffffffffffffffffffffffffff1673ffffffffffffffffffffffffffffffffffffffff1673ffffffffffffffffffffffffffffffffffffffff1681526020016004820160009054906101000a900473ffffffffffffffffffffffffffffffffffffffff1673ffffffffffffffffffffffffffffffffffffffff1673ffffffffffffffffffffffffffffffffffffffff1681526020016004820160149054906101000a900460ff161515151581525050848681518110610d2f577f4e487b7100000000000000000000000000000000000000000000000000000000600052603260045260246000fd5b6020026020010181905250600185610d479190612924565b945050505b8080610d5790612ac8565b915050610b5f565b5080945050505050919050565b610d7461216c565b600660008381526020019081526020016000206040518060c00160405290816000820154815260200160018201548152602001600282015481526020016003820160009054906101000a900473ffffffffffffffffffffffffffffffffffffffff1673ffffffffffffffffffffffffffffffffffffffff1673ffffffffffffffffffffffffffffffffffffffff1681526020016004820160009054906101000a900473ffffffffffffffffffffffffffffffffffffffff1673ffffffffffffffffffffffffffffffffffffffff1673ffffffffffffffffffffffffffffffffffffffff1681526020016004820160149054906101000a900460ff1615151515815250509050919050565b60026000541415610ec4576040517f08c379a0000000000000000000000000000000000000000000000000000000008152600401610ebb90612822565b60405180910390fd5b60026000819055506000600660008367ffffffffffffffff1681526020019081526020016000206002015490506000600660008467ffffffffffffffff168152602001908152602001600020600101549050813414610f58576040517f08c379a0000000000000000000000000000000000000000000000000000000008152600401610f4f906127c2565b60405180910390fd5b8373ffffffffffffffffffffffffffffffffffffffff166342842e0e3033846040518463ffffffff1660e01b8152600401610f95939291906126e7565b600060405180830381600087803b158015610faf57600080fd5b505af1158015610fc3573d6000803e3d6000fd5b505050506001600660008567ffffffffffffffff16815260200190815260200160002060040160146101000a81548160ff02191690831515021790555033600660008567ffffffffffffffff16815260200190815260200160002060040160006101000a81548173ffffffffffffffffffffffffffffffffffffffff021916908373ffffffffffffffffffffffffffffffffffffffff1602179055506110696004611ef4565b60006110756004611d33565b90506040518060c001604052808567ffffffffffffffff168152602001428152602001600081526020018281526020013373ffffffffffffffffffffffffffffffffffffffff16815260200160011515815250600760008381526020019081526020016000206000820151816000015560208201518160010155604082015181600201556060820151816003015560808201518160040160006101000a81548173ffffffffffffffffffffffffffffffffffffffff021916908373ffffffffffffffffffffffffffffffffffffffff16021790555060a08201518160040160146101000a81548160ff0219169083151502179055509050508367ffffffffffffffff163373ffffffffffffffffffffffffffffffffffffffff167f6cde4ed53ecc43e1126a8b2b9e8ad2f4ec18d9f7834636ed981cfa61960be370426040516111be919061287d565b60405180910390a350505060016000819055505050565b6111dd611f0a565b73ffffffffffffffffffffffffffffffffffffffff166111fb611c11565b73ffffffffffffffffffffffffffffffffffffffff1614611251576040517f08c379a0000000000000000000000000000000000000000000000000000000008152600401611248906127e2565b60405180910390fd5b60026000541415611297576040517f08c379a000000000000000000000000000000000000000000000000000000000815260040161128e90612822565b60405180910390fd5b6002600081905550600081116112e2576040517f08c379a00000000000000000000000000000000000000000000000000000000081526004016112d990612842565b60405180910390fd5b6112ec6002611ef4565b60006112f86002611d33565b90506040518060c001604052808281526020018481526020018381526020018573ffffffffffffffffffffffffffffffffffffffff168152602001600073ffffffffffffffffffffffffffffffffffffffff168152602001600015158152506006600083815260200190815260200160002060008201518160000155602082015181600101556040820151816002015560608201518160030160006101000a81548173ffffffffffffffffffffffffffffffffffffffff021916908373ffffffffffffffffffffffffffffffffffffffff16021790555060808201518160040160006101000a81548173ffffffffffffffffffffffffffffffffffffffff021916908373ffffffffffffffffffffffffffffffffffffffff16021790555060a08201518160040160146101000a81548160ff0219169083151502179055509050508373ffffffffffffffffffffffffffffffffffffffff166323b872dd3330866040518463ffffffff1660e01b8152600401611476939291906126e7565b600060405180830381600087803b15801561149057600080fd5b505af11580156114a4573d6000803e3d6000fd5b5050505082600073ffffffffffffffffffffffffffffffffffffffff168573ffffffffffffffffffffffffffffffffffffffff167f04725f44278a0475942ea64180dcfe5b01f4834fa5ec4ef7249caa03eadb65b48486600060405161150c93929190612898565b60405180910390a4506001600081905550505050565b60026000541415611568576040517f08c379a000000000000000000000000000000000000000000000000000000000815260040161155f90612822565b60405180910390fd5b60026000819055506115ae6040518060400160405280600e81526020017f696e2067696674206d6574686f64000000000000000000000000000000000000815250611f12565b60006115ba6002611d33565b9050600060066000848152602001908152602001600020600101549050600080600080600090505b858110156117785786600760006001846115fc9190612924565b8152602001908152602001600020600001541480156116475750600760006001836116279190612924565b815260200190815260200160002060040160149054906101000a900460ff165b156116a9576007600060018361165d9190612924565b815260200190815260200160002060040160009054906101000a900473ffffffffffffffffffffffffffffffffffffffff16935060018161169e9190612924565b925060009150611765565b86600860006001846116bb9190612924565b8152602001908152602001600020600101541480156117065750600860006001836116e69190612924565b815260200190815260200160002060040160149054906101000a900460ff165b15611764576008600060018361171c9190612924565b815260200190815260200160002060040160009054906101000a900473ffffffffffffffffffffffffffffffffffffffff16935060018161175d9190612924565b9250600191505b5b808061177090612ac8565b9150506115e2565b503373ffffffffffffffffffffffffffffffffffffffff168373ffffffffffffffffffffffffffffffffffffffff16146117e7576040517f08c379a00000000000000000000000000000000000000000000000000000000081526004016117de90612802565b60405180910390fd5b6118256040518060400160405280600381526020017f2f2f2f0000000000000000000000000000000000000000000000000000000000815250611f12565b6118b68873ffffffffffffffffffffffffffffffffffffffff16636352211e866040518263ffffffff1660e01b8152600401611861919061287d565b60206040518083038186803b15801561187957600080fd5b505afa15801561188d573d6000803e3d6000fd5b505050506040513d601f19601f820116820180604052508101906118b1919061224d565b611fab565b6118bf33611fab565b6118fd6040518060400160405280600381526020017f2f2f2f0000000000000000000000000000000000000000000000000000000000815250611f12565b8773ffffffffffffffffffffffffffffffffffffffff166323b872dd3389876040518463ffffffff1660e01b815260040161193a939291906126e7565b600060405180830381600087803b15801561195457600080fd5b505af1158015611968573d6000803e3d6000fd5b5050505080156119c15742600860008481526020019081526020016000206003018190555060006008600084815260200190815260200160002060040160146101000a81548160ff021916908315150217905550611a0c565b42600760008481526020019081526020016000206002018190555060006007600084815260200190815260200160002060040160146101000a81548160ff0219169083151502179055505b611a166005611ef4565b6000611a226005611d33565b90506040518060c00160405280828152602001888152602001428152602001600081526020018973ffffffffffffffffffffffffffffffffffffffff16815260200160011515815250600860008381526020019081526020016000206000820151816000015560208201518160010155604082015181600201556060820151816003015560808201518160040160006101000a81548173ffffffffffffffffffffffffffffffffffffffff021916908373ffffffffffffffffffffffffffffffffffffffff16021790555060a08201518160040160146101000a81548160ff021916908315150217905550905050848873ffffffffffffffffffffffffffffffffffffffff168573ffffffffffffffffffffffffffffffffffffffff167f03e53c8c63b3ece939d30e7ead3a0a6941a417712c86ac711b3b2d72d8f182a742604051611b6e919061287d565b60405180910390a45050505050506001600081905550505050565b611b91611f0a565b73ffffffffffffffffffffffffffffffffffffffff16611baf611c11565b73ffffffffffffffffffffffffffffffffffffffff1614611c05576040517f08c379a0000000000000000000000000000000000000000000000000000000008152600401611bfc906127e2565b60405180910390fd5b611c0f6000612044565b565b6000600160009054906101000a900473ffffffffffffffffffffffffffffffffffffffff16905090565b611c43611f0a565b73ffffffffffffffffffffffffffffffffffffffff16611c61611c11565b73ffffffffffffffffffffffffffffffffffffffff1614611cb7576040517f08c379a0000000000000000000000000000000000000000000000000000000008152600401611cae906127e2565b60405180910390fd5b600073ffffffffffffffffffffffffffffffffffffffff168173ffffffffffffffffffffffffffffffffffffffff161415611d27576040517f08c379a0000000000000000000000000000000000000000000000000000000008152600401611d1e906127a2565b60405180910390fd5b611d3081612044565b50565b600081600001549050919050565b611dd781604051602401611d55919061287d565b6040516020818303038152906040527ff5b1bba9000000000000000000000000000000000000000000000000000000007bffffffffffffffffffffffffffffffffffffffffffffffffffffffff19166020820180517bffffffffffffffffffffffffffffffffffffffffffffffffffffffff838183161783525050505061210a565b50565b60008160000154905060008111611e26576040517f08c379a0000000000000000000000000000000000000000000000000000000008152600401611e1d90612762565b60405180910390fd5b6001810382600001819055505050565b6000806301e1338085611e49919061297a565b9050600080611e5786612133565b809250819350505060006201518082611e70919061297a565b90508215611e8f578084611e8491906129ab565b945050505050611eed565b60008185611e9d91906129ab565b905080873373ffffffffffffffffffffffffffffffffffffffff167f26eabeeb6d783855fc7211a6d0309bb509e72c76ffb3f1e7a5ab1432a366ed7e60405160405180910390a480955050505050505b9392505050565b6001816000016000828254019250508190555050565b600033905090565b611fa881604051602401611f269190612740565b6040516020818303038152906040527f41304fac000000000000000000000000000000000000000000000000000000007bffffffffffffffffffffffffffffffffffffffffffffffffffffffff19166020820180517bffffffffffffffffffffffffffffffffffffffffffffffffffffffff838183161783525050505061210a565b50565b61204181604051602401611fbf91906126cc565b6040516020818303038152906040527f2c2ecbc2000000000000000000000000000000000000000000000000000000007bffffffffffffffffffffffffffffffffffffffffffffffffffffffff19166020820180517bffffffffffffffffffffffffffffffffffffffffffffffffffffffff838183161783525050505061210a565b50565b6000600160009054906101000a900473ffffffffffffffffffffffffffffffffffffffff16905081600160006101000a81548173ffffffffffffffffffffffffffffffffffffffff021916908373ffffffffffffffffffffffffffffffffffffffff1602179055508173ffffffffffffffffffffffffffffffffffffffff168173ffffffffffffffffffffffffffffffffffffffff167f8be0079c531659141344cd1fd0a4f28419497f9722a3daafe3b4186f6b6457e060405160405180910390a35050565b60008151905060006a636f6e736f6c652e6c6f679050602083016000808483855afa5050505050565b600080600083426121449190612a05565b905062f1428081111561215e576001819250925050612167565b60008192509250505b915091565b6040518060c00160405280600081526020016000815260200160008152602001600073ffffffffffffffffffffffffffffffffffffffff168152602001600073ffffffffffffffffffffffffffffffffffffffff1681526020016000151581525090565b6000813590506121df81612d86565b92915050565b6000815190506121f481612d86565b92915050565b60008135905061220981612d9d565b92915050565b60008135905061221e81612db4565b92915050565b60006020828403121561223657600080fd5b6000612244848285016121d0565b91505092915050565b60006020828403121561225f57600080fd5b600061226d848285016121e5565b91505092915050565b60008060006060848603121561228b57600080fd5b6000612299868287016121d0565b93505060206122aa868287016121d0565b92505060406122bb868287016121fa565b9150509250925092565b6000806000606084860312156122da57600080fd5b60006122e8868287016121d0565b93505060206122f9868287016121fa565b925050604061230a868287016121fa565b9150509250925092565b6000806040838503121561232757600080fd5b6000612335858286016121d0565b92505060206123468582860161220f565b9150509250929050565b60006020828403121561236257600080fd5b6000612370848285016121fa565b91505092915050565b6000806040838503121561238c57600080fd5b600061239a858286016121fa565b92505060206123ab858286016121d0565b9150509250929050565b60006123c183836125b8565b60c08301905092915050565b6123d681612a39565b82525050565b6123e581612a39565b82525050565b60006123f6826128df565b6124008185612902565b935061240b836128cf565b8060005b8381101561243c57815161242388826123b5565b975061242e836128f5565b92505060018101905061240f565b5085935050505092915050565b61245281612a4b565b82525050565b61246181612a4b565b82525050565b6000612472826128ea565b61247c8185612913565b935061248c818560208601612a95565b61249581612b6f565b840191505092915050565b60006124ad601b83612913565b91506124b882612b80565b602082019050919050565b60006124d0602a83612913565b91506124db82612ba9565b604082019050919050565b60006124f3602683612913565b91506124fe82612bf8565b604082019050919050565b6000612516604083612913565b915061252182612c47565b604082019050919050565b6000612539602083612913565b915061254482612c96565b602082019050919050565b600061255c604483612913565b915061256782612cbf565b606082019050919050565b600061257f601f83612913565b915061258a82612d34565b602082019050919050565b60006125a2601c83612913565b91506125ad82612d5d565b602082019050919050565b60c0820160008201516125ce60008501826126ae565b5060208201516125e160208501826126ae565b5060408201516125f460408501826126ae565b50606082015161260760608501826123cd565b50608082015161261a60808501826123cd565b5060a082015161262d60a0850182612449565b50505050565b60c08201600082015161264960008501826126ae565b50602082015161265c60208501826126ae565b50604082015161266f60408501826126ae565b50606082015161268260608501826123cd565b50608082015161269560808501826123cd565b5060a08201516126a860a0850182612449565b50505050565b6126b781612a77565b82525050565b6126c681612a77565b82525050565b60006020820190506126e160008301846123dc565b92915050565b60006060820190506126fc60008301866123dc565b61270960208301856123dc565b61271660408301846126bd565b949350505050565b6000602082019050818103600083015261273881846123eb565b905092915050565b6000602082019050818103600083015261275a8184612467565b905092915050565b6000602082019050818103600083015261277b816124a0565b9050919050565b6000602082019050818103600083015261279b816124c3565b9050919050565b600060208201905081810360008301526127bb816124e6565b9050919050565b600060208201905081810360008301526127db81612509565b9050919050565b600060208201905081810360008301526127fb8161252c565b9050919050565b6000602082019050818103600083015261281b8161254f565b9050919050565b6000602082019050818103600083015261283b81612572565b9050919050565b6000602082019050818103600083015261285b81612595565b9050919050565b600060c0820190506128776000830184612633565b92915050565b600060208201905061289260008301846126bd565b92915050565b60006060820190506128ad60008301866126bd565b6128ba60208301856126bd565b6128c76040830184612458565b949350505050565b6000819050602082019050919050565b600081519050919050565b600081519050919050565b6000602082019050919050565b600082825260208201905092915050565b600082825260208201905092915050565b600061292f82612a77565b915061293a83612a77565b9250827fffffffffffffffffffffffffffffffffffffffffffffffffffffffffffffffff0382111561296f5761296e612b11565b5b828201905092915050565b600061298582612a77565b915061299083612a77565b9250826129a05761299f612b40565b5b828204905092915050565b60006129b682612a77565b91506129c183612a77565b9250817fffffffffffffffffffffffffffffffffffffffffffffffffffffffffffffffff04831182151516156129fa576129f9612b11565b5b828202905092915050565b6000612a1082612a77565b9150612a1b83612a77565b925082821015612a2e57612a2d612b11565b5b828203905092915050565b6000612a4482612a57565b9050919050565b60008115159050919050565b600073ffffffffffffffffffffffffffffffffffffffff82169050919050565b6000819050919050565b600067ffffffffffffffff82169050919050565b60005b83811015612ab3578082015181840152602081019050612a98565b83811115612ac2576000848401525b50505050565b6000612ad382612a77565b91507fffffffffffffffffffffffffffffffffffffffffffffffffffffffffffffffff821415612b0657612b05612b11565b5b600182019050919050565b7f4e487b7100000000000000000000000000000000000000000000000000000000600052601160045260246000fd5b7f4e487b7100000000000000000000000000000000000000000000000000000000600052601260045260246000fd5b6000601f19601f8301169050919050565b7f436f756e7465723a2064656372656d656e74206f766572666c6f770000000000600082015250565b7f596f7520617265206e6f74207468652063757272656e7420686f6c646572206f60008201527f662074686973204e465400000000000000000000000000000000000000000000602082015250565b7f4f776e61626c653a206e6577206f776e657220697320746865207a65726f206160008201527f6464726573730000000000000000000000000000000000000000000000000000602082015250565b7f506c65617365207375626d6974207468652061736b696e67207072696365206960008201527f6e206f7264657220746f20636f6d706c65746520746865207075726368617365602082015250565b7f4f776e61626c653a2063616c6c6572206973206e6f7420746865206f776e6572600082015250565b7f596f7520646f206e6f742068617665207065726d697373696f6e20746f20476960008201527f66742074686973204e465420617320796f7520617265206e6f7420746865206f60208201527f776e657200000000000000000000000000000000000000000000000000000000604082015250565b7f5265656e7472616e637947756172643a207265656e7472616e742063616c6c00600082015250565b7f5072696365206d757374206265206174206c6561737420312077656900000000600082015250565b612d8f81612a39565b8114612d9a57600080fd5b50565b612da681612a77565b8114612db157600080fd5b50565b612dbd81612a81565b8114612dc857600080fd5b5056fea264697066735822122007f1bb67c43caedbdc3317f206962ca596e3a5536455ee69180a826a4c14698264736f6c63430008040033",
  "linkReferences": {},
  "deployedLinkReferences": {}
}