{
  "_format": "hh-sol-artifact-1",
  "contractName": "NFTMarket",
  "sourceName": "contracts/Market.sol",
  "abi": [
    {
      "inputs": [],
      "stateMutability": "nonpayable",
      "type": "constructor"
    },
    {
      "anonymous": false,
      "inputs": [
        {
          "indexed": false,
          "internalType": "uint256",
          "name": "itemId",
          "type": "uint256"
        },
        {
          "indexed": true,
          "internalType": "address",
          "name": "nftContract",
          "type": "address"
        },
        {
          "indexed": true,
          "internalType": "address",
          "name": "owner",
          "type": "address"
        },
        {
          "indexed": true,
          "internalType": "uint256",
          "name": "tokenId",
          "type": "uint256"
        },
        {
          "indexed": false,
          "internalType": "uint256",
          "name": "price",
          "type": "uint256"
        },
        {
          "indexed": false,
          "internalType": "bool",
          "name": "sold",
          "type": "bool"
        }
      ],
      "name": "MarketItemCreated",
      "type": "event"
    },
    {
      "anonymous": false,
      "inputs": [
        {
          "indexed": false,
          "internalType": "address",
          "name": "sender",
          "type": "address"
        }
      ],
      "name": "MintSucces",
      "type": "event"
    },
    {
      "anonymous": false,
      "inputs": [
        {
          "indexed": true,
          "internalType": "address",
          "name": "acquirer",
          "type": "address"
        },
        {
          "indexed": true,
          "internalType": "uint256",
          "name": "tokenId",
          "type": "uint256"
        },
        {
          "indexed": false,
          "internalType": "uint256",
          "name": "timeGotten",
          "type": "uint256"
        }
      ],
      "name": "NftBought",
      "type": "event"
    },
    {
      "anonymous": false,
      "inputs": [
        {
          "indexed": true,
          "internalType": "address",
          "name": "from",
          "type": "address"
        },
        {
          "indexed": true,
          "internalType": "address",
          "name": "to",
          "type": "address"
        },
        {
          "indexed": true,
          "internalType": "uint256",
          "name": "tokenId",
          "type": "uint256"
        },
        {
          "indexed": false,
          "internalType": "uint256",
          "name": "timeGifted",
          "type": "uint256"
        }
      ],
      "name": "NftGifted",
      "type": "event"
    },
    {
      "anonymous": false,
      "inputs": [
        {
          "indexed": true,
          "internalType": "address",
          "name": "seller",
          "type": "address"
        },
        {
          "indexed": true,
          "internalType": "uint256",
          "name": "tokenId",
          "type": "uint256"
        },
        {
          "indexed": true,
          "internalType": "uint256",
          "name": "timeSold",
          "type": "uint256"
        }
      ],
      "name": "NftSold",
      "type": "event"
    },
    {
      "anonymous": false,
      "inputs": [
        {
          "indexed": true,
          "internalType": "address",
          "name": "previousOwner",
          "type": "address"
        },
        {
          "indexed": true,
          "internalType": "address",
          "name": "newOwner",
          "type": "address"
        }
      ],
      "name": "OwnershipTransferred",
      "type": "event"
    },
    {
      "anonymous": false,
      "inputs": [
        {
          "indexed": true,
          "internalType": "address",
          "name": "sender",
          "type": "address"
        },
        {
          "indexed": true,
          "internalType": "uint256",
          "name": "tokenId",
          "type": "uint256"
        },
        {
          "indexed": true,
          "internalType": "uint256",
          "name": "amount",
          "type": "uint256"
        }
      ],
      "name": "TryingToSellPrematureNFT",
      "type": "event"
    },
    {
      "inputs": [
        {
          "internalType": "address",
          "name": "nftContract",
          "type": "address"
        },
        {
          "internalType": "uint64",
          "name": "itemId",
          "type": "uint64"
        }
      ],
      "name": "buyNft",
      "outputs": [],
      "stateMutability": "payable",
      "type": "function"
    },
    {
      "inputs": [
        {
          "internalType": "address",
          "name": "nftContract",
          "type": "address"
        },
        {
          "internalType": "uint256",
          "name": "tokenId",
          "type": "uint256"
        },
        {
          "internalType": "uint256",
          "name": "price",
          "type": "uint256"
        }
      ],
      "name": "createMarketItem",
      "outputs": [],
      "stateMutability": "nonpayable",
      "type": "function"
    },
    {
      "inputs": [
        {
          "internalType": "uint256",
          "name": "tokenId",
          "type": "uint256"
        }
      ],
      "name": "fetchMarketItem",
      "outputs": [
        {
          "components": [
            {
              "internalType": "uint256",
              "name": "itemId",
              "type": "uint256"
            },
            {
              "internalType": "uint256",
              "name": "tokenId",
              "type": "uint256"
            },
            {
              "internalType": "uint256",
              "name": "price",
              "type": "uint256"
            },
            {
              "internalType": "address",
              "name": "nftContract",
              "type": "address"
            },
            {
              "internalType": "address",
              "name": "owner",
              "type": "address"
            },
            {
              "internalType": "bool",
              "name": "sold",
              "type": "bool"
            }
          ],
          "internalType": "struct NFTMarket.MarketItem",
          "name": "",
          "type": "tuple"
        }
      ],
      "stateMutability": "view",
      "type": "function"
    },
    {
      "inputs": [],
      "name": "fetchMarketItems",
      "outputs": [
        {
          "components": [
            {
              "internalType": "uint256",
              "name": "itemId",
              "type": "uint256"
            },
            {
              "internalType": "uint256",
              "name": "tokenId",
              "type": "uint256"
            },
            {
              "internalType": "uint256",
              "name": "price",
              "type": "uint256"
            },
            {
              "internalType": "address",
              "name": "nftContract",
              "type": "address"
            },
            {
              "internalType": "address",
              "name": "owner",
              "type": "address"
            },
            {
              "internalType": "bool",
              "name": "sold",
              "type": "bool"
            }
          ],
          "internalType": "struct NFTMarket.MarketItem[]",
          "name": "",
          "type": "tuple[]"
        }
      ],
      "stateMutability": "view",
      "type": "function"
    },
    {
      "inputs": [
        {
          "internalType": "address",
          "name": "loggedInUser",
          "type": "address"
        }
      ],
      "name": "fetchMyNFTs",
      "outputs": [
        {
          "components": [
            {
              "internalType": "uint256",
              "name": "itemId",
              "type": "uint256"
            },
            {
              "internalType": "uint256",
              "name": "tokenId",
              "type": "uint256"
            },
            {
              "internalType": "uint256",
              "name": "price",
              "type": "uint256"
            },
            {
              "internalType": "address",
              "name": "nftContract",
              "type": "address"
            },
            {
              "internalType": "address",
              "name": "owner",
              "type": "address"
            },
            {
              "internalType": "bool",
              "name": "sold",
              "type": "bool"
            }
          ],
          "internalType": "struct NFTMarket.MarketItem[]",
          "name": "",
          "type": "tuple[]"
        }
      ],
      "stateMutability": "view",
      "type": "function"
    },
    {
      "inputs": [
        {
          "internalType": "address",
          "name": "nftContract",
          "type": "address"
        },
        {
          "internalType": "address",
          "name": "to",
          "type": "address"
        },
        {
          "internalType": "uint256",
          "name": "itemId",
          "type": "uint256"
        }
      ],
      "name": "giftNft",
      "outputs": [],
      "stateMutability": "nonpayable",
      "type": "function"
    },
    {
      "inputs": [],
      "name": "owner",
      "outputs": [
        {
          "internalType": "address",
          "name": "",
          "type": "address"
        }
      ],
      "stateMutability": "view",
      "type": "function"
    },
    {
      "inputs": [],
      "name": "renounceOwnership",
      "outputs": [],
      "stateMutability": "nonpayable",
      "type": "function"
    },
    {
      "inputs": [
        {
          "internalType": "uint256",
          "name": "itemId",
          "type": "uint256"
        },
        {
          "internalType": "address",
          "name": "nftContract",
          "type": "address"
        }
      ],
      "name": "sellNft",
      "outputs": [],
      "stateMutability": "nonpayable",
      "type": "function"
    },
    {
      "inputs": [
        {
          "internalType": "address",
          "name": "newOwner",
          "type": "address"
        }
      ],
      "name": "transferOwnership",
      "outputs": [],
      "stateMutability": "nonpayable",
      "type": "function"
    }
  ],
  "bytecode": "0x60806040523480156200001157600080fd5b5060016000819055506200003a6200002e6200004060201b60201c565b6200004860201b60201c565b6200010e565b600033905090565b6000600160009054906101000a900473ffffffffffffffffffffffffffffffffffffffff16905081600160006101000a81548173ffffffffffffffffffffffffffffffffffffffff021916908373ffffffffffffffffffffffffffffffffffffffff1602179055508173ffffffffffffffffffffffffffffffffffffffff168173ffffffffffffffffffffffffffffffffffffffff167f8be0079c531659141344cd1fd0a4f28419497f9722a3daafe3b4186f6b6457e060405160405180910390a35050565b612ad1806200011e6000396000f3fe6080604052600436106100915760003560e01c806358eb2df51161005957806358eb2df5146101805780636c282460146101a9578063715018a6146101d25780638da5cb5b146101e9578063f2fde38b1461021457610091565b80630f08efe0146100965780630f876dc6146100c157806310afee1e146100ea5780632a45b2501461012757806335a9813614610164575b600080fd5b3480156100a257600080fd5b506100ab61023d565b6040516100b8919061245f565b60405180910390f35b3480156100cd57600080fd5b506100e860048036038101906100e391906120f3565b6104fd565b005b3480156100f657600080fd5b50610111600480360381019061010c9190611f9e565b610a14565b60405161011e919061245f565b60405180910390f35b34801561013357600080fd5b5061014e600480360381019061014991906120ca565b610d5a565b60405161015b9190612581565b60405180910390f35b61017e6004803603810190610179919061208e565b610e6c565b005b34801561018c57600080fd5b506101a760048036038101906101a2919061203f565b6111c3565b005b3480156101b557600080fd5b506101d060048036038101906101cb9190611ff0565b611522565b005b3480156101de57600080fd5b506101e7611a35565b005b3480156101f557600080fd5b506101fe611abd565b60405161020b919061240d565b60405180910390f35b34801561022057600080fd5b5061023b60048036038101906102369190611f9e565b611ae7565b005b6060600061024b6002611bdf565b905060006102596004611bdf565b6102636002611bdf565b61026d9190612719565b90506000808267ffffffffffffffff8111156102b2577f4e487b7100000000000000000000000000000000000000000000000000000000600052604160045260246000fd5b6040519080825280602002602001820160405280156102eb57816020015b6102d8611ee6565b8152602001906001900390816102d05790505b50905060005b848110156104f257600073ffffffffffffffffffffffffffffffffffffffff16600660006001846103229190612638565b815260200190815260200160002060040160009054906101000a900473ffffffffffffffffffffffffffffffffffffffff1673ffffffffffffffffffffffffffffffffffffffff1614156104df57600060018261037f9190612638565b90506000600660008381526020019081526020016000209050806040518060c00160405290816000820154815260200160018201548152602001600282015481526020016003820160009054906101000a900473ffffffffffffffffffffffffffffffffffffffff1673ffffffffffffffffffffffffffffffffffffffff1673ffffffffffffffffffffffffffffffffffffffff1681526020016004820160009054906101000a900473ffffffffffffffffffffffffffffffffffffffff1673ffffffffffffffffffffffffffffffffffffffff1673ffffffffffffffffffffffffffffffffffffffff1681526020016004820160149054906101000a900460ff1615151515815250508486815181106104c2577f4e487b7100000000000000000000000000000000000000000000000000000000600052603260045260246000fd5b60200260200101819052506001856104da9190612638565b945050505b80806104ea906127a9565b9150506102f1565b508094505050505090565b60026000541415610543576040517f08c379a000000000000000000000000000000000000000000000000000000000815260040161053a90612541565b60405180910390fd5b600260008190555060006105576002611bdf565b905060006006600085815260200190815260200160002060010154905060006006600086815260200190815260200160002060020154905060008473ffffffffffffffffffffffffffffffffffffffff16636352211e846040518263ffffffff1660e01b81526004016105ca919061259c565b60206040518083038186803b1580156105e257600080fd5b505afa1580156105f6573d6000803e3d6000fd5b505050506040513d601f19601f8201168201806040525081019061061a9190611fc7565b90503373ffffffffffffffffffffffffffffffffffffffff168173ffffffffffffffffffffffffffffffffffffffff161461068a576040517f08c379a0000000000000000000000000000000000000000000000000000000008152600401610681906124a1565b60405180910390fd5b600080600080600090505b878110156107f55789600760006001846106af9190612638565b8152602001908152602001600020600001541480156106fa5750600760006001836106da9190612638565b815260200190815260200160002060040160149054906101000a900460ff165b1561073c5760018161070c9190612638565b925060009150600760006001836107239190612638565b81526020019081526020016000206001015493506107d8565b896008600060018461074e9190612638565b8152602001908152602001600020600101541480156107995750600860006001836107799190612638565b815260200190815260200160002060040160149054906101000a900460ff165b156107d7576001816107ab9190612638565b925060019150600860006001836107c29190612638565b81526020019081526020016000206002015493505b5b6107e26004611bed565b80806107ed906127a9565b915050610695565b506000610803868589611c49565b90508873ffffffffffffffffffffffffffffffffffffffff166342842e0e33308a6040518463ffffffff1660e01b815260040161084293929190612428565b600060405180830381600087803b15801561085c57600080fd5b505af1158015610870573d6000803e3d6000fd5b5050505081156108c95742600860008581526020019081526020016000206003018190555060006008600085815260200190815260200160002060040160146101000a81548160ff021916908315150217905550610914565b42600760008581526020019081526020016000206002018190555060006007600085815260200190815260200160002060040160146101000a81548160ff0219169083151502179055505b6000600660008c815260200190815260200160002060040160006101000a81548173ffffffffffffffffffffffffffffffffffffffff021916908373ffffffffffffffffffffffffffffffffffffffff1602179055503373ffffffffffffffffffffffffffffffffffffffff166108fc829081150290604051600060405180830381858888f193505050501580156109b0573d6000803e3d6000fd5b506109bb6003611d07565b42873373ffffffffffffffffffffffffffffffffffffffff167f9b9577bfad2e67a8df72aa8f54ee39ff58080e7c899e842302b6ec46d519919760405160405180910390a4505050505050505060016000819055505050565b60606000610a226002611bdf565b905060008060005b83811015610acb578573ffffffffffffffffffffffffffffffffffffffff1660066000600184610a5a9190612638565b815260200190815260200160002060040160009054906101000a900473ffffffffffffffffffffffffffffffffffffffff1673ffffffffffffffffffffffffffffffffffffffff161415610ab857600183610ab59190612638565b92505b8080610ac3906127a9565b915050610a2a565b5060008267ffffffffffffffff811115610b0e577f4e487b7100000000000000000000000000000000000000000000000000000000600052604160045260246000fd5b604051908082528060200260200182016040528015610b4757816020015b610b34611ee6565b815260200190600190039081610b2c5790505b50905060005b84811015610d4d578673ffffffffffffffffffffffffffffffffffffffff1660066000600184610b7d9190612638565b815260200190815260200160002060040160009054906101000a900473ffffffffffffffffffffffffffffffffffffffff1673ffffffffffffffffffffffffffffffffffffffff161415610d3a576000600182610bda9190612638565b90506000600660008381526020019081526020016000209050806040518060c00160405290816000820154815260200160018201548152602001600282015481526020016003820160009054906101000a900473ffffffffffffffffffffffffffffffffffffffff1673ffffffffffffffffffffffffffffffffffffffff1673ffffffffffffffffffffffffffffffffffffffff1681526020016004820160009054906101000a900473ffffffffffffffffffffffffffffffffffffffff1673ffffffffffffffffffffffffffffffffffffffff1673ffffffffffffffffffffffffffffffffffffffff1681526020016004820160149054906101000a900460ff161515151581525050848681518110610d1d577f4e487b7100000000000000000000000000000000000000000000000000000000600052603260045260246000fd5b6020026020010181905250600185610d359190612638565b945050505b8080610d45906127a9565b915050610b4d565b5080945050505050919050565b610d62611ee6565b600660008381526020019081526020016000206040518060c00160405290816000820154815260200160018201548152602001600282015481526020016003820160009054906101000a900473ffffffffffffffffffffffffffffffffffffffff1673ffffffffffffffffffffffffffffffffffffffff1673ffffffffffffffffffffffffffffffffffffffff1681526020016004820160009054906101000a900473ffffffffffffffffffffffffffffffffffffffff1673ffffffffffffffffffffffffffffffffffffffff1673ffffffffffffffffffffffffffffffffffffffff1681526020016004820160149054906101000a900460ff1615151515815250509050919050565b60026000541415610eb2576040517f08c379a0000000000000000000000000000000000000000000000000000000008152600401610ea990612541565b60405180910390fd5b60026000819055506000600660008367ffffffffffffffff1681526020019081526020016000206002015490506000600660008467ffffffffffffffff168152602001908152602001600020600101549050813414610f46576040517f08c379a0000000000000000000000000000000000000000000000000000000008152600401610f3d906124e1565b60405180910390fd5b8373ffffffffffffffffffffffffffffffffffffffff166342842e0e3033846040518463ffffffff1660e01b8152600401610f8393929190612428565b600060405180830381600087803b158015610f9d57600080fd5b505af1158015610fb1573d6000803e3d6000fd5b505050506001600660008567ffffffffffffffff16815260200190815260200160002060040160146101000a81548160ff02191690831515021790555033600660008567ffffffffffffffff16815260200190815260200160002060040160006101000a81548173ffffffffffffffffffffffffffffffffffffffff021916908373ffffffffffffffffffffffffffffffffffffffff1602179055506110576004611d07565b60006110636004611bdf565b90506040518060c001604052808567ffffffffffffffff168152602001428152602001600081526020018281526020013373ffffffffffffffffffffffffffffffffffffffff16815260200160011515815250600760008381526020019081526020016000206000820151816000015560208201518160010155604082015181600201556060820151816003015560808201518160040160006101000a81548173ffffffffffffffffffffffffffffffffffffffff021916908373ffffffffffffffffffffffffffffffffffffffff16021790555060a08201518160040160146101000a81548160ff0219169083151502179055509050508367ffffffffffffffff163373ffffffffffffffffffffffffffffffffffffffff167f6cde4ed53ecc43e1126a8b2b9e8ad2f4ec18d9f7834636ed981cfa61960be370426040516111ac919061259c565b60405180910390a350505060016000819055505050565b6111cb611d1d565b73ffffffffffffffffffffffffffffffffffffffff166111e9611abd565b73ffffffffffffffffffffffffffffffffffffffff161461123f576040517f08c379a000000000000000000000000000000000000000000000000000000000815260040161123690612501565b60405180910390fd5b60026000541415611285576040517f08c379a000000000000000000000000000000000000000000000000000000000815260040161127c90612541565b60405180910390fd5b6002600081905550600081116112d0576040517f08c379a00000000000000000000000000000000000000000000000000000000081526004016112c790612561565b60405180910390fd5b6112da6002611d07565b6112ec6112e76002611bdf565b611d25565b60006112f86002611bdf565b90506040518060c001604052808281526020018481526020018381526020018573ffffffffffffffffffffffffffffffffffffffff168152602001600073ffffffffffffffffffffffffffffffffffffffff168152602001600015158152506006600083815260200190815260200160002060008201518160000155602082015181600101556040820151816002015560608201518160030160006101000a81548173ffffffffffffffffffffffffffffffffffffffff021916908373ffffffffffffffffffffffffffffffffffffffff16021790555060808201518160040160006101000a81548173ffffffffffffffffffffffffffffffffffffffff021916908373ffffffffffffffffffffffffffffffffffffffff16021790555060a08201518160040160146101000a81548160ff0219169083151502179055509050508373ffffffffffffffffffffffffffffffffffffffff166323b872dd3330866040518463ffffffff1660e01b815260040161147693929190612428565b600060405180830381600087803b15801561149057600080fd5b505af11580156114a4573d6000803e3d6000fd5b5050505082600073ffffffffffffffffffffffffffffffffffffffff168573ffffffffffffffffffffffffffffffffffffffff167f04725f44278a0475942ea64180dcfe5b01f4834fa5ec4ef7249caa03eadb65b48486600060405161150c939291906125b7565b60405180910390a4506001600081905550505050565b60026000541415611568576040517f08c379a000000000000000000000000000000000000000000000000000000000815260040161155f90612541565b60405180910390fd5b6002600081905550600061157c6002611bdf565b9050600060066000848152602001908152602001600020600101549050600080600080600090505b8581101561173a5786600760006001846115be9190612638565b8152602001908152602001600020600001541480156116095750600760006001836115e99190612638565b815260200190815260200160002060040160149054906101000a900460ff165b1561166b576007600060018361161f9190612638565b815260200190815260200160002060040160009054906101000a900473ffffffffffffffffffffffffffffffffffffffff1693506001816116609190612638565b925060009150611727565b866008600060018461167d9190612638565b8152602001908152602001600020600101541480156116c85750600860006001836116a89190612638565b815260200190815260200160002060040160149054906101000a900460ff165b1561172657600860006001836116de9190612638565b815260200190815260200160002060040160009054906101000a900473ffffffffffffffffffffffffffffffffffffffff16935060018161171f9190612638565b9250600191505b5b8080611732906127a9565b9150506115a4565b503373ffffffffffffffffffffffffffffffffffffffff168373ffffffffffffffffffffffffffffffffffffffff16146117a9576040517f08c379a00000000000000000000000000000000000000000000000000000000081526004016117a090612521565b60405180910390fd5b8773ffffffffffffffffffffffffffffffffffffffff166342842e0e8489876040518463ffffffff1660e01b81526004016117e693929190612428565b600060405180830381600087803b15801561180057600080fd5b505af1158015611814573d6000803e3d6000fd5b50505050801561186d5742600860008481526020019081526020016000206003018190555060006008600084815260200190815260200160002060040160146101000a81548160ff0219169083151502179055506118b8565b42600760008481526020019081526020016000206002018190555060006007600084815260200190815260200160002060040160146101000a81548160ff0219169083151502179055505b6118c26005611d07565b60006118ce6005611bdf565b90506040518060c00160405280828152602001888152602001428152602001600081526020018973ffffffffffffffffffffffffffffffffffffffff16815260200160011515815250600860008381526020019081526020016000206000820151816000015560208201518160010155604082015181600201556060820151816003015560808201518160040160006101000a81548173ffffffffffffffffffffffffffffffffffffffff021916908373ffffffffffffffffffffffffffffffffffffffff16021790555060a08201518160040160146101000a81548160ff021916908315150217905550905050848873ffffffffffffffffffffffffffffffffffffffff168573ffffffffffffffffffffffffffffffffffffffff167f03e53c8c63b3ece939d30e7ead3a0a6941a417712c86ac711b3b2d72d8f182a742604051611a1a919061259c565b60405180910390a45050505050506001600081905550505050565b611a3d611d1d565b73ffffffffffffffffffffffffffffffffffffffff16611a5b611abd565b73ffffffffffffffffffffffffffffffffffffffff1614611ab1576040517f08c379a0000000000000000000000000000000000000000000000000000000008152600401611aa890612501565b60405180910390fd5b611abb6000611dbe565b565b6000600160009054906101000a900473ffffffffffffffffffffffffffffffffffffffff16905090565b611aef611d1d565b73ffffffffffffffffffffffffffffffffffffffff16611b0d611abd565b73ffffffffffffffffffffffffffffffffffffffff1614611b63576040517f08c379a0000000000000000000000000000000000000000000000000000000008152600401611b5a90612501565b60405180910390fd5b600073ffffffffffffffffffffffffffffffffffffffff168173ffffffffffffffffffffffffffffffffffffffff161415611bd3576040517f08c379a0000000000000000000000000000000000000000000000000000000008152600401611bca906124c1565b60405180910390fd5b611bdc81611dbe565b50565b600081600001549050919050565b60008160000154905060008111611c39576040517f08c379a0000000000000000000000000000000000000000000000000000000008152600401611c3090612481565b60405180910390fd5b6001810382600001819055505050565b6000806301e1338085611c5c919061268e565b9050600080611c6a86611e84565b809250819350505060006201518082611c83919061268e565b90508215611ca2578084611c9791906126bf565b945050505050611d00565b60008185611cb091906126bf565b905080873373ffffffffffffffffffffffffffffffffffffffff167f26eabeeb6d783855fc7211a6d0309bb509e72c76ffb3f1e7a5ab1432a366ed7e60405160405180910390a480955050505050505b9392505050565b6001816000016000828254019250508190555050565b600033905090565b611dbb81604051602401611d39919061259c565b6040516020818303038152906040527ff5b1bba9000000000000000000000000000000000000000000000000000000007bffffffffffffffffffffffffffffffffffffffffffffffffffffffff19166020820180517bffffffffffffffffffffffffffffffffffffffffffffffffffffffff8381831617835250505050611ebd565b50565b6000600160009054906101000a900473ffffffffffffffffffffffffffffffffffffffff16905081600160006101000a81548173ffffffffffffffffffffffffffffffffffffffff021916908373ffffffffffffffffffffffffffffffffffffffff1602179055508173ffffffffffffffffffffffffffffffffffffffff168173ffffffffffffffffffffffffffffffffffffffff167f8be0079c531659141344cd1fd0a4f28419497f9722a3daafe3b4186f6b6457e060405160405180910390a35050565b60008060008342611e959190612719565b905062f14280811115611eaf576001819250925050611eb8565b60008192509250505b915091565b60008151905060006a636f6e736f6c652e6c6f679050602083016000808483855afa5050505050565b6040518060c00160405280600081526020016000815260200160008152602001600073ffffffffffffffffffffffffffffffffffffffff168152602001600073ffffffffffffffffffffffffffffffffffffffff1681526020016000151581525090565b600081359050611f5981612a56565b92915050565b600081519050611f6e81612a56565b92915050565b600081359050611f8381612a6d565b92915050565b600081359050611f9881612a84565b92915050565b600060208284031215611fb057600080fd5b6000611fbe84828501611f4a565b91505092915050565b600060208284031215611fd957600080fd5b6000611fe784828501611f5f565b91505092915050565b60008060006060848603121561200557600080fd5b600061201386828701611f4a565b935050602061202486828701611f4a565b925050604061203586828701611f74565b9150509250925092565b60008060006060848603121561205457600080fd5b600061206286828701611f4a565b935050602061207386828701611f74565b925050604061208486828701611f74565b9150509250925092565b600080604083850312156120a157600080fd5b60006120af85828601611f4a565b92505060206120c085828601611f89565b9150509250929050565b6000602082840312156120dc57600080fd5b60006120ea84828501611f74565b91505092915050565b6000806040838503121561210657600080fd5b600061211485828601611f74565b925050602061212585828601611f4a565b9150509250929050565b600061213b83836122f9565b60c08301905092915050565b6121508161274d565b82525050565b61215f8161274d565b82525050565b6000612170826125fe565b61217a8185612616565b9350612185836125ee565b8060005b838110156121b657815161219d888261212f565b97506121a883612609565b925050600181019050612189565b5085935050505092915050565b6121cc8161275f565b82525050565b6121db8161275f565b82525050565b60006121ee601b83612627565b91506121f982612850565b602082019050919050565b6000612211602a83612627565b915061221c82612879565b604082019050919050565b6000612234602683612627565b915061223f826128c8565b604082019050919050565b6000612257604083612627565b915061226282612917565b604082019050919050565b600061227a602083612627565b915061228582612966565b602082019050919050565b600061229d604483612627565b91506122a88261298f565b606082019050919050565b60006122c0601f83612627565b91506122cb82612a04565b602082019050919050565b60006122e3601c83612627565b91506122ee82612a2d565b602082019050919050565b60c08201600082015161230f60008501826123ef565b50602082015161232260208501826123ef565b50604082015161233560408501826123ef565b5060608201516123486060850182612147565b50608082015161235b6080850182612147565b5060a082015161236e60a08501826121c3565b50505050565b60c08201600082015161238a60008501826123ef565b50602082015161239d60208501826123ef565b5060408201516123b060408501826123ef565b5060608201516123c36060850182612147565b5060808201516123d66080850182612147565b5060a08201516123e960a08501826121c3565b50505050565b6123f88161278b565b82525050565b6124078161278b565b82525050565b60006020820190506124226000830184612156565b92915050565b600060608201905061243d6000830186612156565b61244a6020830185612156565b61245760408301846123fe565b949350505050565b600060208201905081810360008301526124798184612165565b905092915050565b6000602082019050818103600083015261249a816121e1565b9050919050565b600060208201905081810360008301526124ba81612204565b9050919050565b600060208201905081810360008301526124da81612227565b9050919050565b600060208201905081810360008301526124fa8161224a565b9050919050565b6000602082019050818103600083015261251a8161226d565b9050919050565b6000602082019050818103600083015261253a81612290565b9050919050565b6000602082019050818103600083015261255a816122b3565b9050919050565b6000602082019050818103600083015261257a816122d6565b9050919050565b600060c0820190506125966000830184612374565b92915050565b60006020820190506125b160008301846123fe565b92915050565b60006060820190506125cc60008301866123fe565b6125d960208301856123fe565b6125e660408301846121d2565b949350505050565b6000819050602082019050919050565b600081519050919050565b6000602082019050919050565b600082825260208201905092915050565b600082825260208201905092915050565b60006126438261278b565b915061264e8361278b565b9250827fffffffffffffffffffffffffffffffffffffffffffffffffffffffffffffffff03821115612683576126826127f2565b5b828201905092915050565b60006126998261278b565b91506126a48361278b565b9250826126b4576126b3612821565b5b828204905092915050565b60006126ca8261278b565b91506126d58361278b565b9250817fffffffffffffffffffffffffffffffffffffffffffffffffffffffffffffffff048311821515161561270e5761270d6127f2565b5b828202905092915050565b60006127248261278b565b915061272f8361278b565b925082821015612742576127416127f2565b5b828203905092915050565b60006127588261276b565b9050919050565b60008115159050919050565b600073ffffffffffffffffffffffffffffffffffffffff82169050919050565b6000819050919050565b600067ffffffffffffffff82169050919050565b60006127b48261278b565b91507fffffffffffffffffffffffffffffffffffffffffffffffffffffffffffffffff8214156127e7576127e66127f2565b5b600182019050919050565b7f4e487b7100000000000000000000000000000000000000000000000000000000600052601160045260246000fd5b7f4e487b7100000000000000000000000000000000000000000000000000000000600052601260045260246000fd5b7f436f756e7465723a2064656372656d656e74206f766572666c6f770000000000600082015250565b7f596f7520617265206e6f74207468652063757272656e7420686f6c646572206f60008201527f662074686973204e465400000000000000000000000000000000000000000000602082015250565b7f4f776e61626c653a206e6577206f776e657220697320746865207a65726f206160008201527f6464726573730000000000000000000000000000000000000000000000000000602082015250565b7f506c65617365207375626d6974207468652061736b696e67207072696365206960008201527f6e206f7264657220746f20636f6d706c65746520746865207075726368617365602082015250565b7f4f776e61626c653a2063616c6c6572206973206e6f7420746865206f776e6572600082015250565b7f596f7520646f206e6f742068617665207065726d697373696f6e20746f20476960008201527f66742074686973204e465420617320796f7520617265206e6f7420746865206f60208201527f776e657200000000000000000000000000000000000000000000000000000000604082015250565b7f5265656e7472616e637947756172643a207265656e7472616e742063616c6c00600082015250565b7f5072696365206d757374206265206174206c6561737420312077656900000000600082015250565b612a5f8161274d565b8114612a6a57600080fd5b50565b612a768161278b565b8114612a8157600080fd5b50565b612a8d81612795565b8114612a9857600080fd5b5056fea2646970667358221220adc3753fe4a9a7e5302abeba90079953b35d1f67c54f8933ec65e6ee29c758ae64736f6c63430008040033",
  "linkReferences": {},
  "deployedLinkReferences": {}
}