{
  "_format": "hh-sol-artifact-1",
  "contractName": "NFT",
  "sourceName": "contracts/GiftSeaNFT.sol",
  "abi": [
    {
      "inputs": [
        {
          "internalType": "address",
          "name": "marketplaceAddress",
          "type": "address"
        }
      ],
      "stateMutability": "nonpayable",
      "type": "constructor"
    },
    {
      "anonymous": false,
      "inputs": [
        {
          "indexed": true,
          "internalType": "address",
          "name": "owner",
          "type": "address"
        },
        {
          "indexed": true,
          "internalType": "address",
          "name": "approved",
          "type": "address"
        },
        {
          "indexed": true,
          "internalType": "uint256",
          "name": "tokenId",
          "type": "uint256"
        }
      ],
      "name": "Approval",
      "type": "event"
    },
    {
      "anonymous": false,
      "inputs": [
        {
          "indexed": true,
          "internalType": "address",
          "name": "owner",
          "type": "address"
        },
        {
          "indexed": true,
          "internalType": "address",
          "name": "operator",
          "type": "address"
        },
        {
          "indexed": false,
          "internalType": "bool",
          "name": "approved",
          "type": "bool"
        }
      ],
      "name": "ApprovalForAll",
      "type": "event"
    },
    {
      "anonymous": false,
      "inputs": [
        {
          "indexed": true,
          "internalType": "address",
          "name": "from",
          "type": "address"
        },
        {
          "indexed": true,
          "internalType": "address",
          "name": "to",
          "type": "address"
        },
        {
          "indexed": true,
          "internalType": "uint256",
          "name": "tokenId",
          "type": "uint256"
        }
      ],
      "name": "Transfer",
      "type": "event"
    },
    {
      "inputs": [
        {
          "internalType": "address",
          "name": "to",
          "type": "address"
        },
        {
          "internalType": "uint256",
          "name": "tokenId",
          "type": "uint256"
        }
      ],
      "name": "approve",
      "outputs": [],
      "stateMutability": "nonpayable",
      "type": "function"
    },
    {
      "inputs": [
        {
          "internalType": "address",
          "name": "owner",
          "type": "address"
        }
      ],
      "name": "balanceOf",
      "outputs": [
        {
          "internalType": "uint256",
          "name": "",
          "type": "uint256"
        }
      ],
      "stateMutability": "view",
      "type": "function"
    },
    {
      "inputs": [
        {
          "internalType": "string",
          "name": "tokenURI",
          "type": "string"
        }
      ],
      "name": "createToken",
      "outputs": [
        {
          "internalType": "uint256",
          "name": "",
          "type": "uint256"
        }
      ],
      "stateMutability": "nonpayable",
      "type": "function"
    },
    {
      "inputs": [
        {
          "internalType": "uint256",
          "name": "tokenId",
          "type": "uint256"
        }
      ],
      "name": "getApproved",
      "outputs": [
        {
          "internalType": "address",
          "name": "",
          "type": "address"
        }
      ],
      "stateMutability": "view",
      "type": "function"
    },
    {
      "inputs": [
        {
          "internalType": "address",
          "name": "owner",
          "type": "address"
        },
        {
          "internalType": "address",
          "name": "operator",
          "type": "address"
        }
      ],
      "name": "isApprovedForAll",
      "outputs": [
        {
          "internalType": "bool",
          "name": "",
          "type": "bool"
        }
      ],
      "stateMutability": "view",
      "type": "function"
    },
    {
      "inputs": [],
      "name": "name",
      "outputs": [
        {
          "internalType": "string",
          "name": "",
          "type": "string"
        }
      ],
      "stateMutability": "view",
      "type": "function"
    },
    {
      "inputs": [
        {
          "internalType": "uint256",
          "name": "tokenId",
          "type": "uint256"
        }
      ],
      "name": "ownerOf",
      "outputs": [
        {
          "internalType": "address",
          "name": "",
          "type": "address"
        }
      ],
      "stateMutability": "view",
      "type": "function"
    },
    {
      "inputs": [
        {
          "internalType": "address",
          "name": "from",
          "type": "address"
        },
        {
          "internalType": "address",
          "name": "to",
          "type": "address"
        },
        {
          "internalType": "uint256",
          "name": "tokenId",
          "type": "uint256"
        }
      ],
      "name": "safeTransferFrom",
      "outputs": [],
      "stateMutability": "nonpayable",
      "type": "function"
    },
    {
      "inputs": [
        {
          "internalType": "address",
          "name": "from",
          "type": "address"
        },
        {
          "internalType": "address",
          "name": "to",
          "type": "address"
        },
        {
          "internalType": "uint256",
          "name": "tokenId",
          "type": "uint256"
        },
        {
          "internalType": "bytes",
          "name": "_data",
          "type": "bytes"
        }
      ],
      "name": "safeTransferFrom",
      "outputs": [],
      "stateMutability": "nonpayable",
      "type": "function"
    },
    {
      "inputs": [
        {
          "internalType": "address",
          "name": "operator",
          "type": "address"
        },
        {
          "internalType": "bool",
          "name": "approved",
          "type": "bool"
        }
      ],
      "name": "setApprovalForAll",
      "outputs": [],
      "stateMutability": "nonpayable",
      "type": "function"
    },
    {
      "inputs": [
        {
          "internalType": "bytes4",
          "name": "interfaceId",
          "type": "bytes4"
        }
      ],
      "name": "supportsInterface",
      "outputs": [
        {
          "internalType": "bool",
          "name": "",
          "type": "bool"
        }
      ],
      "stateMutability": "view",
      "type": "function"
    },
    {
      "inputs": [],
      "name": "symbol",
      "outputs": [
        {
          "internalType": "string",
          "name": "",
          "type": "string"
        }
      ],
      "stateMutability": "view",
      "type": "function"
    },
    {
      "inputs": [
        {
          "internalType": "uint256",
          "name": "tokenId",
          "type": "uint256"
        }
      ],
      "name": "tokenURI",
      "outputs": [
        {
          "internalType": "string",
          "name": "",
          "type": "string"
        }
      ],
      "stateMutability": "view",
      "type": "function"
    },
    {
      "inputs": [
        {
          "internalType": "address",
          "name": "from",
          "type": "address"
        },
        {
          "internalType": "address",
          "name": "to",
          "type": "address"
        },
        {
          "internalType": "uint256",
          "name": "tokenId",
          "type": "uint256"
        }
      ],
      "name": "transferFrom",
      "outputs": [],
      "stateMutability": "nonpayable",
      "type": "function"
    }
  ],
  "bytecode": "0x60806040523480156200001157600080fd5b5060405162002f0138038062002f018339818101604052810190620000379190620001e6565b6040518060400160405280600a81526020017f476966745365614e6674000000000000000000000000000000000000000000008152506040518060400160405280600681526020017f474946546d6500000000000000000000000000000000000000000000000000008152508160009080519060200190620000bb9291906200011f565b508060019080519060200190620000d49291906200011f565b50505080600860006101000a81548173ffffffffffffffffffffffffffffffffffffffff021916908373ffffffffffffffffffffffffffffffffffffffff16021790555050620002c5565b8280546200012d9062000246565b90600052602060002090601f0160209004810192826200015157600085556200019d565b82601f106200016c57805160ff19168380011785556200019d565b828001600101855582156200019d579182015b828111156200019c5782518255916020019190600101906200017f565b5b509050620001ac9190620001b0565b5090565b5b80821115620001cb576000816000905550600101620001b1565b5090565b600081519050620001e081620002ab565b92915050565b600060208284031215620001f957600080fd5b60006200020984828501620001cf565b91505092915050565b60006200021f8262000226565b9050919050565b600073ffffffffffffffffffffffffffffffffffffffff82169050919050565b600060028204905060018216806200025f57607f821691505b602082108114156200027657620002756200027c565b5b50919050565b7f4e487b7100000000000000000000000000000000000000000000000000000000600052602260045260246000fd5b620002b68162000212565b8114620002c257600080fd5b50565b612c2c80620002d56000396000f3fe608060405234801561001057600080fd5b50600436106100ea5760003560e01c80636352211e1161008c578063a22cb46511610066578063a22cb4651461026f578063b88d4fde1461028b578063c87b56dd146102a7578063e985e9c5146102d7576100ea565b80636352211e146101f157806370a082311461022157806395d89b4114610251576100ea565b8063095ea7b3116100c8578063095ea7b31461016d57806323b872dd1461018957806342842e0e146101a557806345576f94146101c1576100ea565b806301ffc9a7146100ef57806306fdde031461011f578063081812fc1461013d575b600080fd5b61010960048036038101906101049190611c98565b610307565b60405161011691906120df565b60405180910390f35b6101276103e9565b60405161013491906120fa565b60405180910390f35b61015760048036038101906101529190611d2b565b61047b565b6040516101649190612078565b60405180910390f35b61018760048036038101906101829190611c5c565b610500565b005b6101a3600480360381019061019e9190611b56565b610618565b005b6101bf60048036038101906101ba9190611b56565b610678565b005b6101db60048036038101906101d69190611cea565b610698565b6040516101e8919061231c565b60405180910390f35b61020b60048036038101906102069190611d2b565b6106fc565b6040516102189190612078565b60405180910390f35b61023b60048036038101906102369190611af1565b6107ae565b604051610248919061231c565b60405180910390f35b610259610866565b60405161026691906120fa565b60405180910390f35b61028960048036038101906102849190611c20565b6108f8565b005b6102a560048036038101906102a09190611ba5565b61090e565b005b6102c160048036038101906102bc9190611d2b565b610970565b6040516102ce91906120fa565b60405180910390f35b6102f160048036038101906102ec9190611b1a565b610ac2565b6040516102fe91906120df565b60405180910390f35b60007f80ac58cd000000000000000000000000000000000000000000000000000000007bffffffffffffffffffffffffffffffffffffffffffffffffffffffff1916827bffffffffffffffffffffffffffffffffffffffffffffffffffffffff191614806103d257507f5b5e139f000000000000000000000000000000000000000000000000000000007bffffffffffffffffffffffffffffffffffffffffffffffffffffffff1916827bffffffffffffffffffffffffffffffffffffffffffffffffffffffff1916145b806103e257506103e182610b56565b5b9050919050565b6060600080546103f890612572565b80601f016020809104026020016040519081016040528092919081815260200182805461042490612572565b80156104715780601f1061044657610100808354040283529160200191610471565b820191906000526020600020905b81548152906001019060200180831161045457829003601f168201915b5050505050905090565b600061048682610bc0565b6104c5576040517f08c379a00000000000000000000000000000000000000000000000000000000081526004016104bc9061229c565b60405180910390fd5b6004600083815260200190815260200160002060009054906101000a900473ffffffffffffffffffffffffffffffffffffffff169050919050565b600061050b826106fc565b90508073ffffffffffffffffffffffffffffffffffffffff168373ffffffffffffffffffffffffffffffffffffffff16141561057c576040517f08c379a0000000000000000000000000000000000000000000000000000000008152600401610573906122dc565b60405180910390fd5b8073ffffffffffffffffffffffffffffffffffffffff1661059b610c2c565b73ffffffffffffffffffffffffffffffffffffffff1614806105ca57506105c9816105c4610c2c565b610ac2565b5b610609576040517f08c379a0000000000000000000000000000000000000000000000000000000008152600401610600906121dc565b60405180910390fd5b6106138383610c34565b505050565b610629610623610c2c565b82610ced565b610668576040517f08c379a000000000000000000000000000000000000000000000000000000000815260040161065f906122fc565b60405180910390fd5b610673838383610dcb565b505050565b6106938383836040518060200160405280600081525061090e565b505050565b60006106a46007611032565b60006106b06007611048565b90506106bc3382611056565b6106c68184611074565b6106f3600860009054906101000a900473ffffffffffffffffffffffffffffffffffffffff1660016108f8565b80915050919050565b6000806002600084815260200190815260200160002060009054906101000a900473ffffffffffffffffffffffffffffffffffffffff169050600073ffffffffffffffffffffffffffffffffffffffff168173ffffffffffffffffffffffffffffffffffffffff1614156107a5576040517f08c379a000000000000000000000000000000000000000000000000000000000815260040161079c9061221c565b60405180910390fd5b80915050919050565b60008073ffffffffffffffffffffffffffffffffffffffff168273ffffffffffffffffffffffffffffffffffffffff16141561081f576040517f08c379a0000000000000000000000000000000000000000000000000000000008152600401610816906121fc565b60405180910390fd5b600360008373ffffffffffffffffffffffffffffffffffffffff1673ffffffffffffffffffffffffffffffffffffffff168152602001908152602001600020549050919050565b60606001805461087590612572565b80601f01602080910402602001604051908101604052809291908181526020018280546108a190612572565b80156108ee5780601f106108c3576101008083540402835291602001916108ee565b820191906000526020600020905b8154815290600101906020018083116108d157829003601f168201915b5050505050905090565b61090a610903610c2c565b83836110e8565b5050565b61091f610919610c2c565b83610ced565b61095e576040517f08c379a0000000000000000000000000000000000000000000000000000000008152600401610955906122fc565b60405180910390fd5b61096a84848484611255565b50505050565b606061097b82610bc0565b6109ba576040517f08c379a00000000000000000000000000000000000000000000000000000000081526004016109b19061227c565b60405180910390fd5b60006006600084815260200190815260200160002080546109da90612572565b80601f0160208091040260200160405190810160405280929190818152602001828054610a0690612572565b8015610a535780601f10610a2857610100808354040283529160200191610a53565b820191906000526020600020905b815481529060010190602001808311610a3657829003601f168201915b505050505090506000610a646112b1565b9050600081511415610a7a578192505050610abd565b600082511115610aaf578082604051602001610a97929190612054565b60405160208183030381529060405292505050610abd565b610ab8846112c8565b925050505b919050565b6000600560008473ffffffffffffffffffffffffffffffffffffffff1673ffffffffffffffffffffffffffffffffffffffff16815260200190815260200160002060008373ffffffffffffffffffffffffffffffffffffffff1673ffffffffffffffffffffffffffffffffffffffff16815260200190815260200160002060009054906101000a900460ff16905092915050565b60007f01ffc9a7000000000000000000000000000000000000000000000000000000007bffffffffffffffffffffffffffffffffffffffffffffffffffffffff1916827bffffffffffffffffffffffffffffffffffffffffffffffffffffffff1916149050919050565b60008073ffffffffffffffffffffffffffffffffffffffff166002600084815260200190815260200160002060009054906101000a900473ffffffffffffffffffffffffffffffffffffffff1673ffffffffffffffffffffffffffffffffffffffff1614159050919050565b600033905090565b816004600083815260200190815260200160002060006101000a81548173ffffffffffffffffffffffffffffffffffffffff021916908373ffffffffffffffffffffffffffffffffffffffff160217905550808273ffffffffffffffffffffffffffffffffffffffff16610ca7836106fc565b73ffffffffffffffffffffffffffffffffffffffff167f8c5be1e5ebec7d5bd14f71427d1e84f3dd0314c0f7b2291e5b200ac8c7c3b92560405160405180910390a45050565b6000610cf882610bc0565b610d37576040517f08c379a0000000000000000000000000000000000000000000000000000000008152600401610d2e906121bc565b60405180910390fd5b6000610d42836106fc565b90508073ffffffffffffffffffffffffffffffffffffffff168473ffffffffffffffffffffffffffffffffffffffff161480610db157508373ffffffffffffffffffffffffffffffffffffffff16610d998461047b565b73ffffffffffffffffffffffffffffffffffffffff16145b80610dc25750610dc18185610ac2565b5b91505092915050565b8273ffffffffffffffffffffffffffffffffffffffff16610deb826106fc565b73ffffffffffffffffffffffffffffffffffffffff1614610e41576040517f08c379a0000000000000000000000000000000000000000000000000000000008152600401610e389061213c565b60405180910390fd5b600073ffffffffffffffffffffffffffffffffffffffff168273ffffffffffffffffffffffffffffffffffffffff161415610eb1576040517f08c379a0000000000000000000000000000000000000000000000000000000008152600401610ea89061217c565b60405180910390fd5b610ebc83838361136f565b610ec7600082610c34565b6001600360008573ffffffffffffffffffffffffffffffffffffffff1673ffffffffffffffffffffffffffffffffffffffff1681526020019081526020016000206000828254610f179190612488565b925050819055506001600360008473ffffffffffffffffffffffffffffffffffffffff1673ffffffffffffffffffffffffffffffffffffffff1681526020019081526020016000206000828254610f6e9190612401565b92505081905550816002600083815260200190815260200160002060006101000a81548173ffffffffffffffffffffffffffffffffffffffff021916908373ffffffffffffffffffffffffffffffffffffffff160217905550808273ffffffffffffffffffffffffffffffffffffffff168473ffffffffffffffffffffffffffffffffffffffff167fddf252ad1be2c89b69c2b068fc378daa952ba7f163c4a11628f55a4df523b3ef60405160405180910390a461102d838383611374565b505050565b6001816000016000828254019250508190555050565b600081600001549050919050565b611070828260405180602001604052806000815250611379565b5050565b61107d82610bc0565b6110bc576040517f08c379a00000000000000000000000000000000000000000000000000000000081526004016110b39061223c565b60405180910390fd5b806006600084815260200190815260200160002090805190602001906110e3929190611915565b505050565b8173ffffffffffffffffffffffffffffffffffffffff168373ffffffffffffffffffffffffffffffffffffffff161415611157576040517f08c379a000000000000000000000000000000000000000000000000000000000815260040161114e9061219c565b60405180910390fd5b80600560008573ffffffffffffffffffffffffffffffffffffffff1673ffffffffffffffffffffffffffffffffffffffff16815260200190815260200160002060008473ffffffffffffffffffffffffffffffffffffffff1673ffffffffffffffffffffffffffffffffffffffff16815260200190815260200160002060006101000a81548160ff0219169083151502179055508173ffffffffffffffffffffffffffffffffffffffff168373ffffffffffffffffffffffffffffffffffffffff167f17307eab39ab6107e8899845ad3d59bd9653f200f220920489ca2b5937696c318360405161124891906120df565b60405180910390a3505050565b611260848484610dcb565b61126c848484846113d4565b6112ab576040517f08c379a00000000000000000000000000000000000000000000000000000000081526004016112a29061211c565b60405180910390fd5b50505050565b606060405180602001604052806000815250905090565b60606112d382610bc0565b611312576040517f08c379a0000000000000000000000000000000000000000000000000000000008152600401611309906122bc565b60405180910390fd5b600061131c6112b1565b9050600081511161133c5760405180602001604052806000815250611367565b806113468461156b565b604051602001611357929190612054565b6040516020818303038152906040525b915050919050565b505050565b505050565b6113838383611718565b61139060008484846113d4565b6113cf576040517f08c379a00000000000000000000000000000000000000000000000000000000081526004016113c69061211c565b60405180910390fd5b505050565b60006113f58473ffffffffffffffffffffffffffffffffffffffff166118f2565b1561155e578373ffffffffffffffffffffffffffffffffffffffff1663150b7a0261141e610c2c565b8786866040518563ffffffff1660e01b81526004016114409493929190612093565b602060405180830381600087803b15801561145a57600080fd5b505af192505050801561148b57506040513d601f19601f820116820180604052508101906114889190611cc1565b60015b61150e573d80600081146114bb576040519150601f19603f3d011682016040523d82523d6000602084013e6114c0565b606091505b50600081511415611506576040517f08c379a00000000000000000000000000000000000000000000000000000000081526004016114fd9061211c565b60405180910390fd5b805181602001fd5b63150b7a0260e01b7bffffffffffffffffffffffffffffffffffffffffffffffffffffffff1916817bffffffffffffffffffffffffffffffffffffffffffffffffffffffff191614915050611563565b600190505b949350505050565b606060008214156115b3576040518060400160405280600181526020017f30000000000000000000000000000000000000000000000000000000000000008152509050611713565b600082905060005b600082146115e55780806115ce906125d5565b915050600a826115de9190612457565b91506115bb565b60008167ffffffffffffffff811115611627577f4e487b7100000000000000000000000000000000000000000000000000000000600052604160045260246000fd5b6040519080825280601f01601f1916602001820160405280156116595781602001600182028036833780820191505090505b5090505b6000851461170c576001826116729190612488565b9150600a85611681919061261e565b603061168d9190612401565b60f81b8183815181106116c9577f4e487b7100000000000000000000000000000000000000000000000000000000600052603260045260246000fd5b60200101907effffffffffffffffffffffffffffffffffffffffffffffffffffffffffffff1916908160001a905350600a856117059190612457565b945061165d565b8093505050505b919050565b600073ffffffffffffffffffffffffffffffffffffffff168273ffffffffffffffffffffffffffffffffffffffff161415611788576040517f08c379a000000000000000000000000000000000000000000000000000000000815260040161177f9061225c565b60405180910390fd5b61179181610bc0565b156117d1576040517f08c379a00000000000000000000000000000000000000000000000000000000081526004016117c89061215c565b60405180910390fd5b6117dd6000838361136f565b6001600360008473ffffffffffffffffffffffffffffffffffffffff1673ffffffffffffffffffffffffffffffffffffffff168152602001908152602001600020600082825461182d9190612401565b92505081905550816002600083815260200190815260200160002060006101000a81548173ffffffffffffffffffffffffffffffffffffffff021916908373ffffffffffffffffffffffffffffffffffffffff160217905550808273ffffffffffffffffffffffffffffffffffffffff16600073ffffffffffffffffffffffffffffffffffffffff167fddf252ad1be2c89b69c2b068fc378daa952ba7f163c4a11628f55a4df523b3ef60405160405180910390a46118ee60008383611374565b5050565b6000808273ffffffffffffffffffffffffffffffffffffffff163b119050919050565b82805461192190612572565b90600052602060002090601f016020900481019282611943576000855561198a565b82601f1061195c57805160ff191683800117855561198a565b8280016001018555821561198a579182015b8281111561198957825182559160200191906001019061196e565b5b509050611997919061199b565b5090565b5b808211156119b457600081600090555060010161199c565b5090565b60006119cb6119c68461235c565b612337565b9050828152602081018484840111156119e357600080fd5b6119ee848285612530565b509392505050565b6000611a09611a048461238d565b612337565b905082815260208101848484011115611a2157600080fd5b611a2c848285612530565b509392505050565b600081359050611a4381612b9a565b92915050565b600081359050611a5881612bb1565b92915050565b600081359050611a6d81612bc8565b92915050565b600081519050611a8281612bc8565b92915050565b600082601f830112611a9957600080fd5b8135611aa98482602086016119b8565b91505092915050565b600082601f830112611ac357600080fd5b8135611ad38482602086016119f6565b91505092915050565b600081359050611aeb81612bdf565b92915050565b600060208284031215611b0357600080fd5b6000611b1184828501611a34565b91505092915050565b60008060408385031215611b2d57600080fd5b6000611b3b85828601611a34565b9250506020611b4c85828601611a34565b9150509250929050565b600080600060608486031215611b6b57600080fd5b6000611b7986828701611a34565b9350506020611b8a86828701611a34565b9250506040611b9b86828701611adc565b9150509250925092565b60008060008060808587031215611bbb57600080fd5b6000611bc987828801611a34565b9450506020611bda87828801611a34565b9350506040611beb87828801611adc565b925050606085013567ffffffffffffffff811115611c0857600080fd5b611c1487828801611a88565b91505092959194509250565b60008060408385031215611c3357600080fd5b6000611c4185828601611a34565b9250506020611c5285828601611a49565b9150509250929050565b60008060408385031215611c6f57600080fd5b6000611c7d85828601611a34565b9250506020611c8e85828601611adc565b9150509250929050565b600060208284031215611caa57600080fd5b6000611cb884828501611a5e565b91505092915050565b600060208284031215611cd357600080fd5b6000611ce184828501611a73565b91505092915050565b600060208284031215611cfc57600080fd5b600082013567ffffffffffffffff811115611d1657600080fd5b611d2284828501611ab2565b91505092915050565b600060208284031215611d3d57600080fd5b6000611d4b84828501611adc565b91505092915050565b611d5d816124bc565b82525050565b611d6c816124ce565b82525050565b6000611d7d826123be565b611d8781856123d4565b9350611d9781856020860161253f565b611da08161270b565b840191505092915050565b6000611db6826123c9565b611dc081856123e5565b9350611dd081856020860161253f565b611dd98161270b565b840191505092915050565b6000611def826123c9565b611df981856123f6565b9350611e0981856020860161253f565b80840191505092915050565b6000611e226032836123e5565b9150611e2d8261271c565b604082019050919050565b6000611e456025836123e5565b9150611e508261276b565b604082019050919050565b6000611e68601c836123e5565b9150611e73826127ba565b602082019050919050565b6000611e8b6024836123e5565b9150611e96826127e3565b604082019050919050565b6000611eae6019836123e5565b9150611eb982612832565b602082019050919050565b6000611ed1602c836123e5565b9150611edc8261285b565b604082019050919050565b6000611ef46038836123e5565b9150611eff826128aa565b604082019050919050565b6000611f17602a836123e5565b9150611f22826128f9565b604082019050919050565b6000611f3a6029836123e5565b9150611f4582612948565b604082019050919050565b6000611f5d602e836123e5565b9150611f6882612997565b604082019050919050565b6000611f806020836123e5565b9150611f8b826129e6565b602082019050919050565b6000611fa36031836123e5565b9150611fae82612a0f565b604082019050919050565b6000611fc6602c836123e5565b9150611fd182612a5e565b604082019050919050565b6000611fe9602f836123e5565b9150611ff482612aad565b604082019050919050565b600061200c6021836123e5565b915061201782612afc565b604082019050919050565b600061202f6031836123e5565b915061203a82612b4b565b604082019050919050565b61204e81612526565b82525050565b60006120608285611de4565b915061206c8284611de4565b91508190509392505050565b600060208201905061208d6000830184611d54565b92915050565b60006080820190506120a86000830187611d54565b6120b56020830186611d54565b6120c26040830185612045565b81810360608301526120d48184611d72565b905095945050505050565b60006020820190506120f46000830184611d63565b92915050565b600060208201905081810360008301526121148184611dab565b905092915050565b6000602082019050818103600083015261213581611e15565b9050919050565b6000602082019050818103600083015261215581611e38565b9050919050565b6000602082019050818103600083015261217581611e5b565b9050919050565b6000602082019050818103600083015261219581611e7e565b9050919050565b600060208201905081810360008301526121b581611ea1565b9050919050565b600060208201905081810360008301526121d581611ec4565b9050919050565b600060208201905081810360008301526121f581611ee7565b9050919050565b6000602082019050818103600083015261221581611f0a565b9050919050565b6000602082019050818103600083015261223581611f2d565b9050919050565b6000602082019050818103600083015261225581611f50565b9050919050565b6000602082019050818103600083015261227581611f73565b9050919050565b6000602082019050818103600083015261229581611f96565b9050919050565b600060208201905081810360008301526122b581611fb9565b9050919050565b600060208201905081810360008301526122d581611fdc565b9050919050565b600060208201905081810360008301526122f581611fff565b9050919050565b6000602082019050818103600083015261231581612022565b9050919050565b60006020820190506123316000830184612045565b92915050565b6000612341612352565b905061234d82826125a4565b919050565b6000604051905090565b600067ffffffffffffffff821115612377576123766126dc565b5b6123808261270b565b9050602081019050919050565b600067ffffffffffffffff8211156123a8576123a76126dc565b5b6123b18261270b565b9050602081019050919050565b600081519050919050565b600081519050919050565b600082825260208201905092915050565b600082825260208201905092915050565b600081905092915050565b600061240c82612526565b915061241783612526565b9250827fffffffffffffffffffffffffffffffffffffffffffffffffffffffffffffffff0382111561244c5761244b61264f565b5b828201905092915050565b600061246282612526565b915061246d83612526565b92508261247d5761247c61267e565b5b828204905092915050565b600061249382612526565b915061249e83612526565b9250828210156124b1576124b061264f565b5b828203905092915050565b60006124c782612506565b9050919050565b60008115159050919050565b60007fffffffff0000000000000000000000000000000000000000000000000000000082169050919050565b600073ffffffffffffffffffffffffffffffffffffffff82169050919050565b6000819050919050565b82818337600083830152505050565b60005b8381101561255d578082015181840152602081019050612542565b8381111561256c576000848401525b50505050565b6000600282049050600182168061258a57607f821691505b6020821081141561259e5761259d6126ad565b5b50919050565b6125ad8261270b565b810181811067ffffffffffffffff821117156125cc576125cb6126dc565b5b80604052505050565b60006125e082612526565b91507fffffffffffffffffffffffffffffffffffffffffffffffffffffffffffffffff8214156126135761261261264f565b5b600182019050919050565b600061262982612526565b915061263483612526565b9250826126445761264361267e565b5b828206905092915050565b7f4e487b7100000000000000000000000000000000000000000000000000000000600052601160045260246000fd5b7f4e487b7100000000000000000000000000000000000000000000000000000000600052601260045260246000fd5b7f4e487b7100000000000000000000000000000000000000000000000000000000600052602260045260246000fd5b7f4e487b7100000000000000000000000000000000000000000000000000000000600052604160045260246000fd5b6000601f19601f8301169050919050565b7f4552433732313a207472616e7366657220746f206e6f6e20455243373231526560008201527f63656976657220696d706c656d656e7465720000000000000000000000000000602082015250565b7f4552433732313a207472616e736665722066726f6d20696e636f72726563742060008201527f6f776e6572000000000000000000000000000000000000000000000000000000602082015250565b7f4552433732313a20746f6b656e20616c7265616479206d696e74656400000000600082015250565b7f4552433732313a207472616e7366657220746f20746865207a65726f2061646460008201527f7265737300000000000000000000000000000000000000000000000000000000602082015250565b7f4552433732313a20617070726f766520746f2063616c6c657200000000000000600082015250565b7f4552433732313a206f70657261746f7220717565727920666f72206e6f6e657860008201527f697374656e7420746f6b656e0000000000000000000000000000000000000000602082015250565b7f4552433732313a20617070726f76652063616c6c6572206973206e6f74206f7760008201527f6e6572206e6f7220617070726f76656420666f7220616c6c0000000000000000602082015250565b7f4552433732313a2062616c616e636520717565727920666f7220746865207a6560008201527f726f206164647265737300000000000000000000000000000000000000000000602082015250565b7f4552433732313a206f776e657220717565727920666f72206e6f6e657869737460008201527f656e7420746f6b656e0000000000000000000000000000000000000000000000602082015250565b7f45524337323155524953746f726167653a2055524920736574206f66206e6f6e60008201527f6578697374656e7420746f6b656e000000000000000000000000000000000000602082015250565b7f4552433732313a206d696e7420746f20746865207a65726f2061646472657373600082015250565b7f45524337323155524953746f726167653a2055524920717565727920666f722060008201527f6e6f6e6578697374656e7420746f6b656e000000000000000000000000000000602082015250565b7f4552433732313a20617070726f76656420717565727920666f72206e6f6e657860008201527f697374656e7420746f6b656e0000000000000000000000000000000000000000602082015250565b7f4552433732314d657461646174613a2055524920717565727920666f72206e6f60008201527f6e6578697374656e7420746f6b656e0000000000000000000000000000000000602082015250565b7f4552433732313a20617070726f76616c20746f2063757272656e74206f776e6560008201527f7200000000000000000000000000000000000000000000000000000000000000602082015250565b7f4552433732313a207472616e736665722063616c6c6572206973206e6f74206f60008201527f776e6572206e6f7220617070726f766564000000000000000000000000000000602082015250565b612ba3816124bc565b8114612bae57600080fd5b50565b612bba816124ce565b8114612bc557600080fd5b50565b612bd1816124da565b8114612bdc57600080fd5b50565b612be881612526565b8114612bf357600080fd5b5056fea264697066735822122066d8537f9efe0526479ace7d1c829a9b1c068acd00d8f328d4fa95704629c91364736f6c63430008040033",
  "linkReferences": {},
  "deployedLinkReferences": {}
}