{
  "_format": "hh-sol-artifact-1",
  "contractName": "NFT",
  "sourceName": "contracts/GiftSeaNFT.sol",
  "abi": [
    {
      "inputs": [
        {
          "internalType": "address",
          "name": "marketplaceAddress",
          "type": "address"
        }
      ],
      "stateMutability": "nonpayable",
      "type": "constructor"
    },
    {
      "anonymous": false,
      "inputs": [
        {
          "indexed": true,
          "internalType": "address",
          "name": "owner",
          "type": "address"
        },
        {
          "indexed": true,
          "internalType": "address",
          "name": "approved",
          "type": "address"
        },
        {
          "indexed": true,
          "internalType": "uint256",
          "name": "tokenId",
          "type": "uint256"
        }
      ],
      "name": "Approval",
      "type": "event"
    },
    {
      "anonymous": false,
      "inputs": [
        {
          "indexed": true,
          "internalType": "address",
          "name": "owner",
          "type": "address"
        },
        {
          "indexed": true,
          "internalType": "address",
          "name": "operator",
          "type": "address"
        },
        {
          "indexed": false,
          "internalType": "bool",
          "name": "approved",
          "type": "bool"
        }
      ],
      "name": "ApprovalForAll",
      "type": "event"
    },
    {
      "anonymous": false,
      "inputs": [
        {
          "indexed": true,
          "internalType": "address",
          "name": "from",
          "type": "address"
        },
        {
          "indexed": true,
          "internalType": "address",
          "name": "to",
          "type": "address"
        },
        {
          "indexed": true,
          "internalType": "uint256",
          "name": "tokenId",
          "type": "uint256"
        }
      ],
      "name": "Transfer",
      "type": "event"
    },
    {
      "inputs": [
        {
          "internalType": "address",
          "name": "to",
          "type": "address"
        },
        {
          "internalType": "uint256",
          "name": "tokenId",
          "type": "uint256"
        }
      ],
      "name": "approve",
      "outputs": [],
      "stateMutability": "nonpayable",
      "type": "function"
    },
    {
      "inputs": [
        {
          "internalType": "address",
          "name": "owner",
          "type": "address"
        }
      ],
      "name": "balanceOf",
      "outputs": [
        {
          "internalType": "uint256",
          "name": "",
          "type": "uint256"
        }
      ],
      "stateMutability": "view",
      "type": "function"
    },
    {
      "inputs": [
        {
          "internalType": "string",
          "name": "tokenURI",
          "type": "string"
        }
      ],
      "name": "createToken",
      "outputs": [
        {
          "internalType": "uint256",
          "name": "",
          "type": "uint256"
        }
      ],
      "stateMutability": "nonpayable",
      "type": "function"
    },
    {
      "inputs": [
        {
          "internalType": "uint256",
          "name": "tokenId",
          "type": "uint256"
        }
      ],
      "name": "getApproved",
      "outputs": [
        {
          "internalType": "address",
          "name": "",
          "type": "address"
        }
      ],
      "stateMutability": "view",
      "type": "function"
    },
    {
      "inputs": [
        {
          "internalType": "uint256",
          "name": "tokenId",
          "type": "uint256"
        }
      ],
      "name": "giveResaleApproval",
      "outputs": [],
      "stateMutability": "nonpayable",
      "type": "function"
    },
    {
      "inputs": [
        {
          "internalType": "address",
          "name": "owner",
          "type": "address"
        },
        {
          "internalType": "address",
          "name": "operator",
          "type": "address"
        }
      ],
      "name": "isApprovedForAll",
      "outputs": [
        {
          "internalType": "bool",
          "name": "",
          "type": "bool"
        }
      ],
      "stateMutability": "view",
      "type": "function"
    },
    {
      "inputs": [],
      "name": "name",
      "outputs": [
        {
          "internalType": "string",
          "name": "",
          "type": "string"
        }
      ],
      "stateMutability": "view",
      "type": "function"
    },
    {
      "inputs": [
        {
          "internalType": "uint256",
          "name": "tokenId",
          "type": "uint256"
        }
      ],
      "name": "ownerOf",
      "outputs": [
        {
          "internalType": "address",
          "name": "",
          "type": "address"
        }
      ],
      "stateMutability": "view",
      "type": "function"
    },
    {
      "inputs": [
        {
          "internalType": "address",
          "name": "from",
          "type": "address"
        },
        {
          "internalType": "address",
          "name": "to",
          "type": "address"
        },
        {
          "internalType": "uint256",
          "name": "tokenId",
          "type": "uint256"
        }
      ],
      "name": "safeTransferFrom",
      "outputs": [],
      "stateMutability": "nonpayable",
      "type": "function"
    },
    {
      "inputs": [
        {
          "internalType": "address",
          "name": "from",
          "type": "address"
        },
        {
          "internalType": "address",
          "name": "to",
          "type": "address"
        },
        {
          "internalType": "uint256",
          "name": "tokenId",
          "type": "uint256"
        },
        {
          "internalType": "bytes",
          "name": "_data",
          "type": "bytes"
        }
      ],
      "name": "safeTransferFrom",
      "outputs": [],
      "stateMutability": "nonpayable",
      "type": "function"
    },
    {
      "inputs": [
        {
          "internalType": "address",
          "name": "operator",
          "type": "address"
        },
        {
          "internalType": "bool",
          "name": "approved",
          "type": "bool"
        }
      ],
      "name": "setApprovalForAll",
      "outputs": [],
      "stateMutability": "nonpayable",
      "type": "function"
    },
    {
      "inputs": [
        {
          "internalType": "bytes4",
          "name": "interfaceId",
          "type": "bytes4"
        }
      ],
      "name": "supportsInterface",
      "outputs": [
        {
          "internalType": "bool",
          "name": "",
          "type": "bool"
        }
      ],
      "stateMutability": "view",
      "type": "function"
    },
    {
      "inputs": [],
      "name": "symbol",
      "outputs": [
        {
          "internalType": "string",
          "name": "",
          "type": "string"
        }
      ],
      "stateMutability": "view",
      "type": "function"
    },
    {
      "inputs": [
        {
          "internalType": "uint256",
          "name": "tokenId",
          "type": "uint256"
        }
      ],
      "name": "tokenURI",
      "outputs": [
        {
          "internalType": "string",
          "name": "",
          "type": "string"
        }
      ],
      "stateMutability": "view",
      "type": "function"
    },
    {
      "inputs": [
        {
          "internalType": "address",
          "name": "from",
          "type": "address"
        },
        {
          "internalType": "address",
          "name": "to",
          "type": "address"
        },
        {
          "internalType": "uint256",
          "name": "tokenId",
          "type": "uint256"
        }
      ],
      "name": "transferFrom",
      "outputs": [],
      "stateMutability": "nonpayable",
      "type": "function"
    }
  ],
  "bytecode": "0x60806040523480156200001157600080fd5b5060405162003060380380620030608339818101604052810190620000379190620001e6565b6040518060400160405280600a81526020017f476966745365614e6674000000000000000000000000000000000000000000008152506040518060400160405280600681526020017f474946546d6500000000000000000000000000000000000000000000000000008152508160009080519060200190620000bb9291906200011f565b508060019080519060200190620000d49291906200011f565b50505080600860006101000a81548173ffffffffffffffffffffffffffffffffffffffff021916908373ffffffffffffffffffffffffffffffffffffffff16021790555050620002c5565b8280546200012d9062000246565b90600052602060002090601f0160209004810192826200015157600085556200019d565b82601f106200016c57805160ff19168380011785556200019d565b828001600101855582156200019d579182015b828111156200019c5782518255916020019190600101906200017f565b5b509050620001ac9190620001b0565b5090565b5b80821115620001cb576000816000905550600101620001b1565b5090565b600081519050620001e081620002ab565b92915050565b600060208284031215620001f957600080fd5b60006200020984828501620001cf565b91505092915050565b60006200021f8262000226565b9050919050565b600073ffffffffffffffffffffffffffffffffffffffff82169050919050565b600060028204905060018216806200025f57607f821691505b602082108114156200027657620002756200027c565b5b50919050565b7f4e487b7100000000000000000000000000000000000000000000000000000000600052602260045260246000fd5b620002b68162000212565b8114620002c257600080fd5b50565b612d8b80620002d56000396000f3fe608060405234801561001057600080fd5b50600436106100f55760003560e01c80636352211e11610097578063a22cb46511610066578063a22cb46514610296578063b88d4fde146102b2578063c87b56dd146102ce578063e985e9c5146102fe576100f5565b80636352211e146101fc57806370a082311461022c5780637e78146c1461025c57806395d89b4114610278576100f5565b8063095ea7b3116100d3578063095ea7b31461017857806323b872dd1461019457806342842e0e146101b057806345576f94146101cc576100f5565b806301ffc9a7146100fa57806306fdde031461012a578063081812fc14610148575b600080fd5b610114600480360381019061010f9190611d65565b61032e565b60405161012191906121cf565b60405180910390f35b610132610410565b60405161013f91906121ea565b60405180910390f35b610162600480360381019061015d9190611df8565b6104a2565b60405161016f9190612168565b60405180910390f35b610192600480360381019061018d9190611d29565b610527565b005b6101ae60048036038101906101a99190611c23565b61063f565b005b6101ca60048036038101906101c59190611c23565b61069f565b005b6101e660048036038101906101e19190611db7565b6106bf565b6040516101f3919061242c565b60405180910390f35b61021660048036038101906102119190611df8565b610723565b6040516102239190612168565b60405180910390f35b61024660048036038101906102419190611bbe565b6107d5565b604051610253919061242c565b60405180910390f35b61027660048036038101906102719190611df8565b61088d565b005b610280610933565b60405161028d91906121ea565b60405180910390f35b6102b060048036038101906102ab9190611ced565b6109c5565b005b6102cc60048036038101906102c79190611c72565b6109db565b005b6102e860048036038101906102e39190611df8565b610a3d565b6040516102f591906121ea565b60405180910390f35b61031860048036038101906103139190611be7565b610b8f565b60405161032591906121cf565b60405180910390f35b60007f80ac58cd000000000000000000000000000000000000000000000000000000007bffffffffffffffffffffffffffffffffffffffffffffffffffffffff1916827bffffffffffffffffffffffffffffffffffffffffffffffffffffffff191614806103f957507f5b5e139f000000000000000000000000000000000000000000000000000000007bffffffffffffffffffffffffffffffffffffffffffffffffffffffff1916827bffffffffffffffffffffffffffffffffffffffffffffffffffffffff1916145b80610409575061040882610c23565b5b9050919050565b60606000805461041f90612682565b80601f016020809104026020016040519081016040528092919081815260200182805461044b90612682565b80156104985780601f1061046d57610100808354040283529160200191610498565b820191906000526020600020905b81548152906001019060200180831161047b57829003601f168201915b5050505050905090565b60006104ad82610c8d565b6104ec576040517f08c379a00000000000000000000000000000000000000000000000000000000081526004016104e39061238c565b60405180910390fd5b6004600083815260200190815260200160002060009054906101000a900473ffffffffffffffffffffffffffffffffffffffff169050919050565b600061053282610723565b90508073ffffffffffffffffffffffffffffffffffffffff168373ffffffffffffffffffffffffffffffffffffffff1614156105a3576040517f08c379a000000000000000000000000000000000000000000000000000000000815260040161059a906123ec565b60405180910390fd5b8073ffffffffffffffffffffffffffffffffffffffff166105c2610cf9565b73ffffffffffffffffffffffffffffffffffffffff1614806105f157506105f0816105eb610cf9565b610b8f565b5b610630576040517f08c379a0000000000000000000000000000000000000000000000000000000008152600401610627906122cc565b60405180910390fd5b61063a8383610d01565b505050565b61065061064a610cf9565b82610dba565b61068f576040517f08c379a00000000000000000000000000000000000000000000000000000000081526004016106869061240c565b60405180910390fd5b61069a838383610e98565b505050565b6106ba838383604051806020016040528060008152506109db565b505050565b60006106cb60076110ff565b60006106d76007611115565b90506106e33382611123565b6106ed8184611141565b61071a600860009054906101000a900473ffffffffffffffffffffffffffffffffffffffff1660016109c5565b80915050919050565b6000806002600084815260200190815260200160002060009054906101000a900473ffffffffffffffffffffffffffffffffffffffff169050600073ffffffffffffffffffffffffffffffffffffffff168173ffffffffffffffffffffffffffffffffffffffff1614156107cc576040517f08c379a00000000000000000000000000000000000000000000000000000000081526004016107c39061230c565b60405180910390fd5b80915050919050565b60008073ffffffffffffffffffffffffffffffffffffffff168273ffffffffffffffffffffffffffffffffffffffff161415610846576040517f08c379a000000000000000000000000000000000000000000000000000000000815260040161083d906122ec565b60405180910390fd5b600360008373ffffffffffffffffffffffffffffffffffffffff1673ffffffffffffffffffffffffffffffffffffffff168152602001908152602001600020549050919050565b3373ffffffffffffffffffffffffffffffffffffffff166108ad82610723565b73ffffffffffffffffffffffffffffffffffffffff1614610903576040517f08c379a00000000000000000000000000000000000000000000000000000000081526004016108fa906123ac565b60405180910390fd5b610930600860009054906101000a900473ffffffffffffffffffffffffffffffffffffffff1660016109c5565b50565b60606001805461094290612682565b80601f016020809104026020016040519081016040528092919081815260200182805461096e90612682565b80156109bb5780601f10610990576101008083540402835291602001916109bb565b820191906000526020600020905b81548152906001019060200180831161099e57829003601f168201915b5050505050905090565b6109d76109d0610cf9565b83836111b5565b5050565b6109ec6109e6610cf9565b83610dba565b610a2b576040517f08c379a0000000000000000000000000000000000000000000000000000000008152600401610a229061240c565b60405180910390fd5b610a3784848484611322565b50505050565b6060610a4882610c8d565b610a87576040517f08c379a0000000000000000000000000000000000000000000000000000000008152600401610a7e9061236c565b60405180910390fd5b6000600660008481526020019081526020016000208054610aa790612682565b80601f0160208091040260200160405190810160405280929190818152602001828054610ad390612682565b8015610b205780601f10610af557610100808354040283529160200191610b20565b820191906000526020600020905b815481529060010190602001808311610b0357829003601f168201915b505050505090506000610b3161137e565b9050600081511415610b47578192505050610b8a565b600082511115610b7c578082604051602001610b64929190612144565b60405160208183030381529060405292505050610b8a565b610b8584611395565b925050505b919050565b6000600560008473ffffffffffffffffffffffffffffffffffffffff1673ffffffffffffffffffffffffffffffffffffffff16815260200190815260200160002060008373ffffffffffffffffffffffffffffffffffffffff1673ffffffffffffffffffffffffffffffffffffffff16815260200190815260200160002060009054906101000a900460ff16905092915050565b60007f01ffc9a7000000000000000000000000000000000000000000000000000000007bffffffffffffffffffffffffffffffffffffffffffffffffffffffff1916827bffffffffffffffffffffffffffffffffffffffffffffffffffffffff1916149050919050565b60008073ffffffffffffffffffffffffffffffffffffffff166002600084815260200190815260200160002060009054906101000a900473ffffffffffffffffffffffffffffffffffffffff1673ffffffffffffffffffffffffffffffffffffffff1614159050919050565b600033905090565b816004600083815260200190815260200160002060006101000a81548173ffffffffffffffffffffffffffffffffffffffff021916908373ffffffffffffffffffffffffffffffffffffffff160217905550808273ffffffffffffffffffffffffffffffffffffffff16610d7483610723565b73ffffffffffffffffffffffffffffffffffffffff167f8c5be1e5ebec7d5bd14f71427d1e84f3dd0314c0f7b2291e5b200ac8c7c3b92560405160405180910390a45050565b6000610dc582610c8d565b610e04576040517f08c379a0000000000000000000000000000000000000000000000000000000008152600401610dfb906122ac565b60405180910390fd5b6000610e0f83610723565b90508073ffffffffffffffffffffffffffffffffffffffff168473ffffffffffffffffffffffffffffffffffffffff161480610e7e57508373ffffffffffffffffffffffffffffffffffffffff16610e66846104a2565b73ffffffffffffffffffffffffffffffffffffffff16145b80610e8f5750610e8e8185610b8f565b5b91505092915050565b8273ffffffffffffffffffffffffffffffffffffffff16610eb882610723565b73ffffffffffffffffffffffffffffffffffffffff1614610f0e576040517f08c379a0000000000000000000000000000000000000000000000000000000008152600401610f059061222c565b60405180910390fd5b600073ffffffffffffffffffffffffffffffffffffffff168273ffffffffffffffffffffffffffffffffffffffff161415610f7e576040517f08c379a0000000000000000000000000000000000000000000000000000000008152600401610f759061226c565b60405180910390fd5b610f8983838361143c565b610f94600082610d01565b6001600360008573ffffffffffffffffffffffffffffffffffffffff1673ffffffffffffffffffffffffffffffffffffffff1681526020019081526020016000206000828254610fe49190612598565b925050819055506001600360008473ffffffffffffffffffffffffffffffffffffffff1673ffffffffffffffffffffffffffffffffffffffff168152602001908152602001600020600082825461103b9190612511565b92505081905550816002600083815260200190815260200160002060006101000a81548173ffffffffffffffffffffffffffffffffffffffff021916908373ffffffffffffffffffffffffffffffffffffffff160217905550808273ffffffffffffffffffffffffffffffffffffffff168473ffffffffffffffffffffffffffffffffffffffff167fddf252ad1be2c89b69c2b068fc378daa952ba7f163c4a11628f55a4df523b3ef60405160405180910390a46110fa838383611441565b505050565b6001816000016000828254019250508190555050565b600081600001549050919050565b61113d828260405180602001604052806000815250611446565b5050565b61114a82610c8d565b611189576040517f08c379a00000000000000000000000000000000000000000000000000000000081526004016111809061232c565b60405180910390fd5b806006600084815260200190815260200160002090805190602001906111b09291906119e2565b505050565b8173ffffffffffffffffffffffffffffffffffffffff168373ffffffffffffffffffffffffffffffffffffffff161415611224576040517f08c379a000000000000000000000000000000000000000000000000000000000815260040161121b9061228c565b60405180910390fd5b80600560008573ffffffffffffffffffffffffffffffffffffffff1673ffffffffffffffffffffffffffffffffffffffff16815260200190815260200160002060008473ffffffffffffffffffffffffffffffffffffffff1673ffffffffffffffffffffffffffffffffffffffff16815260200190815260200160002060006101000a81548160ff0219169083151502179055508173ffffffffffffffffffffffffffffffffffffffff168373ffffffffffffffffffffffffffffffffffffffff167f17307eab39ab6107e8899845ad3d59bd9653f200f220920489ca2b5937696c318360405161131591906121cf565b60405180910390a3505050565b61132d848484610e98565b611339848484846114a1565b611378576040517f08c379a000000000000000000000000000000000000000000000000000000000815260040161136f9061220c565b60405180910390fd5b50505050565b606060405180602001604052806000815250905090565b60606113a082610c8d565b6113df576040517f08c379a00000000000000000000000000000000000000000000000000000000081526004016113d6906123cc565b60405180910390fd5b60006113e961137e565b905060008151116114095760405180602001604052806000815250611434565b8061141384611638565b604051602001611424929190612144565b6040516020818303038152906040525b915050919050565b505050565b505050565b61145083836117e5565b61145d60008484846114a1565b61149c576040517f08c379a00000000000000000000000000000000000000000000000000000000081526004016114939061220c565b60405180910390fd5b505050565b60006114c28473ffffffffffffffffffffffffffffffffffffffff166119bf565b1561162b578373ffffffffffffffffffffffffffffffffffffffff1663150b7a026114eb610cf9565b8786866040518563ffffffff1660e01b815260040161150d9493929190612183565b602060405180830381600087803b15801561152757600080fd5b505af192505050801561155857506040513d601f19601f820116820180604052508101906115559190611d8e565b60015b6115db573d8060008114611588576040519150601f19603f3d011682016040523d82523d6000602084013e61158d565b606091505b506000815114156115d3576040517f08c379a00000000000000000000000000000000000000000000000000000000081526004016115ca9061220c565b60405180910390fd5b805181602001fd5b63150b7a0260e01b7bffffffffffffffffffffffffffffffffffffffffffffffffffffffff1916817bffffffffffffffffffffffffffffffffffffffffffffffffffffffff191614915050611630565b600190505b949350505050565b60606000821415611680576040518060400160405280600181526020017f300000000000000000000000000000000000000000000000000000000000000081525090506117e0565b600082905060005b600082146116b257808061169b906126e5565b915050600a826116ab9190612567565b9150611688565b60008167ffffffffffffffff8111156116f4577f4e487b7100000000000000000000000000000000000000000000000000000000600052604160045260246000fd5b6040519080825280601f01601f1916602001820160405280156117265781602001600182028036833780820191505090505b5090505b600085146117d95760018261173f9190612598565b9150600a8561174e919061272e565b603061175a9190612511565b60f81b818381518110611796577f4e487b7100000000000000000000000000000000000000000000000000000000600052603260045260246000fd5b60200101907effffffffffffffffffffffffffffffffffffffffffffffffffffffffffffff1916908160001a905350600a856117d29190612567565b945061172a565b8093505050505b919050565b600073ffffffffffffffffffffffffffffffffffffffff168273ffffffffffffffffffffffffffffffffffffffff161415611855576040517f08c379a000000000000000000000000000000000000000000000000000000000815260040161184c9061234c565b60405180910390fd5b61185e81610c8d565b1561189e576040517f08c379a00000000000000000000000000000000000000000000000000000000081526004016118959061224c565b60405180910390fd5b6118aa6000838361143c565b6001600360008473ffffffffffffffffffffffffffffffffffffffff1673ffffffffffffffffffffffffffffffffffffffff16815260200190815260200160002060008282546118fa9190612511565b92505081905550816002600083815260200190815260200160002060006101000a81548173ffffffffffffffffffffffffffffffffffffffff021916908373ffffffffffffffffffffffffffffffffffffffff160217905550808273ffffffffffffffffffffffffffffffffffffffff16600073ffffffffffffffffffffffffffffffffffffffff167fddf252ad1be2c89b69c2b068fc378daa952ba7f163c4a11628f55a4df523b3ef60405160405180910390a46119bb60008383611441565b5050565b6000808273ffffffffffffffffffffffffffffffffffffffff163b119050919050565b8280546119ee90612682565b90600052602060002090601f016020900481019282611a105760008555611a57565b82601f10611a2957805160ff1916838001178555611a57565b82800160010185558215611a57579182015b82811115611a56578251825591602001919060010190611a3b565b5b509050611a649190611a68565b5090565b5b80821115611a81576000816000905550600101611a69565b5090565b6000611a98611a938461246c565b612447565b905082815260208101848484011115611ab057600080fd5b611abb848285612640565b509392505050565b6000611ad6611ad18461249d565b612447565b905082815260208101848484011115611aee57600080fd5b611af9848285612640565b509392505050565b600081359050611b1081612cf9565b92915050565b600081359050611b2581612d10565b92915050565b600081359050611b3a81612d27565b92915050565b600081519050611b4f81612d27565b92915050565b600082601f830112611b6657600080fd5b8135611b76848260208601611a85565b91505092915050565b600082601f830112611b9057600080fd5b8135611ba0848260208601611ac3565b91505092915050565b600081359050611bb881612d3e565b92915050565b600060208284031215611bd057600080fd5b6000611bde84828501611b01565b91505092915050565b60008060408385031215611bfa57600080fd5b6000611c0885828601611b01565b9250506020611c1985828601611b01565b9150509250929050565b600080600060608486031215611c3857600080fd5b6000611c4686828701611b01565b9350506020611c5786828701611b01565b9250506040611c6886828701611ba9565b9150509250925092565b60008060008060808587031215611c8857600080fd5b6000611c9687828801611b01565b9450506020611ca787828801611b01565b9350506040611cb887828801611ba9565b925050606085013567ffffffffffffffff811115611cd557600080fd5b611ce187828801611b55565b91505092959194509250565b60008060408385031215611d0057600080fd5b6000611d0e85828601611b01565b9250506020611d1f85828601611b16565b9150509250929050565b60008060408385031215611d3c57600080fd5b6000611d4a85828601611b01565b9250506020611d5b85828601611ba9565b9150509250929050565b600060208284031215611d7757600080fd5b6000611d8584828501611b2b565b91505092915050565b600060208284031215611da057600080fd5b6000611dae84828501611b40565b91505092915050565b600060208284031215611dc957600080fd5b600082013567ffffffffffffffff811115611de357600080fd5b611def84828501611b7f565b91505092915050565b600060208284031215611e0a57600080fd5b6000611e1884828501611ba9565b91505092915050565b611e2a816125cc565b82525050565b611e39816125de565b82525050565b6000611e4a826124ce565b611e5481856124e4565b9350611e6481856020860161264f565b611e6d8161281b565b840191505092915050565b6000611e83826124d9565b611e8d81856124f5565b9350611e9d81856020860161264f565b611ea68161281b565b840191505092915050565b6000611ebc826124d9565b611ec68185612506565b9350611ed681856020860161264f565b80840191505092915050565b6000611eef6032836124f5565b9150611efa8261282c565b604082019050919050565b6000611f126025836124f5565b9150611f1d8261287b565b604082019050919050565b6000611f35601c836124f5565b9150611f40826128ca565b602082019050919050565b6000611f586024836124f5565b9150611f63826128f3565b604082019050919050565b6000611f7b6019836124f5565b9150611f8682612942565b602082019050919050565b6000611f9e602c836124f5565b9150611fa98261296b565b604082019050919050565b6000611fc16038836124f5565b9150611fcc826129ba565b604082019050919050565b6000611fe4602a836124f5565b9150611fef82612a09565b604082019050919050565b60006120076029836124f5565b915061201282612a58565b604082019050919050565b600061202a602e836124f5565b915061203582612aa7565b604082019050919050565b600061204d6020836124f5565b915061205882612af6565b602082019050919050565b60006120706031836124f5565b915061207b82612b1f565b604082019050919050565b6000612093602c836124f5565b915061209e82612b6e565b604082019050919050565b60006120b6602b836124f5565b91506120c182612bbd565b604082019050919050565b60006120d9602f836124f5565b91506120e482612c0c565b604082019050919050565b60006120fc6021836124f5565b915061210782612c5b565b604082019050919050565b600061211f6031836124f5565b915061212a82612caa565b604082019050919050565b61213e81612636565b82525050565b60006121508285611eb1565b915061215c8284611eb1565b91508190509392505050565b600060208201905061217d6000830184611e21565b92915050565b60006080820190506121986000830187611e21565b6121a56020830186611e21565b6121b26040830185612135565b81810360608301526121c48184611e3f565b905095945050505050565b60006020820190506121e46000830184611e30565b92915050565b600060208201905081810360008301526122048184611e78565b905092915050565b6000602082019050818103600083015261222581611ee2565b9050919050565b6000602082019050818103600083015261224581611f05565b9050919050565b6000602082019050818103600083015261226581611f28565b9050919050565b6000602082019050818103600083015261228581611f4b565b9050919050565b600060208201905081810360008301526122a581611f6e565b9050919050565b600060208201905081810360008301526122c581611f91565b9050919050565b600060208201905081810360008301526122e581611fb4565b9050919050565b6000602082019050818103600083015261230581611fd7565b9050919050565b6000602082019050818103600083015261232581611ffa565b9050919050565b600060208201905081810360008301526123458161201d565b9050919050565b6000602082019050818103600083015261236581612040565b9050919050565b6000602082019050818103600083015261238581612063565b9050919050565b600060208201905081810360008301526123a581612086565b9050919050565b600060208201905081810360008301526123c5816120a9565b9050919050565b600060208201905081810360008301526123e5816120cc565b9050919050565b60006020820190508181036000830152612405816120ef565b9050919050565b6000602082019050818103600083015261242581612112565b9050919050565b60006020820190506124416000830184612135565b92915050565b6000612451612462565b905061245d82826126b4565b919050565b6000604051905090565b600067ffffffffffffffff821115612487576124866127ec565b5b6124908261281b565b9050602081019050919050565b600067ffffffffffffffff8211156124b8576124b76127ec565b5b6124c18261281b565b9050602081019050919050565b600081519050919050565b600081519050919050565b600082825260208201905092915050565b600082825260208201905092915050565b600081905092915050565b600061251c82612636565b915061252783612636565b9250827fffffffffffffffffffffffffffffffffffffffffffffffffffffffffffffffff0382111561255c5761255b61275f565b5b828201905092915050565b600061257282612636565b915061257d83612636565b92508261258d5761258c61278e565b5b828204905092915050565b60006125a382612636565b91506125ae83612636565b9250828210156125c1576125c061275f565b5b828203905092915050565b60006125d782612616565b9050919050565b60008115159050919050565b60007fffffffff0000000000000000000000000000000000000000000000000000000082169050919050565b600073ffffffffffffffffffffffffffffffffffffffff82169050919050565b6000819050919050565b82818337600083830152505050565b60005b8381101561266d578082015181840152602081019050612652565b8381111561267c576000848401525b50505050565b6000600282049050600182168061269a57607f821691505b602082108114156126ae576126ad6127bd565b5b50919050565b6126bd8261281b565b810181811067ffffffffffffffff821117156126dc576126db6127ec565b5b80604052505050565b60006126f082612636565b91507fffffffffffffffffffffffffffffffffffffffffffffffffffffffffffffffff8214156127235761272261275f565b5b600182019050919050565b600061273982612636565b915061274483612636565b9250826127545761275361278e565b5b828206905092915050565b7f4e487b7100000000000000000000000000000000000000000000000000000000600052601160045260246000fd5b7f4e487b7100000000000000000000000000000000000000000000000000000000600052601260045260246000fd5b7f4e487b7100000000000000000000000000000000000000000000000000000000600052602260045260246000fd5b7f4e487b7100000000000000000000000000000000000000000000000000000000600052604160045260246000fd5b6000601f19601f8301169050919050565b7f4552433732313a207472616e7366657220746f206e6f6e20455243373231526560008201527f63656976657220696d706c656d656e7465720000000000000000000000000000602082015250565b7f4552433732313a207472616e736665722066726f6d20696e636f72726563742060008201527f6f776e6572000000000000000000000000000000000000000000000000000000602082015250565b7f4552433732313a20746f6b656e20616c7265616479206d696e74656400000000600082015250565b7f4552433732313a207472616e7366657220746f20746865207a65726f2061646460008201527f7265737300000000000000000000000000000000000000000000000000000000602082015250565b7f4552433732313a20617070726f766520746f2063616c6c657200000000000000600082015250565b7f4552433732313a206f70657261746f7220717565727920666f72206e6f6e657860008201527f697374656e7420746f6b656e0000000000000000000000000000000000000000602082015250565b7f4552433732313a20617070726f76652063616c6c6572206973206e6f74206f7760008201527f6e6572206e6f7220617070726f76656420666f7220616c6c0000000000000000602082015250565b7f4552433732313a2062616c616e636520717565727920666f7220746865207a6560008201527f726f206164647265737300000000000000000000000000000000000000000000602082015250565b7f4552433732313a206f776e657220717565727920666f72206e6f6e657869737460008201527f656e7420746f6b656e0000000000000000000000000000000000000000000000602082015250565b7f45524337323155524953746f726167653a2055524920736574206f66206e6f6e60008201527f6578697374656e7420746f6b656e000000000000000000000000000000000000602082015250565b7f4552433732313a206d696e7420746f20746865207a65726f2061646472657373600082015250565b7f45524337323155524953746f726167653a2055524920717565727920666f722060008201527f6e6f6e6578697374656e7420746f6b656e000000000000000000000000000000602082015250565b7f4552433732313a20617070726f76656420717565727920666f72206e6f6e657860008201527f697374656e7420746f6b656e0000000000000000000000000000000000000000602082015250565b7f596f75206d757374206f776e2074686973204e465420696e206f72646572207460008201527f6f20726573656c6c206974000000000000000000000000000000000000000000602082015250565b7f4552433732314d657461646174613a2055524920717565727920666f72206e6f60008201527f6e6578697374656e7420746f6b656e0000000000000000000000000000000000602082015250565b7f4552433732313a20617070726f76616c20746f2063757272656e74206f776e6560008201527f7200000000000000000000000000000000000000000000000000000000000000602082015250565b7f4552433732313a207472616e736665722063616c6c6572206973206e6f74206f60008201527f776e6572206e6f7220617070726f766564000000000000000000000000000000602082015250565b612d02816125cc565b8114612d0d57600080fd5b50565b612d19816125de565b8114612d2457600080fd5b50565b612d30816125ea565b8114612d3b57600080fd5b50565b612d4781612636565b8114612d5257600080fd5b5056fea2646970667358221220aa1d223259766cb40072260bc4cc42da41ab08b34d923e72540326f2e19f09aa64736f6c63430008040033",
  "linkReferences": {},
  "deployedLinkReferences": {}
}