{
  "_format": "hh-sol-artifact-1",
  "contractName": "NFTMarketTwo",
  "sourceName": "contracts/Market2.sol",
  "abi": [
    {
      "inputs": [],
      "stateMutability": "nonpayable",
      "type": "constructor"
    },
    {
      "anonymous": false,
      "inputs": [
        {
          "indexed": false,
          "internalType": "uint256",
          "name": "itemId",
          "type": "uint256"
        },
        {
          "indexed": true,
          "internalType": "address",
          "name": "nftContract",
          "type": "address"
        },
        {
          "indexed": true,
          "internalType": "address",
          "name": "owner",
          "type": "address"
        },
        {
          "indexed": true,
          "internalType": "uint256",
          "name": "tokenId",
          "type": "uint256"
        },
        {
          "indexed": false,
          "internalType": "uint256",
          "name": "price",
          "type": "uint256"
        },
        {
          "indexed": false,
          "internalType": "bool",
          "name": "sold",
          "type": "bool"
        }
      ],
      "name": "MarketItemCreated",
      "type": "event"
    },
    {
      "anonymous": false,
      "inputs": [
        {
          "indexed": true,
          "internalType": "address",
          "name": "acquirer",
          "type": "address"
        },
        {
          "indexed": true,
          "internalType": "uint256",
          "name": "tokenId",
          "type": "uint256"
        },
        {
          "indexed": false,
          "internalType": "uint256",
          "name": "timeGotten",
          "type": "uint256"
        }
      ],
      "name": "NftBought",
      "type": "event"
    },
    {
      "anonymous": false,
      "inputs": [
        {
          "indexed": true,
          "internalType": "address",
          "name": "from",
          "type": "address"
        },
        {
          "indexed": true,
          "internalType": "address",
          "name": "to",
          "type": "address"
        },
        {
          "indexed": true,
          "internalType": "uint256",
          "name": "tokenId",
          "type": "uint256"
        },
        {
          "indexed": false,
          "internalType": "uint256",
          "name": "timeGifted",
          "type": "uint256"
        }
      ],
      "name": "NftGifted",
      "type": "event"
    },
    {
      "anonymous": false,
      "inputs": [
        {
          "indexed": true,
          "internalType": "address",
          "name": "seller",
          "type": "address"
        },
        {
          "indexed": true,
          "internalType": "uint256",
          "name": "tokenId",
          "type": "uint256"
        },
        {
          "indexed": true,
          "internalType": "uint256",
          "name": "timeSold",
          "type": "uint256"
        }
      ],
      "name": "NftSold",
      "type": "event"
    },
    {
      "anonymous": false,
      "inputs": [
        {
          "indexed": true,
          "internalType": "address",
          "name": "previousOwner",
          "type": "address"
        },
        {
          "indexed": true,
          "internalType": "address",
          "name": "newOwner",
          "type": "address"
        }
      ],
      "name": "OwnershipTransferred",
      "type": "event"
    },
    {
      "anonymous": false,
      "inputs": [
        {
          "indexed": true,
          "internalType": "address",
          "name": "sender",
          "type": "address"
        },
        {
          "indexed": true,
          "internalType": "uint256",
          "name": "tokenId",
          "type": "uint256"
        },
        {
          "indexed": true,
          "internalType": "uint256",
          "name": "amount",
          "type": "uint256"
        }
      ],
      "name": "TryingToSellPrematureNFT",
      "type": "event"
    },
    {
      "inputs": [
        {
          "internalType": "address",
          "name": "nftContract",
          "type": "address"
        },
        {
          "internalType": "uint64",
          "name": "itemId",
          "type": "uint64"
        }
      ],
      "name": "buyNft",
      "outputs": [],
      "stateMutability": "payable",
      "type": "function"
    },
    {
      "inputs": [
        {
          "internalType": "address",
          "name": "nftContract",
          "type": "address"
        },
        {
          "internalType": "uint256",
          "name": "tokenId",
          "type": "uint256"
        },
        {
          "internalType": "uint256",
          "name": "price",
          "type": "uint256"
        }
      ],
      "name": "createMarketItem",
      "outputs": [],
      "stateMutability": "nonpayable",
      "type": "function"
    },
    {
      "inputs": [],
      "name": "fetchMarketItems",
      "outputs": [
        {
          "components": [
            {
              "internalType": "uint256",
              "name": "itemId",
              "type": "uint256"
            },
            {
              "internalType": "uint256",
              "name": "tokenId",
              "type": "uint256"
            },
            {
              "internalType": "uint256",
              "name": "price",
              "type": "uint256"
            },
            {
              "internalType": "address",
              "name": "nftContract",
              "type": "address"
            },
            {
              "internalType": "address",
              "name": "owner",
              "type": "address"
            },
            {
              "internalType": "bool",
              "name": "sold",
              "type": "bool"
            }
          ],
          "internalType": "struct NFTMarketTwo.MarketItem[]",
          "name": "",
          "type": "tuple[]"
        }
      ],
      "stateMutability": "view",
      "type": "function"
    },
    {
      "inputs": [
        {
          "internalType": "address",
          "name": "loggedInUser",
          "type": "address"
        }
      ],
      "name": "fetchMyNFTs",
      "outputs": [
        {
          "components": [
            {
              "internalType": "uint256",
              "name": "itemId",
              "type": "uint256"
            },
            {
              "internalType": "uint256",
              "name": "tokenId",
              "type": "uint256"
            },
            {
              "internalType": "uint256",
              "name": "price",
              "type": "uint256"
            },
            {
              "internalType": "address",
              "name": "nftContract",
              "type": "address"
            },
            {
              "internalType": "address",
              "name": "owner",
              "type": "address"
            },
            {
              "internalType": "bool",
              "name": "sold",
              "type": "bool"
            }
          ],
          "internalType": "struct NFTMarketTwo.MarketItem[]",
          "name": "",
          "type": "tuple[]"
        }
      ],
      "stateMutability": "view",
      "type": "function"
    },
    {
      "inputs": [
        {
          "internalType": "address",
          "name": "nftContract",
          "type": "address"
        },
        {
          "internalType": "address",
          "name": "to",
          "type": "address"
        },
        {
          "internalType": "uint256",
          "name": "itemId",
          "type": "uint256"
        }
      ],
      "name": "giftNft",
      "outputs": [],
      "stateMutability": "nonpayable",
      "type": "function"
    },
    {
      "inputs": [],
      "name": "owner",
      "outputs": [
        {
          "internalType": "address",
          "name": "",
          "type": "address"
        }
      ],
      "stateMutability": "view",
      "type": "function"
    },
    {
      "inputs": [],
      "name": "renounceOwnership",
      "outputs": [],
      "stateMutability": "nonpayable",
      "type": "function"
    },
    {
      "inputs": [
        {
          "internalType": "uint256",
          "name": "itemId",
          "type": "uint256"
        },
        {
          "internalType": "address",
          "name": "nftContract",
          "type": "address"
        }
      ],
      "name": "sellNft",
      "outputs": [],
      "stateMutability": "nonpayable",
      "type": "function"
    },
    {
      "inputs": [
        {
          "internalType": "address",
          "name": "newOwner",
          "type": "address"
        }
      ],
      "name": "transferOwnership",
      "outputs": [],
      "stateMutability": "nonpayable",
      "type": "function"
    }
  ],
  "bytecode": "0x608060405234801561001057600080fd5b50600160008190555061003561002a61003a60201b60201c565b61004260201b60201c565b610108565b600033905090565b6000600160009054906101000a900473ffffffffffffffffffffffffffffffffffffffff16905081600160006101000a81548173ffffffffffffffffffffffffffffffffffffffff021916908373ffffffffffffffffffffffffffffffffffffffff1602179055508173ffffffffffffffffffffffffffffffffffffffff168173ffffffffffffffffffffffffffffffffffffffff167f8be0079c531659141344cd1fd0a4f28419497f9722a3daafe3b4186f6b6457e060405160405180910390a35050565b61243080620001186000396000f3fe6080604052600436106100865760003560e01c806358eb2df51161005957806358eb2df5146101385780636c28246014610161578063715018a61461018a5780638da5cb5b146101a1578063f2fde38b146101cc57610086565b80630f08efe01461008b5780630f876dc6146100b657806310afee1e146100df57806335a981361461011c575b600080fd5b34801561009757600080fd5b506100a06101f5565b6040516100ad9190611e91565b60405180910390f35b3480156100c257600080fd5b506100dd60048036038101906100d89190611be6565b6104b5565b005b3480156100eb57600080fd5b5061010660048036038101906101019190611ae3565b610902565b6040516101139190611e91565b60405180910390f35b61013660048036038101906101319190611baa565b610c48565b005b34801561014457600080fd5b5061015f600480360381019061015a9190611b5b565b610f9f565b005b34801561016d57600080fd5b5061018860048036038101906101839190611b0c565b6112ec565b005b34801561019657600080fd5b5061019f6116ad565b005b3480156101ad57600080fd5b506101b6611735565b6040516101c39190611e3f565b60405180910390f35b3480156101d857600080fd5b506101f360048036038101906101ee9190611ae3565b61175f565b005b606060006102036002611857565b905060006102116004611857565b61021b6002611857565b61022591906120f0565b90506000808267ffffffffffffffff81111561026a577f4e487b7100000000000000000000000000000000000000000000000000000000600052604160045260246000fd5b6040519080825280602002602001820160405280156102a357816020015b610290611a40565b8152602001906001900390816102885790505b50905060005b848110156104aa57600073ffffffffffffffffffffffffffffffffffffffff16600560006001846102da919061200f565b815260200190815260200160002060040160009054906101000a900473ffffffffffffffffffffffffffffffffffffffff1673ffffffffffffffffffffffffffffffffffffffff161415610497576000600182610337919061200f565b90506000600560008381526020019081526020016000209050806040518060c00160405290816000820154815260200160018201548152602001600282015481526020016003820160009054906101000a900473ffffffffffffffffffffffffffffffffffffffff1673ffffffffffffffffffffffffffffffffffffffff1673ffffffffffffffffffffffffffffffffffffffff1681526020016004820160009054906101000a900473ffffffffffffffffffffffffffffffffffffffff1673ffffffffffffffffffffffffffffffffffffffff1673ffffffffffffffffffffffffffffffffffffffff1681526020016004820160149054906101000a900460ff16151515158152505084868151811061047a577f4e487b7100000000000000000000000000000000000000000000000000000000600052603260045260246000fd5b6020026020010181905250600185610492919061200f565b945050505b80806104a290612180565b9150506102a9565b508094505050505090565b600260005414156104fb576040517f08c379a00000000000000000000000000000000000000000000000000000000081526004016104f290611f33565b60405180910390fd5b600260008190555060006005600084815260200190815260200160002060020154905060006005600085815260200190815260200160002060010154905060006105456004611857565b905060003373ffffffffffffffffffffffffffffffffffffffff166005600088815260200190815260200160002060040160009054906101000a900473ffffffffffffffffffffffffffffffffffffffff1673ffffffffffffffffffffffffffffffffffffffff16146105ed576040517f08c379a00000000000000000000000000000000000000000000000000000000081526004016105e490611f13565b60405180910390fd5b60005b8281101561075757866006600060018461060a919061200f565b815260200190815260200160002060000154148015610655575060066000600183610635919061200f565b815260200190815260200160002060040160149054906101000a900460ff165b15610744576006600060018361066b919061200f565b81526020019081526020016000206001015491504260066000600184610691919061200f565b8152602001908152602001600020600201819055506000600660006001846106b9919061200f565b815260200190815260200160002060040160146101000a81548160ff0219169083151502179055506000600660006001846106f4919061200f565b815260200190815260200160002060040160006101000a81548173ffffffffffffffffffffffffffffffffffffffff021916908373ffffffffffffffffffffffffffffffffffffffff1602179055505b808061074f90612180565b9150506105f0565b5060006005600088815260200190815260200160002060040160146101000a81548160ff02191690831515021790555060006005600088815260200190815260200160002060040160006101000a81548173ffffffffffffffffffffffffffffffffffffffff021916908373ffffffffffffffffffffffffffffffffffffffff16021790555060006107ea858386611865565b90508573ffffffffffffffffffffffffffffffffffffffff166323b872dd3330876040518463ffffffff1660e01b815260040161082993929190611e5a565b600060405180830381600087803b15801561084357600080fd5b505af1158015610857573d6000803e3d6000fd5b505050503373ffffffffffffffffffffffffffffffffffffffff166108fc829081150290604051600060405180830381858888f193505050501580156108a1573d6000803e3d6000fd5b506108ac6003611923565b42843373ffffffffffffffffffffffffffffffffffffffff167f9b9577bfad2e67a8df72aa8f54ee39ff58080e7c899e842302b6ec46d519919760405160405180910390a4505050505060016000819055505050565b606060006109106002611857565b905060008060005b838110156109b9578573ffffffffffffffffffffffffffffffffffffffff1660056000600184610948919061200f565b815260200190815260200160002060040160009054906101000a900473ffffffffffffffffffffffffffffffffffffffff1673ffffffffffffffffffffffffffffffffffffffff1614156109a6576001836109a3919061200f565b92505b80806109b190612180565b915050610918565b5060008267ffffffffffffffff8111156109fc577f4e487b7100000000000000000000000000000000000000000000000000000000600052604160045260246000fd5b604051908082528060200260200182016040528015610a3557816020015b610a22611a40565b815260200190600190039081610a1a5790505b50905060005b84811015610c3b578673ffffffffffffffffffffffffffffffffffffffff1660056000600184610a6b919061200f565b815260200190815260200160002060040160009054906101000a900473ffffffffffffffffffffffffffffffffffffffff1673ffffffffffffffffffffffffffffffffffffffff161415610c28576000600182610ac8919061200f565b90506000600560008381526020019081526020016000209050806040518060c00160405290816000820154815260200160018201548152602001600282015481526020016003820160009054906101000a900473ffffffffffffffffffffffffffffffffffffffff1673ffffffffffffffffffffffffffffffffffffffff1673ffffffffffffffffffffffffffffffffffffffff1681526020016004820160009054906101000a900473ffffffffffffffffffffffffffffffffffffffff1673ffffffffffffffffffffffffffffffffffffffff1673ffffffffffffffffffffffffffffffffffffffff1681526020016004820160149054906101000a900460ff161515151581525050848681518110610c0b577f4e487b7100000000000000000000000000000000000000000000000000000000600052603260045260246000fd5b6020026020010181905250600185610c23919061200f565b945050505b8080610c3390612180565b915050610a3b565b5080945050505050919050565b60026000541415610c8e576040517f08c379a0000000000000000000000000000000000000000000000000000000008152600401610c8590611f33565b60405180910390fd5b60026000819055506000600560008367ffffffffffffffff1681526020019081526020016000206002015490506000600560008467ffffffffffffffff168152602001908152602001600020600101549050813414610d22576040517f08c379a0000000000000000000000000000000000000000000000000000000008152600401610d1990611ed3565b60405180910390fd5b8373ffffffffffffffffffffffffffffffffffffffff166342842e0e3033846040518463ffffffff1660e01b8152600401610d5f93929190611e5a565b600060405180830381600087803b158015610d7957600080fd5b505af1158015610d8d573d6000803e3d6000fd5b505050506001600560008567ffffffffffffffff16815260200190815260200160002060040160146101000a81548160ff02191690831515021790555033600560008567ffffffffffffffff16815260200190815260200160002060040160006101000a81548173ffffffffffffffffffffffffffffffffffffffff021916908373ffffffffffffffffffffffffffffffffffffffff160217905550610e336004611923565b6000610e3f6004611857565b90506040518060c001604052808567ffffffffffffffff168152602001428152602001600081526020018281526020013373ffffffffffffffffffffffffffffffffffffffff16815260200160011515815250600660008381526020019081526020016000206000820151816000015560208201518160010155604082015181600201556060820151816003015560808201518160040160006101000a81548173ffffffffffffffffffffffffffffffffffffffff021916908373ffffffffffffffffffffffffffffffffffffffff16021790555060a08201518160040160146101000a81548160ff0219169083151502179055509050508367ffffffffffffffff163373ffffffffffffffffffffffffffffffffffffffff167f6cde4ed53ecc43e1126a8b2b9e8ad2f4ec18d9f7834636ed981cfa61960be37042604051610f889190611f73565b60405180910390a350505060016000819055505050565b610fa7611939565b73ffffffffffffffffffffffffffffffffffffffff16610fc5611735565b73ffffffffffffffffffffffffffffffffffffffff161461101b576040517f08c379a000000000000000000000000000000000000000000000000000000000815260040161101290611ef3565b60405180910390fd5b60026000541415611061576040517f08c379a000000000000000000000000000000000000000000000000000000000815260040161105890611f33565b60405180910390fd5b6002600081905550600081116110ac576040517f08c379a00000000000000000000000000000000000000000000000000000000081526004016110a390611f53565b60405180910390fd5b6110b66002611923565b60006110c26002611857565b90506040518060c001604052808281526020018481526020018381526020018573ffffffffffffffffffffffffffffffffffffffff168152602001600073ffffffffffffffffffffffffffffffffffffffff168152602001600015158152506005600083815260200190815260200160002060008201518160000155602082015181600101556040820151816002015560608201518160030160006101000a81548173ffffffffffffffffffffffffffffffffffffffff021916908373ffffffffffffffffffffffffffffffffffffffff16021790555060808201518160040160006101000a81548173ffffffffffffffffffffffffffffffffffffffff021916908373ffffffffffffffffffffffffffffffffffffffff16021790555060a08201518160040160146101000a81548160ff0219169083151502179055509050508373ffffffffffffffffffffffffffffffffffffffff166323b872dd3330866040518463ffffffff1660e01b815260040161124093929190611e5a565b600060405180830381600087803b15801561125a57600080fd5b505af115801561126e573d6000803e3d6000fd5b5050505082600073ffffffffffffffffffffffffffffffffffffffff168573ffffffffffffffffffffffffffffffffffffffff167f04725f44278a0475942ea64180dcfe5b01f4834fa5ec4ef7249caa03eadb65b4848660006040516112d693929190611f8e565b60405180910390a4506001600081905550505050565b60026000541415611332576040517f08c379a000000000000000000000000000000000000000000000000000000000815260040161132990611f33565b60405180910390fd5b60026000819055503373ffffffffffffffffffffffffffffffffffffffff166005600083815260200190815260200160002060040160009054906101000a900473ffffffffffffffffffffffffffffffffffffffff1673ffffffffffffffffffffffffffffffffffffffff16146113de576040517f08c379a00000000000000000000000000000000000000000000000000000000081526004016113d590611f13565b60405180910390fd5b60006113ea6004611857565b905060006005600084815260200190815260200160002060010154905060006005600085815260200190815260200160002060040160009054906101000a900473ffffffffffffffffffffffffffffffffffffffff1690508573ffffffffffffffffffffffffffffffffffffffff166342842e0e8287856040518463ffffffff1660e01b815260040161147f93929190611e5a565b600060405180830381600087803b15801561149957600080fd5b505af11580156114ad573d6000803e3d6000fd5b50505050846005600086815260200190815260200160002060040160006101000a81548173ffffffffffffffffffffffffffffffffffffffff021916908373ffffffffffffffffffffffffffffffffffffffff16021790555060005b83811015611636578460066000600184611523919061200f565b81526020019081526020016000206000015414801561156e57506006600060018361154e919061200f565b815260200190815260200160002060040160149054906101000a900460ff165b15611623574260066000600184611585919061200f565b81526020019081526020016000206001018190555042600660006001846115ac919061200f565b81526020019081526020016000206002018190555085600660006001846115d3919061200f565b815260200190815260200160002060040160006101000a81548173ffffffffffffffffffffffffffffffffffffffff021916908373ffffffffffffffffffffffffffffffffffffffff1602179055505b808061162e90612180565b915050611509565b50818573ffffffffffffffffffffffffffffffffffffffff163373ffffffffffffffffffffffffffffffffffffffff167f03e53c8c63b3ece939d30e7ead3a0a6941a417712c86ac711b3b2d72d8f182a7426040516116959190611f73565b60405180910390a45050506001600081905550505050565b6116b5611939565b73ffffffffffffffffffffffffffffffffffffffff166116d3611735565b73ffffffffffffffffffffffffffffffffffffffff1614611729576040517f08c379a000000000000000000000000000000000000000000000000000000000815260040161172090611ef3565b60405180910390fd5b6117336000611941565b565b6000600160009054906101000a900473ffffffffffffffffffffffffffffffffffffffff16905090565b611767611939565b73ffffffffffffffffffffffffffffffffffffffff16611785611735565b73ffffffffffffffffffffffffffffffffffffffff16146117db576040517f08c379a00000000000000000000000000000000000000000000000000000000081526004016117d290611ef3565b60405180910390fd5b600073ffffffffffffffffffffffffffffffffffffffff168173ffffffffffffffffffffffffffffffffffffffff16141561184b576040517f08c379a000000000000000000000000000000000000000000000000000000000815260040161184290611eb3565b60405180910390fd5b61185481611941565b50565b600081600001549050919050565b6000806301e13380856118789190612065565b905060008061188686611a07565b80925081935050506000620151808261189f9190612065565b905082156118be5780846118b39190612096565b94505050505061191c565b600081856118cc9190612096565b905080873373ffffffffffffffffffffffffffffffffffffffff167f26eabeeb6d783855fc7211a6d0309bb509e72c76ffb3f1e7a5ab1432a366ed7e60405160405180910390a480955050505050505b9392505050565b6001816000016000828254019250508190555050565b600033905090565b6000600160009054906101000a900473ffffffffffffffffffffffffffffffffffffffff16905081600160006101000a81548173ffffffffffffffffffffffffffffffffffffffff021916908373ffffffffffffffffffffffffffffffffffffffff1602179055508173ffffffffffffffffffffffffffffffffffffffff168173ffffffffffffffffffffffffffffffffffffffff167f8be0079c531659141344cd1fd0a4f28419497f9722a3daafe3b4186f6b6457e060405160405180910390a35050565b60008060008342611a1891906120f0565b905062f14280811115611a32576001819250925050611a3b565b60008192509250505b915091565b6040518060c00160405280600081526020016000815260200160008152602001600073ffffffffffffffffffffffffffffffffffffffff168152602001600073ffffffffffffffffffffffffffffffffffffffff1681526020016000151581525090565b600081359050611ab3816123b5565b92915050565b600081359050611ac8816123cc565b92915050565b600081359050611add816123e3565b92915050565b600060208284031215611af557600080fd5b6000611b0384828501611aa4565b91505092915050565b600080600060608486031215611b2157600080fd5b6000611b2f86828701611aa4565b9350506020611b4086828701611aa4565b9250506040611b5186828701611ab9565b9150509250925092565b600080600060608486031215611b7057600080fd5b6000611b7e86828701611aa4565b9350506020611b8f86828701611ab9565b9250506040611ba086828701611ab9565b9150509250925092565b60008060408385031215611bbd57600080fd5b6000611bcb85828601611aa4565b9250506020611bdc85828601611ace565b9150509250929050565b60008060408385031215611bf957600080fd5b6000611c0785828601611ab9565b9250506020611c1885828601611aa4565b9150509250929050565b6000611c2e8383611da6565b60c08301905092915050565b611c4381612124565b82525050565b611c5281612124565b82525050565b6000611c6382611fd5565b611c6d8185611fed565b9350611c7883611fc5565b8060005b83811015611ca9578151611c908882611c22565b9750611c9b83611fe0565b925050600181019050611c7c565b5085935050505092915050565b611cbf81612136565b82525050565b611cce81612136565b82525050565b6000611ce1602683611ffe565b9150611cec82612227565b604082019050919050565b6000611d04604083611ffe565b9150611d0f82612276565b604082019050919050565b6000611d27602083611ffe565b9150611d32826122c5565b602082019050919050565b6000611d4a604483611ffe565b9150611d55826122ee565b606082019050919050565b6000611d6d601f83611ffe565b9150611d7882612363565b602082019050919050565b6000611d90601c83611ffe565b9150611d9b8261238c565b602082019050919050565b60c082016000820151611dbc6000850182611e21565b506020820151611dcf6020850182611e21565b506040820151611de26040850182611e21565b506060820151611df56060850182611c3a565b506080820151611e086080850182611c3a565b5060a0820151611e1b60a0850182611cb6565b50505050565b611e2a81612162565b82525050565b611e3981612162565b82525050565b6000602082019050611e546000830184611c49565b92915050565b6000606082019050611e6f6000830186611c49565b611e7c6020830185611c49565b611e896040830184611e30565b949350505050565b60006020820190508181036000830152611eab8184611c58565b905092915050565b60006020820190508181036000830152611ecc81611cd4565b9050919050565b60006020820190508181036000830152611eec81611cf7565b9050919050565b60006020820190508181036000830152611f0c81611d1a565b9050919050565b60006020820190508181036000830152611f2c81611d3d565b9050919050565b60006020820190508181036000830152611f4c81611d60565b9050919050565b60006020820190508181036000830152611f6c81611d83565b9050919050565b6000602082019050611f886000830184611e30565b92915050565b6000606082019050611fa36000830186611e30565b611fb06020830185611e30565b611fbd6040830184611cc5565b949350505050565b6000819050602082019050919050565b600081519050919050565b6000602082019050919050565b600082825260208201905092915050565b600082825260208201905092915050565b600061201a82612162565b915061202583612162565b9250827fffffffffffffffffffffffffffffffffffffffffffffffffffffffffffffffff0382111561205a576120596121c9565b5b828201905092915050565b600061207082612162565b915061207b83612162565b92508261208b5761208a6121f8565b5b828204905092915050565b60006120a182612162565b91506120ac83612162565b9250817fffffffffffffffffffffffffffffffffffffffffffffffffffffffffffffffff04831182151516156120e5576120e46121c9565b5b828202905092915050565b60006120fb82612162565b915061210683612162565b925082821015612119576121186121c9565b5b828203905092915050565b600061212f82612142565b9050919050565b60008115159050919050565b600073ffffffffffffffffffffffffffffffffffffffff82169050919050565b6000819050919050565b600067ffffffffffffffff82169050919050565b600061218b82612162565b91507fffffffffffffffffffffffffffffffffffffffffffffffffffffffffffffffff8214156121be576121bd6121c9565b5b600182019050919050565b7f4e487b7100000000000000000000000000000000000000000000000000000000600052601160045260246000fd5b7f4e487b7100000000000000000000000000000000000000000000000000000000600052601260045260246000fd5b7f4f776e61626c653a206e6577206f776e657220697320746865207a65726f206160008201527f6464726573730000000000000000000000000000000000000000000000000000602082015250565b7f506c65617365207375626d6974207468652061736b696e67207072696365206960008201527f6e206f7264657220746f20636f6d706c65746520746865207075726368617365602082015250565b7f4f776e61626c653a2063616c6c6572206973206e6f7420746865206f776e6572600082015250565b7f596f7520646f206e6f742068617665207065726d697373696f6e20746f20476960008201527f66742074686973204e465420617320796f7520617265206e6f7420746865206f60208201527f776e657200000000000000000000000000000000000000000000000000000000604082015250565b7f5265656e7472616e637947756172643a207265656e7472616e742063616c6c00600082015250565b7f5072696365206d757374206265206174206c6561737420312077656900000000600082015250565b6123be81612124565b81146123c957600080fd5b50565b6123d581612162565b81146123e057600080fd5b50565b6123ec8161216c565b81146123f757600080fd5b5056fea26469706673582212206afe3e75d9821c57d3de2004db0199b4729428691fc4f52c15e4799d98c7c7d064736f6c63430008040033",
  "linkReferences": {},
  "deployedLinkReferences": {}
}