{
  "_format": "hh-sol-artifact-1",
  "contractName": "OtherTwo",
  "sourceName": "contracts/erc115other.sol",
  "abi": [
    {
      "anonymous": false,
      "inputs": [
        {
          "indexed": true,
          "internalType": "address",
          "name": "previousOwner",
          "type": "address"
        },
        {
          "indexed": true,
          "internalType": "address",
          "name": "newOwner",
          "type": "address"
        }
      ],
      "name": "OwnershipTransferred",
      "type": "event"
    },
    {
      "inputs": [],
      "name": "getBalance",
      "outputs": [
        {
          "internalType": "uint256",
          "name": "",
          "type": "uint256"
        }
      ],
      "stateMutability": "view",
      "type": "function"
    },
    {
      "inputs": [],
      "name": "getCurrentAdmin",
      "outputs": [
        {
          "internalType": "address",
          "name": "",
          "type": "address"
        }
      ],
      "stateMutability": "view",
      "type": "function"
    },
    {
      "inputs": [],
      "name": "owner",
      "outputs": [
        {
          "internalType": "address",
          "name": "",
          "type": "address"
        }
      ],
      "stateMutability": "view",
      "type": "function"
    },
    {
      "inputs": [],
      "name": "renounceOwnership",
      "outputs": [],
      "stateMutability": "nonpayable",
      "type": "function"
    },
    {
      "inputs": [
        {
          "internalType": "address",
          "name": "admin",
          "type": "address"
        }
      ],
      "name": "setAdmin",
      "outputs": [],
      "stateMutability": "nonpayable",
      "type": "function"
    },
    {
      "inputs": [
        {
          "internalType": "address",
          "name": "newOwner",
          "type": "address"
        }
      ],
      "name": "transferOwnership",
      "outputs": [],
      "stateMutability": "nonpayable",
      "type": "function"
    },
    {
      "inputs": [],
      "name": "withdrawMoney",
      "outputs": [],
      "stateMutability": "nonpayable",
      "type": "function"
    },
    {
      "inputs": [
        {
          "internalType": "address",
          "name": "_to",
          "type": "address"
        }
      ],
      "name": "withdrawMoneyTo",
      "outputs": [],
      "stateMutability": "nonpayable",
      "type": "function"
    }
  ],
  "bytecode": "0x608060405234801561001057600080fd5b5061002d61002261003960201b60201c565b61004160201b60201c565b60018081905550610105565b600033905090565b60008060009054906101000a900473ffffffffffffffffffffffffffffffffffffffff169050816000806101000a81548173ffffffffffffffffffffffffffffffffffffffff021916908373ffffffffffffffffffffffffffffffffffffffff1602179055508173ffffffffffffffffffffffffffffffffffffffff168173ffffffffffffffffffffffffffffffffffffffff167f8be0079c531659141344cd1fd0a4f28419497f9722a3daafe3b4186f6b6457e060405160405180910390a35050565b610d7c806101146000396000f3fe608060405234801561001057600080fd5b50600436106100885760003560e01c8063715018a61161005b578063715018a6146101015780638da5cb5b1461010b578063ac44600214610129578063f2fde38b1461013357610088565b80630ff8d8a51461008d57806312065fe0146100a9578063643d430c146100c7578063704b6c02146100e5575b600080fd5b6100a760048036038101906100a291906109dd565b61014f565b005b6100b16102e3565b6040516100be9190610bc6565b60405180910390f35b6100cf6103b8565b6040516100dc9190610b0b565b60405180910390f35b6100ff60048036038101906100fa91906109dd565b6104af565b005b61010961056f565b005b6101136105f7565b6040516101209190610b0b565b60405180910390f35b610131610620565b005b61014d600480360381019061014891906109dd565b610804565b005b6101576108fc565b73ffffffffffffffffffffffffffffffffffffffff166101756105f7565b73ffffffffffffffffffffffffffffffffffffffff16146101cb576040517f08c379a00000000000000000000000000000000000000000000000000000000081526004016101c290610b66565b60405180910390fd5b60026001541415610211576040517f08c379a000000000000000000000000000000000000000000000000000000000815260040161020890610ba6565b60405180910390fd5b6002600181905550600081905060006102286102e3565b905060008273ffffffffffffffffffffffffffffffffffffffff168260405161025090610af6565b60006040518083038185875af1925050503d806000811461028d576040519150601f19603f3d011682016040523d82523d6000602084013e610292565b606091505b50509050806102d6576040517f08c379a00000000000000000000000000000000000000000000000000000000081526004016102cd90610b86565b60405180910390fd5b5050506001808190555050565b6000600260009054906101000a900473ffffffffffffffffffffffffffffffffffffffff1673ffffffffffffffffffffffffffffffffffffffff163373ffffffffffffffffffffffffffffffffffffffff16148061037357506103446105f7565b73ffffffffffffffffffffffffffffffffffffffff163373ffffffffffffffffffffffffffffffffffffffff16145b6103b2576040517f08c379a00000000000000000000000000000000000000000000000000000000081526004016103a990610b26565b60405180910390fd5b47905090565b6000600260009054906101000a900473ffffffffffffffffffffffffffffffffffffffff1673ffffffffffffffffffffffffffffffffffffffff163373ffffffffffffffffffffffffffffffffffffffff16148061044857506104196105f7565b73ffffffffffffffffffffffffffffffffffffffff163373ffffffffffffffffffffffffffffffffffffffff16145b610487576040517f08c379a000000000000000000000000000000000000000000000000000000000815260040161047e90610b26565b60405180910390fd5b600260009054906101000a900473ffffffffffffffffffffffffffffffffffffffff16905090565b6104b76108fc565b73ffffffffffffffffffffffffffffffffffffffff166104d56105f7565b73ffffffffffffffffffffffffffffffffffffffff161461052b576040517f08c379a000000000000000000000000000000000000000000000000000000000815260040161052290610b66565b60405180910390fd5b80600260006101000a81548173ffffffffffffffffffffffffffffffffffffffff021916908373ffffffffffffffffffffffffffffffffffffffff16021790555050565b6105776108fc565b73ffffffffffffffffffffffffffffffffffffffff166105956105f7565b73ffffffffffffffffffffffffffffffffffffffff16146105eb576040517f08c379a00000000000000000000000000000000000000000000000000000000081526004016105e290610b66565b60405180910390fd5b6105f56000610904565b565b60008060009054906101000a900473ffffffffffffffffffffffffffffffffffffffff16905090565b600260009054906101000a900473ffffffffffffffffffffffffffffffffffffffff1673ffffffffffffffffffffffffffffffffffffffff163373ffffffffffffffffffffffffffffffffffffffff1614806106ae575061067f6105f7565b73ffffffffffffffffffffffffffffffffffffffff163373ffffffffffffffffffffffffffffffffffffffff16145b6106ed576040517f08c379a00000000000000000000000000000000000000000000000000000000081526004016106e490610b26565b60405180910390fd5b60026001541415610733576040517f08c379a000000000000000000000000000000000000000000000000000000000815260040161072a90610ba6565b60405180910390fd5b60026001819055506000339050600061074a6102e3565b905060008273ffffffffffffffffffffffffffffffffffffffff168260405161077290610af6565b60006040518083038185875af1925050503d80600081146107af576040519150601f19603f3d011682016040523d82523d6000602084013e6107b4565b606091505b50509050806107f8576040517f08c379a00000000000000000000000000000000000000000000000000000000081526004016107ef90610b86565b60405180910390fd5b50505060018081905550565b61080c6108fc565b73ffffffffffffffffffffffffffffffffffffffff1661082a6105f7565b73ffffffffffffffffffffffffffffffffffffffff1614610880576040517f08c379a000000000000000000000000000000000000000000000000000000000815260040161087790610b66565b60405180910390fd5b600073ffffffffffffffffffffffffffffffffffffffff168173ffffffffffffffffffffffffffffffffffffffff1614156108f0576040517f08c379a00000000000000000000000000000000000000000000000000000000081526004016108e790610b46565b60405180910390fd5b6108f981610904565b50565b600033905090565b60008060009054906101000a900473ffffffffffffffffffffffffffffffffffffffff169050816000806101000a81548173ffffffffffffffffffffffffffffffffffffffff021916908373ffffffffffffffffffffffffffffffffffffffff1602179055508173ffffffffffffffffffffffffffffffffffffffff168173ffffffffffffffffffffffffffffffffffffffff167f8be0079c531659141344cd1fd0a4f28419497f9722a3daafe3b4186f6b6457e060405160405180910390a35050565b6000813590506109d781610d2f565b92915050565b6000602082840312156109ef57600080fd5b60006109fd848285016109c8565b91505092915050565b610a0f81610bfd565b82525050565b6000610a22601883610bec565b9150610a2d82610c39565b602082019050919050565b6000610a45602683610bec565b9150610a5082610c62565b604082019050919050565b6000610a68602083610bec565b9150610a7382610cb1565b602082019050919050565b6000610a8b600083610be1565b9150610a9682610cda565b600082019050919050565b6000610aae601083610bec565b9150610ab982610cdd565b602082019050919050565b6000610ad1601f83610bec565b9150610adc82610d06565b602082019050919050565b610af081610c2f565b82525050565b6000610b0182610a7e565b9150819050919050565b6000602082019050610b206000830184610a06565b92915050565b60006020820190508181036000830152610b3f81610a15565b9050919050565b60006020820190508181036000830152610b5f81610a38565b9050919050565b60006020820190508181036000830152610b7f81610a5b565b9050919050565b60006020820190508181036000830152610b9f81610aa1565b9050919050565b60006020820190508181036000830152610bbf81610ac4565b9050919050565b6000602082019050610bdb6000830184610ae7565b92915050565b600081905092915050565b600082825260208201905092915050565b6000610c0882610c0f565b9050919050565b600073ffffffffffffffffffffffffffffffffffffffff82169050919050565b6000819050919050565b7f4572726f7220343031203a20556e617574686f72697a65640000000000000000600082015250565b7f4f776e61626c653a206e6577206f776e657220697320746865207a65726f206160008201527f6464726573730000000000000000000000000000000000000000000000000000602082015250565b7f4f776e61626c653a2063616c6c6572206973206e6f7420746865206f776e6572600082015250565b50565b7f5472616e73666572206661696c65642e00000000000000000000000000000000600082015250565b7f5265656e7472616e637947756172643a207265656e7472616e742063616c6c00600082015250565b610d3881610bfd565b8114610d4357600080fd5b5056fea26469706673582212200d4ce4c9366eb869c66e756a5b84014996f83dae7ee438a4194649db2f6af8b264736f6c63430008040033",
  "linkReferences": {},
  "deployedLinkReferences": {}
}