{
  "_format": "hh-sol-artifact-1",
  "contractName": "NFTMarket1155",
  "sourceName": "contracts/Erc115market.sol",
  "abi": [
    {
      "inputs": [
        {
          "internalType": "address",
          "name": "admin",
          "type": "address"
        }
      ],
      "stateMutability": "nonpayable",
      "type": "constructor"
    },
    {
      "anonymous": false,
      "inputs": [
        {
          "indexed": false,
          "internalType": "uint256",
          "name": "itemId",
          "type": "uint256"
        },
        {
          "indexed": true,
          "internalType": "address",
          "name": "nftContract",
          "type": "address"
        },
        {
          "indexed": true,
          "internalType": "address",
          "name": "owner",
          "type": "address"
        },
        {
          "indexed": true,
          "internalType": "uint256",
          "name": "tokenId",
          "type": "uint256"
        },
        {
          "indexed": false,
          "internalType": "uint256",
          "name": "price",
          "type": "uint256"
        },
        {
          "indexed": false,
          "internalType": "bool",
          "name": "sold",
          "type": "bool"
        }
      ],
      "name": "MarketItemCreated",
      "type": "event"
    },
    {
      "anonymous": false,
      "inputs": [
        {
          "indexed": true,
          "internalType": "address",
          "name": "acquirer",
          "type": "address"
        },
        {
          "indexed": true,
          "internalType": "uint256",
          "name": "tokenId",
          "type": "uint256"
        },
        {
          "indexed": false,
          "internalType": "uint256",
          "name": "timeGotten",
          "type": "uint256"
        }
      ],
      "name": "NftBought",
      "type": "event"
    },
    {
      "anonymous": false,
      "inputs": [
        {
          "indexed": true,
          "internalType": "address",
          "name": "from",
          "type": "address"
        },
        {
          "indexed": true,
          "internalType": "address",
          "name": "to",
          "type": "address"
        },
        {
          "indexed": true,
          "internalType": "uint256",
          "name": "tokenId",
          "type": "uint256"
        },
        {
          "indexed": false,
          "internalType": "uint256",
          "name": "timeGifted",
          "type": "uint256"
        }
      ],
      "name": "NftGifted",
      "type": "event"
    },
    {
      "anonymous": false,
      "inputs": [
        {
          "indexed": true,
          "internalType": "address",
          "name": "seller",
          "type": "address"
        },
        {
          "indexed": true,
          "internalType": "uint256",
          "name": "tokenId",
          "type": "uint256"
        },
        {
          "indexed": true,
          "internalType": "uint256",
          "name": "timeSold",
          "type": "uint256"
        }
      ],
      "name": "NftSold",
      "type": "event"
    },
    {
      "anonymous": false,
      "inputs": [
        {
          "indexed": true,
          "internalType": "address",
          "name": "previousOwner",
          "type": "address"
        },
        {
          "indexed": true,
          "internalType": "address",
          "name": "newOwner",
          "type": "address"
        }
      ],
      "name": "OwnershipTransferred",
      "type": "event"
    },
    {
      "anonymous": false,
      "inputs": [
        {
          "indexed": true,
          "internalType": "address",
          "name": "sender",
          "type": "address"
        },
        {
          "indexed": true,
          "internalType": "uint256",
          "name": "tokenId",
          "type": "uint256"
        },
        {
          "indexed": true,
          "internalType": "uint256",
          "name": "amount",
          "type": "uint256"
        }
      ],
      "name": "TryingToSellPrematureNFT",
      "type": "event"
    },
    {
      "inputs": [
        {
          "internalType": "uint256",
          "name": "itemId",
          "type": "uint256"
        }
      ],
      "name": "GetTimeBought",
      "outputs": [
        {
          "internalType": "uint256",
          "name": "",
          "type": "uint256"
        }
      ],
      "stateMutability": "view",
      "type": "function"
    },
    {
      "inputs": [
        {
          "internalType": "uint256",
          "name": "tokenId",
          "type": "uint256"
        }
      ],
      "name": "GetTotalSupply",
      "outputs": [
        {
          "internalType": "uint256",
          "name": "",
          "type": "uint256"
        }
      ],
      "stateMutability": "view",
      "type": "function"
    },
    {
      "inputs": [
        {
          "internalType": "address",
          "name": "nftContract",
          "type": "address"
        },
        {
          "internalType": "uint64",
          "name": "itemId",
          "type": "uint64"
        }
      ],
      "name": "buyNft",
      "outputs": [],
      "stateMutability": "payable",
      "type": "function"
    },
    {
      "inputs": [
        {
          "internalType": "address",
          "name": "nftContract",
          "type": "address"
        },
        {
          "internalType": "uint256",
          "name": "tokenId",
          "type": "uint256"
        },
        {
          "internalType": "uint256",
          "name": "amount",
          "type": "uint256"
        },
        {
          "internalType": "uint256",
          "name": "price",
          "type": "uint256"
        }
      ],
      "name": "createMarketItem",
      "outputs": [],
      "stateMutability": "nonpayable",
      "type": "function"
    },
    {
      "inputs": [],
      "name": "fetchMarketItems",
      "outputs": [
        {
          "components": [
            {
              "internalType": "uint256",
              "name": "itemId",
              "type": "uint256"
            },
            {
              "internalType": "uint256",
              "name": "tokenId",
              "type": "uint256"
            },
            {
              "internalType": "uint256",
              "name": "price",
              "type": "uint256"
            },
            {
              "internalType": "address",
              "name": "nftContract",
              "type": "address"
            },
            {
              "internalType": "address",
              "name": "owner",
              "type": "address"
            },
            {
              "internalType": "bool",
              "name": "sold",
              "type": "bool"
            }
          ],
          "internalType": "struct NFTMarket1155.MarketItem[]",
          "name": "",
          "type": "tuple[]"
        }
      ],
      "stateMutability": "view",
      "type": "function"
    },
    {
      "inputs": [
        {
          "internalType": "address",
          "name": "loggedInUser",
          "type": "address"
        }
      ],
      "name": "fetchMyNFTs",
      "outputs": [
        {
          "components": [
            {
              "internalType": "uint256",
              "name": "itemId",
              "type": "uint256"
            },
            {
              "internalType": "uint256",
              "name": "tokenId",
              "type": "uint256"
            },
            {
              "internalType": "uint256",
              "name": "price",
              "type": "uint256"
            },
            {
              "internalType": "address",
              "name": "nftContract",
              "type": "address"
            },
            {
              "internalType": "address",
              "name": "owner",
              "type": "address"
            },
            {
              "internalType": "bool",
              "name": "sold",
              "type": "bool"
            }
          ],
          "internalType": "struct NFTMarket1155.MarketItem[]",
          "name": "",
          "type": "tuple[]"
        }
      ],
      "stateMutability": "view",
      "type": "function"
    },
    {
      "inputs": [],
      "name": "getAllHolders",
      "outputs": [
        {
          "components": [
            {
              "internalType": "uint256",
              "name": "itemId",
              "type": "uint256"
            },
            {
              "internalType": "uint256",
              "name": "timeGotten",
              "type": "uint256"
            },
            {
              "internalType": "uint256",
              "name": "timeGivenOut",
              "type": "uint256"
            },
            {
              "internalType": "uint256",
              "name": "buyId",
              "type": "uint256"
            },
            {
              "internalType": "address payable",
              "name": "owner",
              "type": "address"
            },
            {
              "internalType": "bool",
              "name": "isActiveHolder",
              "type": "bool"
            }
          ],
          "internalType": "struct NFTMarket1155.Holder[]",
          "name": "",
          "type": "tuple[]"
        }
      ],
      "stateMutability": "view",
      "type": "function"
    },
    {
      "inputs": [],
      "name": "getBalance",
      "outputs": [
        {
          "internalType": "uint256",
          "name": "",
          "type": "uint256"
        }
      ],
      "stateMutability": "view",
      "type": "function"
    },
    {
      "inputs": [],
      "name": "getCurrentAdmin",
      "outputs": [
        {
          "internalType": "address",
          "name": "",
          "type": "address"
        }
      ],
      "stateMutability": "view",
      "type": "function"
    },
    {
      "inputs": [
        {
          "internalType": "address",
          "name": "nftContract",
          "type": "address"
        },
        {
          "internalType": "address",
          "name": "to",
          "type": "address"
        },
        {
          "internalType": "uint256",
          "name": "itemId",
          "type": "uint256"
        }
      ],
      "name": "giftNft",
      "outputs": [],
      "stateMutability": "nonpayable",
      "type": "function"
    },
    {
      "inputs": [
        {
          "internalType": "address",
          "name": "",
          "type": "address"
        },
        {
          "internalType": "address",
          "name": "",
          "type": "address"
        },
        {
          "internalType": "uint256[]",
          "name": "",
          "type": "uint256[]"
        },
        {
          "internalType": "uint256[]",
          "name": "",
          "type": "uint256[]"
        },
        {
          "internalType": "bytes",
          "name": "",
          "type": "bytes"
        }
      ],
      "name": "onERC1155BatchReceived",
      "outputs": [
        {
          "internalType": "bytes4",
          "name": "",
          "type": "bytes4"
        }
      ],
      "stateMutability": "nonpayable",
      "type": "function"
    },
    {
      "inputs": [
        {
          "internalType": "address",
          "name": "",
          "type": "address"
        },
        {
          "internalType": "address",
          "name": "",
          "type": "address"
        },
        {
          "internalType": "uint256",
          "name": "",
          "type": "uint256"
        },
        {
          "internalType": "uint256",
          "name": "",
          "type": "uint256"
        },
        {
          "internalType": "bytes",
          "name": "",
          "type": "bytes"
        }
      ],
      "name": "onERC1155Received",
      "outputs": [
        {
          "internalType": "bytes4",
          "name": "",
          "type": "bytes4"
        }
      ],
      "stateMutability": "nonpayable",
      "type": "function"
    },
    {
      "inputs": [],
      "name": "owner",
      "outputs": [
        {
          "internalType": "address",
          "name": "",
          "type": "address"
        }
      ],
      "stateMutability": "view",
      "type": "function"
    },
    {
      "inputs": [],
      "name": "renounceOwnership",
      "outputs": [],
      "stateMutability": "nonpayable",
      "type": "function"
    },
    {
      "inputs": [
        {
          "internalType": "uint256",
          "name": "itemId",
          "type": "uint256"
        },
        {
          "internalType": "address",
          "name": "nftContract",
          "type": "address"
        },
        {
          "internalType": "uint256",
          "name": "price",
          "type": "uint256"
        }
      ],
      "name": "sellNft",
      "outputs": [],
      "stateMutability": "nonpayable",
      "type": "function"
    },
    {
      "inputs": [
        {
          "internalType": "address",
          "name": "admin",
          "type": "address"
        }
      ],
      "name": "setAdmin",
      "outputs": [],
      "stateMutability": "nonpayable",
      "type": "function"
    },
    {
      "inputs": [
        {
          "internalType": "bytes4",
          "name": "interfaceId",
          "type": "bytes4"
        }
      ],
      "name": "supportsInterface",
      "outputs": [
        {
          "internalType": "bool",
          "name": "",
          "type": "bool"
        }
      ],
      "stateMutability": "view",
      "type": "function"
    },
    {
      "inputs": [
        {
          "internalType": "address",
          "name": "newOwner",
          "type": "address"
        }
      ],
      "name": "transferOwnership",
      "outputs": [],
      "stateMutability": "nonpayable",
      "type": "function"
    },
    {
      "inputs": [],
      "name": "withdrawMoney",
      "outputs": [],
      "stateMutability": "nonpayable",
      "type": "function"
    },
    {
      "inputs": [
        {
          "internalType": "address",
          "name": "_to",
          "type": "address"
        }
      ],
      "name": "withdrawMoneyTo",
      "outputs": [],
      "stateMutability": "nonpayable",
      "type": "function"
    }
  ],
  "bytecode": "0x60806040523480156200001157600080fd5b5060405162003da938038062003da9833981810160405281019062000037919062000189565b620000576200004b620000a660201b60201c565b620000ae60201b60201c565b6001808190555080600260006101000a81548173ffffffffffffffffffffffffffffffffffffffff021916908373ffffffffffffffffffffffffffffffffffffffff1602179055505062000203565b600033905090565b60008060009054906101000a900473ffffffffffffffffffffffffffffffffffffffff169050816000806101000a81548173ffffffffffffffffffffffffffffffffffffffff021916908373ffffffffffffffffffffffffffffffffffffffff1602179055508173ffffffffffffffffffffffffffffffffffffffff168173ffffffffffffffffffffffffffffffffffffffff167f8be0079c531659141344cd1fd0a4f28419497f9722a3daafe3b4186f6b6457e060405160405180910390a35050565b6000815190506200018381620001e9565b92915050565b6000602082840312156200019c57600080fd5b6000620001ac8482850162000172565b91505092915050565b6000620001c282620001c9565b9050919050565b600073ffffffffffffffffffffffffffffffffffffffff82169050919050565b620001f481620001b5565b81146200020057600080fd5b50565b613b9680620002136000396000f3fe60806040526004361061011f5760003560e01c8063599ba234116100a05780638da5cb5b116100645780638da5cb5b146103c4578063ac446002146103ef578063bc197c8114610406578063f23a6e6114610443578063f2fde38b146104805761011f565b8063599ba23414610307578063643d430c146103305780636c2824601461035b578063704b6c0214610384578063715018a6146103ad5761011f565b806312065fe0116100e757806312065fe01461021b5780631d92f25e1461024657806334345f531461027157806335a98136146102ae5780635385659d146102ca5761011f565b806301ffc9a71461012457806308ca2b65146101615780630f08efe01461018a5780630ff8d8a5146101b557806310afee1e146101de575b600080fd5b34801561013057600080fd5b5061014b60048036038101906101469190612db9565b6104a9565b60405161015891906133a1565b60405180910390f35b34801561016d57600080fd5b5061018860048036038101906101839190612e0b565b610523565b005b34801561019657600080fd5b5061019f6108e3565b6040516101ac919061337f565b60405180910390f35b3480156101c157600080fd5b506101dc60048036038101906101d79190612b54565b610b95565b005b3480156101ea57600080fd5b5061020560048036038101906102009190612b54565b610d29565b604051610212919061337f565b60405180910390f35b34801561022757600080fd5b50610230611068565b60405161023d9190613519565b60405180910390f35b34801561025257600080fd5b5061025b61113d565b604051610268919061335d565b60405180910390f35b34801561027d57600080fd5b5061029860048036038101906102939190612de2565b6113d7565b6040516102a59190613519565b60405180910390f35b6102c860048036038101906102c39190612d7d565b6113f4565b005b3480156102d657600080fd5b506102f160048036038101906102ec9190612de2565b611809565b6040516102fe9190613519565b60405180910390f35b34801561031357600080fd5b5061032e60048036038101906103299190612d1a565b6118cc565b005b34801561033c57600080fd5b50610345611d0e565b6040516103529190613292565b60405180910390f35b34801561036757600080fd5b50610382600480360381019061037d9190612c3c565b611e05565b005b34801561039057600080fd5b506103ab60048036038101906103a69190612b54565b6121c8565b005b3480156103b957600080fd5b506103c2612288565b005b3480156103d057600080fd5b506103d9612310565b6040516103e69190613292565b60405180910390f35b3480156103fb57600080fd5b50610404612339565b005b34801561041257600080fd5b5061042d60048036038101906104289190612b7d565b61251d565b60405161043a91906133bc565b60405180910390f35b34801561044f57600080fd5b5061046a60048036038101906104659190612c8b565b612532565b60405161047791906133bc565b60405180910390f35b34801561048c57600080fd5b506104a760048036038101906104a29190612b54565b612547565b005b60007f4e2312e0000000000000000000000000000000000000000000000000000000007bffffffffffffffffffffffffffffffffffffffffffffffffffffffff1916827bffffffffffffffffffffffffffffffffffffffffffffffffffffffff1916148061051c575061051b8261263f565b5b9050919050565b60026001541415610569576040517f08c379a0000000000000000000000000000000000000000000000000000000008152600401610560906134d9565b60405180910390fd5b6002600181905550600060066000858152602001908152602001600020600101549050600061059860056126a9565b90503373ffffffffffffffffffffffffffffffffffffffff166006600087815260200190815260200160002060040160009054906101000a900473ffffffffffffffffffffffffffffffffffffffff1673ffffffffffffffffffffffffffffffffffffffff161461063e576040517f08c379a0000000000000000000000000000000000000000000000000000000008152600401610635906134b9565b60405180910390fd5b8373ffffffffffffffffffffffffffffffffffffffff1663f242432a33308560016040518563ffffffff1660e01b815260040161067e94939291906132ad565b600060405180830381600087803b15801561069857600080fd5b505af11580156106ac573d6000803e3d6000fd5b5050505060005b818110156107b95785600760008381526020019081526020016000206000015414801561070057506007600082815260200190815260200160002060040160149054906101000a900460ff165b156107a65742600760008381526020019081526020016000206002018190555060006007600083815260200190815260200160002060040160146101000a81548160ff02191690831515021790555060006007600083815260200190815260200160002060040160006101000a81548173ffffffffffffffffffffffffffffffffffffffff021916908373ffffffffffffffffffffffffffffffffffffffff1602179055505b80806107b190613840565b9150506106b3565b5060006006600087815260200190815260200160002060040160146101000a81548160ff02191690831515021790555060006006600087815260200190815260200160002060040160006101000a81548173ffffffffffffffffffffffffffffffffffffffff021916908373ffffffffffffffffffffffffffffffffffffffff16021790555061084960056126b7565b3373ffffffffffffffffffffffffffffffffffffffff166108fc849081150290604051600060405180830381858888f1935050505015801561088f573d6000803e3d6000fd5b5042823373ffffffffffffffffffffffffffffffffffffffff167f9b9577bfad2e67a8df72aa8f54ee39ff58080e7c899e842302b6ec46d519919760405160405180910390a4505060018081905550505050565b60606000600354905060006108f860046126a9565b60035461090591906136ed565b90506000808267ffffffffffffffff81111561094a577f4e487b7100000000000000000000000000000000000000000000000000000000600052604160045260246000fd5b60405190808252806020026020018201604052801561098357816020015b610970612950565b8152602001906001900390816109685790505b50905060005b84811015610b8a57600073ffffffffffffffffffffffffffffffffffffffff16600660006001846109ba9190613697565b815260200190815260200160002060040160009054906101000a900473ffffffffffffffffffffffffffffffffffffffff1673ffffffffffffffffffffffffffffffffffffffff161415610b77576000600182610a179190613697565b90506000600660008381526020019081526020016000209050806040518060c00160405290816000820154815260200160018201548152602001600282015481526020016003820160009054906101000a900473ffffffffffffffffffffffffffffffffffffffff1673ffffffffffffffffffffffffffffffffffffffff1673ffffffffffffffffffffffffffffffffffffffff1681526020016004820160009054906101000a900473ffffffffffffffffffffffffffffffffffffffff1673ffffffffffffffffffffffffffffffffffffffff1673ffffffffffffffffffffffffffffffffffffffff1681526020016004820160149054906101000a900460ff161515151581525050848681518110610b5a577f4e487b7100000000000000000000000000000000000000000000000000000000600052603260045260246000fd5b6020026020010181905250600185610b729190613697565b945050505b8080610b8290613840565b915050610989565b508094505050505090565b610b9d612713565b73ffffffffffffffffffffffffffffffffffffffff16610bbb612310565b73ffffffffffffffffffffffffffffffffffffffff1614610c11576040517f08c379a0000000000000000000000000000000000000000000000000000000008152600401610c0890613479565b60405180910390fd5b60026001541415610c57576040517f08c379a0000000000000000000000000000000000000000000000000000000008152600401610c4e906134d9565b60405180910390fd5b600260018190555060008190506000610c6e611068565b905060008273ffffffffffffffffffffffffffffffffffffffff1682604051610c969061327d565b60006040518083038185875af1925050503d8060008114610cd3576040519150601f19603f3d011682016040523d82523d6000602084013e610cd8565b606091505b5050905080610d1c576040517f08c379a0000000000000000000000000000000000000000000000000000000008152600401610d1390613499565b60405180910390fd5b5050506001808190555050565b60606000600354905060008060005b83811015610dd9578573ffffffffffffffffffffffffffffffffffffffff1660066000600184610d689190613697565b815260200190815260200160002060040160009054906101000a900473ffffffffffffffffffffffffffffffffffffffff1673ffffffffffffffffffffffffffffffffffffffff161415610dc657600183610dc39190613697565b92505b8080610dd190613840565b915050610d38565b5060008267ffffffffffffffff811115610e1c577f4e487b7100000000000000000000000000000000000000000000000000000000600052604160045260246000fd5b604051908082528060200260200182016040528015610e5557816020015b610e42612950565b815260200190600190039081610e3a5790505b50905060005b8481101561105b578673ffffffffffffffffffffffffffffffffffffffff1660066000600184610e8b9190613697565b815260200190815260200160002060040160009054906101000a900473ffffffffffffffffffffffffffffffffffffffff1673ffffffffffffffffffffffffffffffffffffffff161415611048576000600182610ee89190613697565b90506000600660008381526020019081526020016000209050806040518060c00160405290816000820154815260200160018201548152602001600282015481526020016003820160009054906101000a900473ffffffffffffffffffffffffffffffffffffffff1673ffffffffffffffffffffffffffffffffffffffff1673ffffffffffffffffffffffffffffffffffffffff1681526020016004820160009054906101000a900473ffffffffffffffffffffffffffffffffffffffff1673ffffffffffffffffffffffffffffffffffffffff1673ffffffffffffffffffffffffffffffffffffffff1681526020016004820160149054906101000a900460ff16151515158152505084868151811061102b577f4e487b7100000000000000000000000000000000000000000000000000000000600052603260045260246000fd5b60200260200101819052506001856110439190613697565b945050505b808061105390613840565b915050610e5b565b5080945050505050919050565b6000600260009054906101000a900473ffffffffffffffffffffffffffffffffffffffff1673ffffffffffffffffffffffffffffffffffffffff163373ffffffffffffffffffffffffffffffffffffffff1614806110f857506110c9612310565b73ffffffffffffffffffffffffffffffffffffffff163373ffffffffffffffffffffffffffffffffffffffff16145b611137576040517f08c379a000000000000000000000000000000000000000000000000000000000815260040161112e906133f9565b60405180910390fd5b47905090565b6060600260009054906101000a900473ffffffffffffffffffffffffffffffffffffffff1673ffffffffffffffffffffffffffffffffffffffff163373ffffffffffffffffffffffffffffffffffffffff1614806111cd575061119e612310565b73ffffffffffffffffffffffffffffffffffffffff163373ffffffffffffffffffffffffffffffffffffffff16145b61120c576040517f08c379a0000000000000000000000000000000000000000000000000000000008152600401611203906133f9565b60405180910390fd5b600061121860056126a9565b90506000808267ffffffffffffffff81111561125d577f4e487b7100000000000000000000000000000000000000000000000000000000600052604160045260246000fd5b60405190808252806020026020018201604052801561129657816020015b6112836129b4565b81526020019060019003908161127b5790505b50905060005b838111156113cd57600760006001836112b59190613697565b81526020019081526020016000206040518060c0016040529081600082015481526020016001820154815260200160028201548152602001600382015481526020016004820160009054906101000a900473ffffffffffffffffffffffffffffffffffffffff1673ffffffffffffffffffffffffffffffffffffffff1673ffffffffffffffffffffffffffffffffffffffff1681526020016004820160149054906101000a900460ff1615151515815250508284815181106113a0577f4e487b7100000000000000000000000000000000000000000000000000000000600052603260045260246000fd5b60200260200101819052506001836113b89190613697565b925080806113c590613840565b91505061129c565b5080935050505090565b600060086000838152602001908152602001600020549050919050565b6002600154141561143a576040517f08c379a0000000000000000000000000000000000000000000000000000000008152600401611431906134d9565b60405180910390fd5b60026001819055506000600660008367ffffffffffffffff1681526020019081526020016000206002015490506000600660008467ffffffffffffffff1681526020019081526020016000206001015490508134146114ce576040517f08c379a00000000000000000000000000000000000000000000000000000000081526004016114c590613459565b60405180910390fd5b8373ffffffffffffffffffffffffffffffffffffffff1663f242432a30338460016040518563ffffffff1660e01b815260040161150e94939291906132ad565b600060405180830381600087803b15801561152857600080fd5b505af115801561153c573d6000803e3d6000fd5b505050506001600660008567ffffffffffffffff16815260200190815260200160002060040160146101000a81548160ff02191690831515021790555033600660008567ffffffffffffffff16815260200190815260200160002060040160006101000a81548173ffffffffffffffffffffffffffffffffffffffff021916908373ffffffffffffffffffffffffffffffffffffffff1602179055506115e2600561271b565b60006115ee60056126a9565b90506040518060c001604052808567ffffffffffffffff168152602001428152602001600081526020018281526020013373ffffffffffffffffffffffffffffffffffffffff16815260200160011515815250600760008381526020019081526020016000206000820151816000015560208201518160010155604082015181600201556060820151816003015560808201518160040160006101000a81548173ffffffffffffffffffffffffffffffffffffffff021916908373ffffffffffffffffffffffffffffffffffffffff16021790555060a08201518160040160146101000a81548160ff0219169083151502179055509050506000600760008381526020019081526020016000206040518060c0016040529081600082015481526020016001820154815260200160028201548152602001600382015481526020016004820160009054906101000a900473ffffffffffffffffffffffffffffffffffffffff1673ffffffffffffffffffffffffffffffffffffffff1673ffffffffffffffffffffffffffffffffffffffff1681526020016004820160149054906101000a900460ff16151515158152505090508467ffffffffffffffff163373ffffffffffffffffffffffffffffffffffffffff167f6cde4ed53ecc43e1126a8b2b9e8ad2f4ec18d9f7834636ed981cfa61960be370426040516117f29190613519565b60405180910390a350505050600180819055505050565b60008061181660056126a9565b905060005b818110156118c45783600760006001846118359190613697565b8152602001908152602001600020600001541480156118805750600760006001836118609190613697565b815260200190815260200160002060040160149054906101000a900460ff165b156118b157600760006001836118969190613697565b815260200190815260200160002060010154925050506118c7565b80806118bc90613840565b91505061181b565b50505b919050565b600260009054906101000a900473ffffffffffffffffffffffffffffffffffffffff1673ffffffffffffffffffffffffffffffffffffffff163373ffffffffffffffffffffffffffffffffffffffff16148061195a575061192b612310565b73ffffffffffffffffffffffffffffffffffffffff163373ffffffffffffffffffffffffffffffffffffffff16145b611999576040517f08c379a0000000000000000000000000000000000000000000000000000000008152600401611990906133f9565b60405180910390fd5b600260015414156119df576040517f08c379a00000000000000000000000000000000000000000000000000000000081526004016119d6906134d9565b60405180910390fd5b600260018190555060008111611a2a576040517f08c379a0000000000000000000000000000000000000000000000000000000008152600401611a21906134f9565b60405180910390fd5b6000600354905060005b83811015611c1657600182611a499190613697565b915060008290506040518060c001604052808281526020018781526020018581526020018873ffffffffffffffffffffffffffffffffffffffff168152602001600073ffffffffffffffffffffffffffffffffffffffff168152602001600015158152506006600083815260200190815260200160002060008201518160000155602082015181600101556040820151816002015560608201518160030160006101000a81548173ffffffffffffffffffffffffffffffffffffffff021916908373ffffffffffffffffffffffffffffffffffffffff16021790555060808201518160040160006101000a81548173ffffffffffffffffffffffffffffffffffffffff021916908373ffffffffffffffffffffffffffffffffffffffff16021790555060a08201518160040160146101000a81548160ff0219169083151502179055509050508260038190555085600073ffffffffffffffffffffffffffffffffffffffff168873ffffffffffffffffffffffffffffffffffffffff167f04725f44278a0475942ea64180dcfe5b01f4834fa5ec4ef7249caa03eadb65b484886000604051611bfa93929190613534565b60405180910390a4508080611c0e90613840565b915050611a34565b50826008600086815260200190815260200160002081905550600060086000868152602001908152602001600020549050611c856040518060400160405280600481526020017f2e2e2e2e00000000000000000000000000000000000000000000000000000000815250612731565b611c8e816127ca565b8573ffffffffffffffffffffffffffffffffffffffff1663f242432a333088886040518563ffffffff1660e01b8152600401611ccd9493929190613305565b600060405180830381600087803b158015611ce757600080fd5b505af1158015611cfb573d6000803e3d6000fd5b5050505050506001808190555050505050565b6000600260009054906101000a900473ffffffffffffffffffffffffffffffffffffffff1673ffffffffffffffffffffffffffffffffffffffff163373ffffffffffffffffffffffffffffffffffffffff161480611d9e5750611d6f612310565b73ffffffffffffffffffffffffffffffffffffffff163373ffffffffffffffffffffffffffffffffffffffff16145b611ddd576040517f08c379a0000000000000000000000000000000000000000000000000000000008152600401611dd4906133f9565b60405180910390fd5b600260009054906101000a900473ffffffffffffffffffffffffffffffffffffffff16905090565b60026001541415611e4b576040517f08c379a0000000000000000000000000000000000000000000000000000000008152600401611e42906134d9565b60405180910390fd5b60026001819055503373ffffffffffffffffffffffffffffffffffffffff166006600083815260200190815260200160002060040160009054906101000a900473ffffffffffffffffffffffffffffffffffffffff1673ffffffffffffffffffffffffffffffffffffffff1614611ef7576040517f08c379a0000000000000000000000000000000000000000000000000000000008152600401611eee906134b9565b60405180910390fd5b6000611f0360056126a9565b905060006006600084815260200190815260200160002060010154905060006006600085815260200190815260200160002060040160009054906101000a900473ffffffffffffffffffffffffffffffffffffffff1690508573ffffffffffffffffffffffffffffffffffffffff1663f242432a82878560016040518563ffffffff1660e01b8152600401611f9b94939291906132ad565b600060405180830381600087803b158015611fb557600080fd5b505af1158015611fc9573d6000803e3d6000fd5b50505050846006600086815260200190815260200160002060040160006101000a81548173ffffffffffffffffffffffffffffffffffffffff021916908373ffffffffffffffffffffffffffffffffffffffff16021790555060005b8381101561215257846007600060018461203f9190613697565b81526020019081526020016000206000015414801561208a57506007600060018361206a9190613697565b815260200190815260200160002060040160149054906101000a900460ff165b1561213f5742600760006001846120a19190613697565b81526020019081526020016000206001018190555042600760006001846120c89190613697565b81526020019081526020016000206002018190555085600760006001846120ef9190613697565b815260200190815260200160002060040160006101000a81548173ffffffffffffffffffffffffffffffffffffffff021916908373ffffffffffffffffffffffffffffffffffffffff1602179055505b808061214a90613840565b915050612025565b50818573ffffffffffffffffffffffffffffffffffffffff163373ffffffffffffffffffffffffffffffffffffffff167f03e53c8c63b3ece939d30e7ead3a0a6941a417712c86ac711b3b2d72d8f182a7426040516121b19190613519565b60405180910390a450505060018081905550505050565b6121d0612713565b73ffffffffffffffffffffffffffffffffffffffff166121ee612310565b73ffffffffffffffffffffffffffffffffffffffff1614612244576040517f08c379a000000000000000000000000000000000000000000000000000000000815260040161223b90613479565b60405180910390fd5b80600260006101000a81548173ffffffffffffffffffffffffffffffffffffffff021916908373ffffffffffffffffffffffffffffffffffffffff16021790555050565b612290612713565b73ffffffffffffffffffffffffffffffffffffffff166122ae612310565b73ffffffffffffffffffffffffffffffffffffffff1614612304576040517f08c379a00000000000000000000000000000000000000000000000000000000081526004016122fb90613479565b60405180910390fd5b61230e6000612863565b565b60008060009054906101000a900473ffffffffffffffffffffffffffffffffffffffff16905090565b600260009054906101000a900473ffffffffffffffffffffffffffffffffffffffff1673ffffffffffffffffffffffffffffffffffffffff163373ffffffffffffffffffffffffffffffffffffffff1614806123c75750612398612310565b73ffffffffffffffffffffffffffffffffffffffff163373ffffffffffffffffffffffffffffffffffffffff16145b612406576040517f08c379a00000000000000000000000000000000000000000000000000000000081526004016123fd906133f9565b60405180910390fd5b6002600154141561244c576040517f08c379a0000000000000000000000000000000000000000000000000000000008152600401612443906134d9565b60405180910390fd5b600260018190555060003390506000612463611068565b905060008273ffffffffffffffffffffffffffffffffffffffff168260405161248b9061327d565b60006040518083038185875af1925050503d80600081146124c8576040519150601f19603f3d011682016040523d82523d6000602084013e6124cd565b606091505b5050905080612511576040517f08c379a000000000000000000000000000000000000000000000000000000000815260040161250890613499565b60405180910390fd5b50505060018081905550565b600063bc197c8160e01b905095945050505050565b600063f23a6e6160e01b905095945050505050565b61254f612713565b73ffffffffffffffffffffffffffffffffffffffff1661256d612310565b73ffffffffffffffffffffffffffffffffffffffff16146125c3576040517f08c379a00000000000000000000000000000000000000000000000000000000081526004016125ba90613479565b60405180910390fd5b600073ffffffffffffffffffffffffffffffffffffffff168173ffffffffffffffffffffffffffffffffffffffff161415612633576040517f08c379a000000000000000000000000000000000000000000000000000000000815260040161262a90613439565b60405180910390fd5b61263c81612863565b50565b60007f01ffc9a7000000000000000000000000000000000000000000000000000000007bffffffffffffffffffffffffffffffffffffffffffffffffffffffff1916827bffffffffffffffffffffffffffffffffffffffffffffffffffffffff1916149050919050565b600081600001549050919050565b60008160000154905060008111612703576040517f08c379a00000000000000000000000000000000000000000000000000000000081526004016126fa90613419565b60405180910390fd5b6001810382600001819055505050565b600033905090565b6001816000016000828254019250508190555050565b6127c78160405160240161274591906133d7565b6040516020818303038152906040527f41304fac000000000000000000000000000000000000000000000000000000007bffffffffffffffffffffffffffffffffffffffffffffffffffffffff19166020820180517bffffffffffffffffffffffffffffffffffffffffffffffffffffffff8381831617835250505050612927565b50565b612860816040516024016127de9190613519565b6040516020818303038152906040527ff5b1bba9000000000000000000000000000000000000000000000000000000007bffffffffffffffffffffffffffffffffffffffffffffffffffffffff19166020820180517bffffffffffffffffffffffffffffffffffffffffffffffffffffffff8381831617835250505050612927565b50565b60008060009054906101000a900473ffffffffffffffffffffffffffffffffffffffff169050816000806101000a81548173ffffffffffffffffffffffffffffffffffffffff021916908373ffffffffffffffffffffffffffffffffffffffff1602179055508173ffffffffffffffffffffffffffffffffffffffff168173ffffffffffffffffffffffffffffffffffffffff167f8be0079c531659141344cd1fd0a4f28419497f9722a3daafe3b4186f6b6457e060405160405180910390a35050565b60008151905060006a636f6e736f6c652e6c6f679050602083016000808483855afa5050505050565b6040518060c00160405280600081526020016000815260200160008152602001600073ffffffffffffffffffffffffffffffffffffffff168152602001600073ffffffffffffffffffffffffffffffffffffffff1681526020016000151581525090565b6040518060c0016040528060008152602001600081526020016000815260200160008152602001600073ffffffffffffffffffffffffffffffffffffffff1681526020016000151581525090565b6000612a15612a1084613590565b61356b565b90508083825260208201905082856020860282011115612a3457600080fd5b60005b85811015612a645781612a4a8882612b2a565b845260208401935060208301925050600181019050612a37565b5050509392505050565b6000612a81612a7c846135bc565b61356b565b905082815260208101848484011115612a9957600080fd5b612aa48482856137cd565b509392505050565b600081359050612abb81613b04565b92915050565b600082601f830112612ad257600080fd5b8135612ae2848260208601612a02565b91505092915050565b600081359050612afa81613b1b565b92915050565b600082601f830112612b1157600080fd5b8135612b21848260208601612a6e565b91505092915050565b600081359050612b3981613b32565b92915050565b600081359050612b4e81613b49565b92915050565b600060208284031215612b6657600080fd5b6000612b7484828501612aac565b91505092915050565b600080600080600060a08688031215612b9557600080fd5b6000612ba388828901612aac565b9550506020612bb488828901612aac565b945050604086013567ffffffffffffffff811115612bd157600080fd5b612bdd88828901612ac1565b935050606086013567ffffffffffffffff811115612bfa57600080fd5b612c0688828901612ac1565b925050608086013567ffffffffffffffff811115612c2357600080fd5b612c2f88828901612b00565b9150509295509295909350565b600080600060608486031215612c5157600080fd5b6000612c5f86828701612aac565b9350506020612c7086828701612aac565b9250506040612c8186828701612b2a565b9150509250925092565b600080600080600060a08688031215612ca357600080fd5b6000612cb188828901612aac565b9550506020612cc288828901612aac565b9450506040612cd388828901612b2a565b9350506060612ce488828901612b2a565b925050608086013567ffffffffffffffff811115612d0157600080fd5b612d0d88828901612b00565b9150509295509295909350565b60008060008060808587031215612d3057600080fd5b6000612d3e87828801612aac565b9450506020612d4f87828801612b2a565b9350506040612d6087828801612b2a565b9250506060612d7187828801612b2a565b91505092959194509250565b60008060408385031215612d9057600080fd5b6000612d9e85828601612aac565b9250506020612daf85828601612b3f565b9150509250929050565b600060208284031215612dcb57600080fd5b6000612dd984828501612aeb565b91505092915050565b600060208284031215612df457600080fd5b6000612e0284828501612b2a565b91505092915050565b600080600060608486031215612e2057600080fd5b6000612e2e86828701612b2a565b9350506020612e3f86828701612aac565b9250506040612e5086828701612b2a565b9150509250925092565b6000612e668383613169565b60c08301905092915050565b6000612e7e83836131e4565b60c08301905092915050565b612e9381613733565b82525050565b612ea281613721565b82525050565b612eb181613721565b82525050565b6000612ec28261360d565b612ecc8185613648565b9350612ed7836135ed565b8060005b83811015612f08578151612eef8882612e5a565b9750612efa8361362e565b925050600181019050612edb565b5085935050505092915050565b6000612f2082613618565b612f2a8185613659565b9350612f35836135fd565b8060005b83811015612f66578151612f4d8882612e72565b9750612f588361363b565b925050600181019050612f39565b5085935050505092915050565b612f7c81613745565b82525050565b612f8b81613745565b82525050565b612f9a81613751565b82525050565b612fa9816137bb565b82525050565b6000612fba82613623565b612fc48185613686565b9350612fd48185602086016137dc565b612fdd816138e7565b840191505092915050565b6000612ff5601883613686565b9150613000826138f8565b602082019050919050565b6000613018601b83613686565b915061302382613921565b602082019050919050565b600061303b602683613686565b91506130468261394a565b604082019050919050565b600061305e604083613686565b915061306982613999565b604082019050919050565b6000613081602083613686565b915061308c826139e8565b602082019050919050565b60006130a460008361366a565b91506130af82613a11565b600082019050919050565b60006130c760008361367b565b91506130d282613a11565b600082019050919050565b60006130ea601083613686565b91506130f582613a14565b602082019050919050565b600061310d604483613686565b915061311882613a3d565b606082019050919050565b6000613130601f83613686565b915061313b82613ab2565b602082019050919050565b6000613153601c83613686565b915061315e82613adb565b602082019050919050565b60c08201600082015161317f600085018261325f565b506020820151613192602085018261325f565b5060408201516131a5604085018261325f565b5060608201516131b8606085018261325f565b5060808201516131cb6080850182612e8a565b5060a08201516131de60a0850182612f73565b50505050565b60c0820160008201516131fa600085018261325f565b50602082015161320d602085018261325f565b506040820151613220604085018261325f565b5060608201516132336060850182612e99565b5060808201516132466080850182612e99565b5060a082015161325960a0850182612f73565b50505050565b6132688161379d565b82525050565b6132778161379d565b82525050565b6000613288826130ba565b9150819050919050565b60006020820190506132a76000830184612ea8565b92915050565b600060a0820190506132c26000830187612ea8565b6132cf6020830186612ea8565b6132dc604083018561326e565b6132e96060830184612fa0565b81810360808301526132fa81613097565b905095945050505050565b600060a08201905061331a6000830187612ea8565b6133276020830186612ea8565b613334604083018561326e565b613341606083018461326e565b818103608083015261335281613097565b905095945050505050565b600060208201905081810360008301526133778184612eb7565b905092915050565b600060208201905081810360008301526133998184612f15565b905092915050565b60006020820190506133b66000830184612f82565b92915050565b60006020820190506133d16000830184612f91565b92915050565b600060208201905081810360008301526133f18184612faf565b905092915050565b6000602082019050818103600083015261341281612fe8565b9050919050565b600060208201905081810360008301526134328161300b565b9050919050565b600060208201905081810360008301526134528161302e565b9050919050565b6000602082019050818103600083015261347281613051565b9050919050565b6000602082019050818103600083015261349281613074565b9050919050565b600060208201905081810360008301526134b2816130dd565b9050919050565b600060208201905081810360008301526134d281613100565b9050919050565b600060208201905081810360008301526134f281613123565b9050919050565b6000602082019050818103600083015261351281613146565b9050919050565b600060208201905061352e600083018461326e565b92915050565b6000606082019050613549600083018661326e565b613556602083018561326e565b6135636040830184612f82565b949350505050565b6000613575613586565b9050613581828261380f565b919050565b6000604051905090565b600067ffffffffffffffff8211156135ab576135aa6138b8565b5b602082029050602081019050919050565b600067ffffffffffffffff8211156135d7576135d66138b8565b5b6135e0826138e7565b9050602081019050919050565b6000819050602082019050919050565b6000819050602082019050919050565b600081519050919050565b600081519050919050565b600081519050919050565b6000602082019050919050565b6000602082019050919050565b600082825260208201905092915050565b600082825260208201905092915050565b600082825260208201905092915050565b600081905092915050565b600082825260208201905092915050565b60006136a28261379d565b91506136ad8361379d565b9250827fffffffffffffffffffffffffffffffffffffffffffffffffffffffffffffffff038211156136e2576136e1613889565b5b828201905092915050565b60006136f88261379d565b91506137038361379d565b92508282101561371657613715613889565b5b828203905092915050565b600061372c8261377d565b9050919050565b600061373e8261377d565b9050919050565b60008115159050919050565b60007fffffffff0000000000000000000000000000000000000000000000000000000082169050919050565b600073ffffffffffffffffffffffffffffffffffffffff82169050919050565b6000819050919050565b600067ffffffffffffffff82169050919050565b60006137c68261379d565b9050919050565b82818337600083830152505050565b60005b838110156137fa5780820151818401526020810190506137df565b83811115613809576000848401525b50505050565b613818826138e7565b810181811067ffffffffffffffff82111715613837576138366138b8565b5b80604052505050565b600061384b8261379d565b91507fffffffffffffffffffffffffffffffffffffffffffffffffffffffffffffffff82141561387e5761387d613889565b5b600182019050919050565b7f4e487b7100000000000000000000000000000000000000000000000000000000600052601160045260246000fd5b7f4e487b7100000000000000000000000000000000000000000000000000000000600052604160045260246000fd5b6000601f19601f8301169050919050565b7f4572726f7220343031203a20556e617574686f72697a65640000000000000000600082015250565b7f436f756e7465723a2064656372656d656e74206f766572666c6f770000000000600082015250565b7f4f776e61626c653a206e6577206f776e657220697320746865207a65726f206160008201527f6464726573730000000000000000000000000000000000000000000000000000602082015250565b7f506c65617365207375626d6974207468652061736b696e67207072696365206960008201527f6e206f7264657220746f20636f6d706c65746520746865207075726368617365602082015250565b7f4f776e61626c653a2063616c6c6572206973206e6f7420746865206f776e6572600082015250565b50565b7f5472616e73666572206661696c65642e00000000000000000000000000000000600082015250565b7f596f7520646f206e6f742068617665207065726d697373696f6e20746f20476960008201527f66742074686973204e465420617320796f7520617265206e6f7420746865206f60208201527f776e657200000000000000000000000000000000000000000000000000000000604082015250565b7f5265656e7472616e637947756172643a207265656e7472616e742063616c6c00600082015250565b7f5072696365206d757374206265206174206c6561737420312077656900000000600082015250565b613b0d81613721565b8114613b1857600080fd5b50565b613b2481613751565b8114613b2f57600080fd5b50565b613b3b8161379d565b8114613b4657600080fd5b50565b613b52816137a7565b8114613b5d57600080fd5b5056fea2646970667358221220dbf3c1b4b23b9b7b37d7fd6f4ed4c10c75d9b27af0133be333bc2b007bc5863364736f6c63430008040033",
  "linkReferences": {},
  "deployedLinkReferences": {}
}