{
  "_format": "hh-sol-artifact-1",
  "contractName": "NFTMarket1155",
  "sourceName": "contracts/Erc115market.sol",
  "abi": [
    {
      "inputs": [
        {
          "internalType": "address",
          "name": "admin",
          "type": "address"
        }
      ],
      "stateMutability": "nonpayable",
      "type": "constructor"
    },
    {
      "anonymous": false,
      "inputs": [
        {
          "indexed": false,
          "internalType": "uint256",
          "name": "itemId",
          "type": "uint256"
        },
        {
          "indexed": true,
          "internalType": "address",
          "name": "nftContract",
          "type": "address"
        },
        {
          "indexed": true,
          "internalType": "address",
          "name": "owner",
          "type": "address"
        },
        {
          "indexed": true,
          "internalType": "uint256",
          "name": "tokenId",
          "type": "uint256"
        },
        {
          "indexed": false,
          "internalType": "uint256",
          "name": "price",
          "type": "uint256"
        },
        {
          "indexed": false,
          "internalType": "bool",
          "name": "sold",
          "type": "bool"
        }
      ],
      "name": "MarketItemCreated",
      "type": "event"
    },
    {
      "anonymous": false,
      "inputs": [
        {
          "indexed": true,
          "internalType": "address",
          "name": "acquirer",
          "type": "address"
        },
        {
          "indexed": true,
          "internalType": "uint256",
          "name": "tokenId",
          "type": "uint256"
        },
        {
          "indexed": false,
          "internalType": "uint256",
          "name": "timeGotten",
          "type": "uint256"
        }
      ],
      "name": "NftBought",
      "type": "event"
    },
    {
      "anonymous": false,
      "inputs": [
        {
          "indexed": true,
          "internalType": "address",
          "name": "from",
          "type": "address"
        },
        {
          "indexed": true,
          "internalType": "address",
          "name": "to",
          "type": "address"
        },
        {
          "indexed": true,
          "internalType": "uint256",
          "name": "tokenId",
          "type": "uint256"
        },
        {
          "indexed": false,
          "internalType": "uint256",
          "name": "timeGifted",
          "type": "uint256"
        }
      ],
      "name": "NftGifted",
      "type": "event"
    },
    {
      "anonymous": false,
      "inputs": [
        {
          "indexed": true,
          "internalType": "address",
          "name": "seller",
          "type": "address"
        },
        {
          "indexed": true,
          "internalType": "uint256",
          "name": "tokenId",
          "type": "uint256"
        },
        {
          "indexed": true,
          "internalType": "uint256",
          "name": "timeSold",
          "type": "uint256"
        }
      ],
      "name": "NftSold",
      "type": "event"
    },
    {
      "anonymous": false,
      "inputs": [
        {
          "indexed": true,
          "internalType": "address",
          "name": "previousOwner",
          "type": "address"
        },
        {
          "indexed": true,
          "internalType": "address",
          "name": "newOwner",
          "type": "address"
        }
      ],
      "name": "OwnershipTransferred",
      "type": "event"
    },
    {
      "inputs": [],
      "name": "GetAllHolders",
      "outputs": [
        {
          "components": [
            {
              "internalType": "uint256",
              "name": "itemId",
              "type": "uint256"
            },
            {
              "internalType": "uint256",
              "name": "timeGotten",
              "type": "uint256"
            },
            {
              "internalType": "uint256",
              "name": "timeGivenOut",
              "type": "uint256"
            },
            {
              "internalType": "uint256",
              "name": "buyId",
              "type": "uint256"
            },
            {
              "internalType": "address payable",
              "name": "owner",
              "type": "address"
            },
            {
              "internalType": "bool",
              "name": "isActiveHolder",
              "type": "bool"
            }
          ],
          "internalType": "struct NFTMarket1155.Holder[]",
          "name": "",
          "type": "tuple[]"
        }
      ],
      "stateMutability": "view",
      "type": "function"
    },
    {
      "inputs": [
        {
          "internalType": "uint256",
          "name": "itemId",
          "type": "uint256"
        }
      ],
      "name": "GetTimeBought",
      "outputs": [
        {
          "internalType": "uint256",
          "name": "",
          "type": "uint256"
        }
      ],
      "stateMutability": "view",
      "type": "function"
    },
    {
      "inputs": [
        {
          "internalType": "uint256",
          "name": "tokenId",
          "type": "uint256"
        }
      ],
      "name": "GetTotalSupply",
      "outputs": [
        {
          "internalType": "uint256",
          "name": "",
          "type": "uint256"
        }
      ],
      "stateMutability": "view",
      "type": "function"
    },
    {
      "inputs": [
        {
          "internalType": "address",
          "name": "nftContract",
          "type": "address"
        },
        {
          "internalType": "uint64",
          "name": "itemId",
          "type": "uint64"
        }
      ],
      "name": "buyNft",
      "outputs": [],
      "stateMutability": "payable",
      "type": "function"
    },
    {
      "inputs": [
        {
          "internalType": "address",
          "name": "nftContract",
          "type": "address"
        },
        {
          "internalType": "uint256",
          "name": "tokenId",
          "type": "uint256"
        },
        {
          "internalType": "uint256",
          "name": "amount",
          "type": "uint256"
        },
        {
          "internalType": "uint256",
          "name": "price",
          "type": "uint256"
        }
      ],
      "name": "createMarketItem",
      "outputs": [],
      "stateMutability": "nonpayable",
      "type": "function"
    },
    {
      "inputs": [],
      "name": "fetchMarketItems",
      "outputs": [
        {
          "components": [
            {
              "internalType": "uint256",
              "name": "itemId",
              "type": "uint256"
            },
            {
              "internalType": "uint256",
              "name": "tokenId",
              "type": "uint256"
            },
            {
              "internalType": "uint256",
              "name": "price",
              "type": "uint256"
            },
            {
              "internalType": "address",
              "name": "nftContract",
              "type": "address"
            },
            {
              "internalType": "address",
              "name": "owner",
              "type": "address"
            },
            {
              "internalType": "bool",
              "name": "sold",
              "type": "bool"
            }
          ],
          "internalType": "struct NFTMarket1155.MarketItem[]",
          "name": "",
          "type": "tuple[]"
        }
      ],
      "stateMutability": "view",
      "type": "function"
    },
    {
      "inputs": [
        {
          "internalType": "address",
          "name": "loggedInUser",
          "type": "address"
        }
      ],
      "name": "fetchMyNFTs",
      "outputs": [
        {
          "components": [
            {
              "internalType": "uint256",
              "name": "itemId",
              "type": "uint256"
            },
            {
              "internalType": "uint256",
              "name": "tokenId",
              "type": "uint256"
            },
            {
              "internalType": "uint256",
              "name": "price",
              "type": "uint256"
            },
            {
              "internalType": "address",
              "name": "nftContract",
              "type": "address"
            },
            {
              "internalType": "address",
              "name": "owner",
              "type": "address"
            },
            {
              "internalType": "bool",
              "name": "sold",
              "type": "bool"
            }
          ],
          "internalType": "struct NFTMarket1155.MarketItem[]",
          "name": "",
          "type": "tuple[]"
        }
      ],
      "stateMutability": "view",
      "type": "function"
    },
    {
      "inputs": [],
      "name": "getBalance",
      "outputs": [
        {
          "internalType": "uint256",
          "name": "",
          "type": "uint256"
        }
      ],
      "stateMutability": "view",
      "type": "function"
    },
    {
      "inputs": [],
      "name": "getCurrentAdmin",
      "outputs": [
        {
          "internalType": "address",
          "name": "",
          "type": "address"
        }
      ],
      "stateMutability": "view",
      "type": "function"
    },
    {
      "inputs": [
        {
          "internalType": "address",
          "name": "nftContract",
          "type": "address"
        },
        {
          "internalType": "address",
          "name": "to",
          "type": "address"
        },
        {
          "internalType": "uint256",
          "name": "itemId",
          "type": "uint256"
        }
      ],
      "name": "giftNft",
      "outputs": [],
      "stateMutability": "nonpayable",
      "type": "function"
    },
    {
      "inputs": [
        {
          "internalType": "address",
          "name": "",
          "type": "address"
        },
        {
          "internalType": "address",
          "name": "",
          "type": "address"
        },
        {
          "internalType": "uint256[]",
          "name": "",
          "type": "uint256[]"
        },
        {
          "internalType": "uint256[]",
          "name": "",
          "type": "uint256[]"
        },
        {
          "internalType": "bytes",
          "name": "",
          "type": "bytes"
        }
      ],
      "name": "onERC1155BatchReceived",
      "outputs": [
        {
          "internalType": "bytes4",
          "name": "",
          "type": "bytes4"
        }
      ],
      "stateMutability": "nonpayable",
      "type": "function"
    },
    {
      "inputs": [
        {
          "internalType": "address",
          "name": "",
          "type": "address"
        },
        {
          "internalType": "address",
          "name": "",
          "type": "address"
        },
        {
          "internalType": "uint256",
          "name": "",
          "type": "uint256"
        },
        {
          "internalType": "uint256",
          "name": "",
          "type": "uint256"
        },
        {
          "internalType": "bytes",
          "name": "",
          "type": "bytes"
        }
      ],
      "name": "onERC1155Received",
      "outputs": [
        {
          "internalType": "bytes4",
          "name": "",
          "type": "bytes4"
        }
      ],
      "stateMutability": "nonpayable",
      "type": "function"
    },
    {
      "inputs": [],
      "name": "owner",
      "outputs": [
        {
          "internalType": "address",
          "name": "",
          "type": "address"
        }
      ],
      "stateMutability": "view",
      "type": "function"
    },
    {
      "inputs": [],
      "name": "renounceOwnership",
      "outputs": [],
      "stateMutability": "nonpayable",
      "type": "function"
    },
    {
      "inputs": [
        {
          "internalType": "uint256",
          "name": "itemId",
          "type": "uint256"
        },
        {
          "internalType": "address",
          "name": "nftContract",
          "type": "address"
        },
        {
          "internalType": "uint256",
          "name": "price",
          "type": "uint256"
        }
      ],
      "name": "sellNft",
      "outputs": [],
      "stateMutability": "nonpayable",
      "type": "function"
    },
    {
      "inputs": [
        {
          "internalType": "address",
          "name": "admin",
          "type": "address"
        }
      ],
      "name": "setAdmin",
      "outputs": [],
      "stateMutability": "nonpayable",
      "type": "function"
    },
    {
      "inputs": [
        {
          "internalType": "bytes4",
          "name": "interfaceId",
          "type": "bytes4"
        }
      ],
      "name": "supportsInterface",
      "outputs": [
        {
          "internalType": "bool",
          "name": "",
          "type": "bool"
        }
      ],
      "stateMutability": "view",
      "type": "function"
    },
    {
      "inputs": [
        {
          "internalType": "address",
          "name": "newOwner",
          "type": "address"
        }
      ],
      "name": "transferOwnership",
      "outputs": [],
      "stateMutability": "nonpayable",
      "type": "function"
    },
    {
      "inputs": [],
      "name": "withdrawMoney",
      "outputs": [],
      "stateMutability": "nonpayable",
      "type": "function"
    },
    {
      "inputs": [
        {
          "internalType": "address",
          "name": "_to",
          "type": "address"
        }
      ],
      "name": "withdrawMoneyTo",
      "outputs": [],
      "stateMutability": "nonpayable",
      "type": "function"
    }
  ],
  "bytecode": "0x60806040523480156200001157600080fd5b5060405162003a9938038062003a99833981810160405281019062000037919062000189565b620000576200004b620000a660201b60201c565b620000ae60201b60201c565b6001808190555080600260006101000a81548173ffffffffffffffffffffffffffffffffffffffff021916908373ffffffffffffffffffffffffffffffffffffffff1602179055505062000203565b600033905090565b60008060009054906101000a900473ffffffffffffffffffffffffffffffffffffffff169050816000806101000a81548173ffffffffffffffffffffffffffffffffffffffff021916908373ffffffffffffffffffffffffffffffffffffffff1602179055508173ffffffffffffffffffffffffffffffffffffffff168173ffffffffffffffffffffffffffffffffffffffff167f8be0079c531659141344cd1fd0a4f28419497f9722a3daafe3b4186f6b6457e060405160405180910390a35050565b6000815190506200018381620001e9565b92915050565b6000602082840312156200019c57600080fd5b6000620001ac8482850162000172565b91505092915050565b6000620001c282620001c9565b9050919050565b600073ffffffffffffffffffffffffffffffffffffffff82169050919050565b620001f481620001b5565b81146200020057600080fd5b50565b61388680620002136000396000f3fe60806040526004361061011f5760003560e01c8063643d430c116100a05780638da5cb5b116100645780638da5cb5b146103c4578063ac446002146103ef578063bc197c8114610406578063f23a6e6114610443578063f2fde38b146104805761011f565b8063643d430c146103055780636c28246014610330578063704b6c0214610359578063715018a614610382578063892d093f146103995761011f565b806312065fe0116100e757806312065fe01461021b57806334345f531461024657806335a98136146102835780635385659d1461029f578063599ba234146102dc5761011f565b806301ffc9a71461012457806308ca2b65146101615780630f08efe01461018a5780630ff8d8a5146101b557806310afee1e146101de575b600080fd5b34801561013057600080fd5b5061014b60048036038101906101469190612b42565b6104a9565b60405161015891906130f1565b60405180910390f35b34801561016d57600080fd5b5061018860048036038101906101839190612b94565b610523565b005b34801561019657600080fd5b5061019f6108e3565b6040516101ac91906130cf565b60405180910390f35b3480156101c157600080fd5b506101dc60048036038101906101d791906128dd565b610b95565b005b3480156101ea57600080fd5b50610205600480360381019061020091906128dd565b610d29565b60405161021291906130cf565b60405180910390f35b34801561022757600080fd5b50610230611068565b60405161023d9190613247565b60405180910390f35b34801561025257600080fd5b5061026d60048036038101906102689190612b6b565b61113d565b60405161027a9190613247565b60405180910390f35b61029d60048036038101906102989190612b06565b61115a565b005b3480156102ab57600080fd5b506102c660048036038101906102c19190612b6b565b6114b3565b6040516102d39190613247565b60405180910390f35b3480156102e857600080fd5b5061030360048036038101906102fe9190612aa3565b611576565b005b34801561031157600080fd5b5061031a611958565b6040516103279190612fe2565b60405180910390f35b34801561033c57600080fd5b50610357600480360381019061035291906129c5565b611a4f565b005b34801561036557600080fd5b50610380600480360381019061037b91906128dd565b611e12565b005b34801561038e57600080fd5b50610397611ed2565b005b3480156103a557600080fd5b506103ae611f5a565b6040516103bb91906130ad565b60405180910390f35b3480156103d057600080fd5b506103d96121f4565b6040516103e69190612fe2565b60405180910390f35b3480156103fb57600080fd5b5061040461221d565b005b34801561041257600080fd5b5061042d60048036038101906104289190612906565b612401565b60405161043a919061310c565b60405180910390f35b34801561044f57600080fd5b5061046a60048036038101906104659190612a14565b612416565b604051610477919061310c565b60405180910390f35b34801561048c57600080fd5b506104a760048036038101906104a291906128dd565b61242b565b005b60007f4e2312e0000000000000000000000000000000000000000000000000000000007bffffffffffffffffffffffffffffffffffffffffffffffffffffffff1916827bffffffffffffffffffffffffffffffffffffffffffffffffffffffff1916148061051c575061051b82612523565b5b9050919050565b60026001541415610569576040517f08c379a000000000000000000000000000000000000000000000000000000000815260040161056090613207565b60405180910390fd5b60026001819055506000600660008581526020019081526020016000206001015490506000610598600561258d565b90503373ffffffffffffffffffffffffffffffffffffffff166006600087815260200190815260200160002060040160009054906101000a900473ffffffffffffffffffffffffffffffffffffffff1673ffffffffffffffffffffffffffffffffffffffff161461063e576040517f08c379a0000000000000000000000000000000000000000000000000000000008152600401610635906131e7565b60405180910390fd5b8373ffffffffffffffffffffffffffffffffffffffff1663f242432a33308560016040518563ffffffff1660e01b815260040161067e9493929190612ffd565b600060405180830381600087803b15801561069857600080fd5b505af11580156106ac573d6000803e3d6000fd5b5050505060005b818110156107b95785600760008381526020019081526020016000206000015414801561070057506007600082815260200190815260200160002060040160149054906101000a900460ff165b156107a65742600760008381526020019081526020016000206002018190555060006007600083815260200190815260200160002060040160146101000a81548160ff02191690831515021790555060006007600083815260200190815260200160002060040160006101000a81548173ffffffffffffffffffffffffffffffffffffffff021916908373ffffffffffffffffffffffffffffffffffffffff1602179055505b80806107b190613530565b9150506106b3565b5060006006600087815260200190815260200160002060040160146101000a81548160ff02191690831515021790555060006006600087815260200190815260200160002060040160006101000a81548173ffffffffffffffffffffffffffffffffffffffff021916908373ffffffffffffffffffffffffffffffffffffffff160217905550610849600561259b565b3373ffffffffffffffffffffffffffffffffffffffff166108fc849081150290604051600060405180830381858888f1935050505015801561088f573d6000803e3d6000fd5b5042823373ffffffffffffffffffffffffffffffffffffffff167f9b9577bfad2e67a8df72aa8f54ee39ff58080e7c899e842302b6ec46d519919760405160405180910390a4505060018081905550505050565b60606000600354905060006108f8600461258d565b6003546109059190613410565b90506000808267ffffffffffffffff81111561094a577f4e487b7100000000000000000000000000000000000000000000000000000000600052604160045260246000fd5b60405190808252806020026020018201604052801561098357816020015b6109706126d9565b8152602001906001900390816109685790505b50905060005b84811015610b8a57600073ffffffffffffffffffffffffffffffffffffffff16600660006001846109ba91906133ba565b815260200190815260200160002060040160009054906101000a900473ffffffffffffffffffffffffffffffffffffffff1673ffffffffffffffffffffffffffffffffffffffff161415610b77576000600182610a1791906133ba565b90506000600660008381526020019081526020016000209050806040518060c00160405290816000820154815260200160018201548152602001600282015481526020016003820160009054906101000a900473ffffffffffffffffffffffffffffffffffffffff1673ffffffffffffffffffffffffffffffffffffffff1673ffffffffffffffffffffffffffffffffffffffff1681526020016004820160009054906101000a900473ffffffffffffffffffffffffffffffffffffffff1673ffffffffffffffffffffffffffffffffffffffff1673ffffffffffffffffffffffffffffffffffffffff1681526020016004820160149054906101000a900460ff161515151581525050848681518110610b5a577f4e487b7100000000000000000000000000000000000000000000000000000000600052603260045260246000fd5b6020026020010181905250600185610b7291906133ba565b945050505b8080610b8290613530565b915050610989565b508094505050505090565b610b9d6125f7565b73ffffffffffffffffffffffffffffffffffffffff16610bbb6121f4565b73ffffffffffffffffffffffffffffffffffffffff1614610c11576040517f08c379a0000000000000000000000000000000000000000000000000000000008152600401610c08906131a7565b60405180910390fd5b60026001541415610c57576040517f08c379a0000000000000000000000000000000000000000000000000000000008152600401610c4e90613207565b60405180910390fd5b600260018190555060008190506000610c6e611068565b905060008273ffffffffffffffffffffffffffffffffffffffff1682604051610c9690612fcd565b60006040518083038185875af1925050503d8060008114610cd3576040519150601f19603f3d011682016040523d82523d6000602084013e610cd8565b606091505b5050905080610d1c576040517f08c379a0000000000000000000000000000000000000000000000000000000008152600401610d13906131c7565b60405180910390fd5b5050506001808190555050565b60606000600354905060008060005b83811015610dd9578573ffffffffffffffffffffffffffffffffffffffff1660066000600184610d6891906133ba565b815260200190815260200160002060040160009054906101000a900473ffffffffffffffffffffffffffffffffffffffff1673ffffffffffffffffffffffffffffffffffffffff161415610dc657600183610dc391906133ba565b92505b8080610dd190613530565b915050610d38565b5060008267ffffffffffffffff811115610e1c577f4e487b7100000000000000000000000000000000000000000000000000000000600052604160045260246000fd5b604051908082528060200260200182016040528015610e5557816020015b610e426126d9565b815260200190600190039081610e3a5790505b50905060005b8481101561105b578673ffffffffffffffffffffffffffffffffffffffff1660066000600184610e8b91906133ba565b815260200190815260200160002060040160009054906101000a900473ffffffffffffffffffffffffffffffffffffffff1673ffffffffffffffffffffffffffffffffffffffff161415611048576000600182610ee891906133ba565b90506000600660008381526020019081526020016000209050806040518060c00160405290816000820154815260200160018201548152602001600282015481526020016003820160009054906101000a900473ffffffffffffffffffffffffffffffffffffffff1673ffffffffffffffffffffffffffffffffffffffff1673ffffffffffffffffffffffffffffffffffffffff1681526020016004820160009054906101000a900473ffffffffffffffffffffffffffffffffffffffff1673ffffffffffffffffffffffffffffffffffffffff1673ffffffffffffffffffffffffffffffffffffffff1681526020016004820160149054906101000a900460ff16151515158152505084868151811061102b577f4e487b7100000000000000000000000000000000000000000000000000000000600052603260045260246000fd5b602002602001018190525060018561104391906133ba565b945050505b808061105390613530565b915050610e5b565b5080945050505050919050565b6000600260009054906101000a900473ffffffffffffffffffffffffffffffffffffffff1673ffffffffffffffffffffffffffffffffffffffff163373ffffffffffffffffffffffffffffffffffffffff1614806110f857506110c96121f4565b73ffffffffffffffffffffffffffffffffffffffff163373ffffffffffffffffffffffffffffffffffffffff16145b611137576040517f08c379a000000000000000000000000000000000000000000000000000000000815260040161112e90613127565b60405180910390fd5b47905090565b600060086000838152602001908152602001600020549050919050565b600260015414156111a0576040517f08c379a000000000000000000000000000000000000000000000000000000000815260040161119790613207565b60405180910390fd5b60026001819055506000600660008367ffffffffffffffff1681526020019081526020016000206002015490506000600660008467ffffffffffffffff168152602001908152602001600020600101549050813414611234576040517f08c379a000000000000000000000000000000000000000000000000000000000815260040161122b90613187565b60405180910390fd5b8373ffffffffffffffffffffffffffffffffffffffff1663f242432a30338460016040518563ffffffff1660e01b81526004016112749493929190612ffd565b600060405180830381600087803b15801561128e57600080fd5b505af11580156112a2573d6000803e3d6000fd5b505050506001600660008567ffffffffffffffff16815260200190815260200160002060040160146101000a81548160ff02191690831515021790555033600660008567ffffffffffffffff16815260200190815260200160002060040160006101000a81548173ffffffffffffffffffffffffffffffffffffffff021916908373ffffffffffffffffffffffffffffffffffffffff16021790555061134860056125ff565b6000611354600561258d565b90506040518060c001604052808567ffffffffffffffff168152602001428152602001600081526020018281526020013373ffffffffffffffffffffffffffffffffffffffff16815260200160011515815250600760008381526020019081526020016000206000820151816000015560208201518160010155604082015181600201556060820151816003015560808201518160040160006101000a81548173ffffffffffffffffffffffffffffffffffffffff021916908373ffffffffffffffffffffffffffffffffffffffff16021790555060a08201518160040160146101000a81548160ff0219169083151502179055509050508367ffffffffffffffff163373ffffffffffffffffffffffffffffffffffffffff167f6cde4ed53ecc43e1126a8b2b9e8ad2f4ec18d9f7834636ed981cfa61960be3704260405161149d9190613247565b60405180910390a3505050600180819055505050565b6000806114c0600561258d565b905060005b8181101561156e5783600760006001846114df91906133ba565b81526020019081526020016000206000015414801561152a57506007600060018361150a91906133ba565b815260200190815260200160002060040160149054906101000a900460ff165b1561155b576007600060018361154091906133ba565b81526020019081526020016000206001015492505050611571565b808061156690613530565b9150506114c5565b50505b919050565b600260009054906101000a900473ffffffffffffffffffffffffffffffffffffffff1673ffffffffffffffffffffffffffffffffffffffff163373ffffffffffffffffffffffffffffffffffffffff16148061160457506115d56121f4565b73ffffffffffffffffffffffffffffffffffffffff163373ffffffffffffffffffffffffffffffffffffffff16145b611643576040517f08c379a000000000000000000000000000000000000000000000000000000000815260040161163a90613127565b60405180910390fd5b60026001541415611689576040517f08c379a000000000000000000000000000000000000000000000000000000000815260040161168090613207565b60405180910390fd5b6002600181905550600081116116d4576040517f08c379a00000000000000000000000000000000000000000000000000000000081526004016116cb90613227565b60405180910390fd5b6000600354905060005b838110156118c0576001826116f391906133ba565b915060008290506040518060c001604052808281526020018781526020018581526020018873ffffffffffffffffffffffffffffffffffffffff168152602001600073ffffffffffffffffffffffffffffffffffffffff168152602001600015158152506006600083815260200190815260200160002060008201518160000155602082015181600101556040820151816002015560608201518160030160006101000a81548173ffffffffffffffffffffffffffffffffffffffff021916908373ffffffffffffffffffffffffffffffffffffffff16021790555060808201518160040160006101000a81548173ffffffffffffffffffffffffffffffffffffffff021916908373ffffffffffffffffffffffffffffffffffffffff16021790555060a08201518160040160146101000a81548160ff0219169083151502179055509050508260038190555085600073ffffffffffffffffffffffffffffffffffffffff168873ffffffffffffffffffffffffffffffffffffffff167f04725f44278a0475942ea64180dcfe5b01f4834fa5ec4ef7249caa03eadb65b4848860006040516118a493929190613262565b60405180910390a45080806118b890613530565b9150506116de565b508260086000868152602001908152602001600020819055508473ffffffffffffffffffffffffffffffffffffffff1663f242432a333087876040518563ffffffff1660e01b81526004016119189493929190613055565b600060405180830381600087803b15801561193257600080fd5b505af1158015611946573d6000803e3d6000fd5b50505050506001808190555050505050565b6000600260009054906101000a900473ffffffffffffffffffffffffffffffffffffffff1673ffffffffffffffffffffffffffffffffffffffff163373ffffffffffffffffffffffffffffffffffffffff1614806119e857506119b96121f4565b73ffffffffffffffffffffffffffffffffffffffff163373ffffffffffffffffffffffffffffffffffffffff16145b611a27576040517f08c379a0000000000000000000000000000000000000000000000000000000008152600401611a1e90613127565b60405180910390fd5b600260009054906101000a900473ffffffffffffffffffffffffffffffffffffffff16905090565b60026001541415611a95576040517f08c379a0000000000000000000000000000000000000000000000000000000008152600401611a8c90613207565b60405180910390fd5b60026001819055503373ffffffffffffffffffffffffffffffffffffffff166006600083815260200190815260200160002060040160009054906101000a900473ffffffffffffffffffffffffffffffffffffffff1673ffffffffffffffffffffffffffffffffffffffff1614611b41576040517f08c379a0000000000000000000000000000000000000000000000000000000008152600401611b38906131e7565b60405180910390fd5b6000611b4d600561258d565b905060006006600084815260200190815260200160002060010154905060006006600085815260200190815260200160002060040160009054906101000a900473ffffffffffffffffffffffffffffffffffffffff1690508573ffffffffffffffffffffffffffffffffffffffff1663f242432a82878560016040518563ffffffff1660e01b8152600401611be59493929190612ffd565b600060405180830381600087803b158015611bff57600080fd5b505af1158015611c13573d6000803e3d6000fd5b50505050846006600086815260200190815260200160002060040160006101000a81548173ffffffffffffffffffffffffffffffffffffffff021916908373ffffffffffffffffffffffffffffffffffffffff16021790555060005b83811015611d9c578460076000600184611c8991906133ba565b815260200190815260200160002060000154148015611cd4575060076000600183611cb491906133ba565b815260200190815260200160002060040160149054906101000a900460ff165b15611d89574260076000600184611ceb91906133ba565b8152602001908152602001600020600101819055504260076000600184611d1291906133ba565b8152602001908152602001600020600201819055508560076000600184611d3991906133ba565b815260200190815260200160002060040160006101000a81548173ffffffffffffffffffffffffffffffffffffffff021916908373ffffffffffffffffffffffffffffffffffffffff1602179055505b8080611d9490613530565b915050611c6f565b50818573ffffffffffffffffffffffffffffffffffffffff163373ffffffffffffffffffffffffffffffffffffffff167f03e53c8c63b3ece939d30e7ead3a0a6941a417712c86ac711b3b2d72d8f182a742604051611dfb9190613247565b60405180910390a450505060018081905550505050565b611e1a6125f7565b73ffffffffffffffffffffffffffffffffffffffff16611e386121f4565b73ffffffffffffffffffffffffffffffffffffffff1614611e8e576040517f08c379a0000000000000000000000000000000000000000000000000000000008152600401611e85906131a7565b60405180910390fd5b80600260006101000a81548173ffffffffffffffffffffffffffffffffffffffff021916908373ffffffffffffffffffffffffffffffffffffffff16021790555050565b611eda6125f7565b73ffffffffffffffffffffffffffffffffffffffff16611ef86121f4565b73ffffffffffffffffffffffffffffffffffffffff1614611f4e576040517f08c379a0000000000000000000000000000000000000000000000000000000008152600401611f45906131a7565b60405180910390fd5b611f586000612615565b565b6060600260009054906101000a900473ffffffffffffffffffffffffffffffffffffffff1673ffffffffffffffffffffffffffffffffffffffff163373ffffffffffffffffffffffffffffffffffffffff161480611fea5750611fbb6121f4565b73ffffffffffffffffffffffffffffffffffffffff163373ffffffffffffffffffffffffffffffffffffffff16145b612029576040517f08c379a000000000000000000000000000000000000000000000000000000000815260040161202090613127565b60405180910390fd5b6000612035600561258d565b90506000808267ffffffffffffffff81111561207a577f4e487b7100000000000000000000000000000000000000000000000000000000600052604160045260246000fd5b6040519080825280602002602001820160405280156120b357816020015b6120a061273d565b8152602001906001900390816120985790505b50905060005b838111156121ea57600760006001836120d291906133ba565b81526020019081526020016000206040518060c0016040529081600082015481526020016001820154815260200160028201548152602001600382015481526020016004820160009054906101000a900473ffffffffffffffffffffffffffffffffffffffff1673ffffffffffffffffffffffffffffffffffffffff1673ffffffffffffffffffffffffffffffffffffffff1681526020016004820160149054906101000a900460ff1615151515815250508284815181106121bd577f4e487b7100000000000000000000000000000000000000000000000000000000600052603260045260246000fd5b60200260200101819052506001836121d591906133ba565b925080806121e290613530565b9150506120b9565b5080935050505090565b60008060009054906101000a900473ffffffffffffffffffffffffffffffffffffffff16905090565b600260009054906101000a900473ffffffffffffffffffffffffffffffffffffffff1673ffffffffffffffffffffffffffffffffffffffff163373ffffffffffffffffffffffffffffffffffffffff1614806122ab575061227c6121f4565b73ffffffffffffffffffffffffffffffffffffffff163373ffffffffffffffffffffffffffffffffffffffff16145b6122ea576040517f08c379a00000000000000000000000000000000000000000000000000000000081526004016122e190613127565b60405180910390fd5b60026001541415612330576040517f08c379a000000000000000000000000000000000000000000000000000000000815260040161232790613207565b60405180910390fd5b600260018190555060003390506000612347611068565b905060008273ffffffffffffffffffffffffffffffffffffffff168260405161236f90612fcd565b60006040518083038185875af1925050503d80600081146123ac576040519150601f19603f3d011682016040523d82523d6000602084013e6123b1565b606091505b50509050806123f5576040517f08c379a00000000000000000000000000000000000000000000000000000000081526004016123ec906131c7565b60405180910390fd5b50505060018081905550565b600063bc197c8160e01b905095945050505050565b600063f23a6e6160e01b905095945050505050565b6124336125f7565b73ffffffffffffffffffffffffffffffffffffffff166124516121f4565b73ffffffffffffffffffffffffffffffffffffffff16146124a7576040517f08c379a000000000000000000000000000000000000000000000000000000000815260040161249e906131a7565b60405180910390fd5b600073ffffffffffffffffffffffffffffffffffffffff168173ffffffffffffffffffffffffffffffffffffffff161415612517576040517f08c379a000000000000000000000000000000000000000000000000000000000815260040161250e90613167565b60405180910390fd5b61252081612615565b50565b60007f01ffc9a7000000000000000000000000000000000000000000000000000000007bffffffffffffffffffffffffffffffffffffffffffffffffffffffff1916827bffffffffffffffffffffffffffffffffffffffffffffffffffffffff1916149050919050565b600081600001549050919050565b600081600001549050600081116125e7576040517f08c379a00000000000000000000000000000000000000000000000000000000081526004016125de90613147565b60405180910390fd5b6001810382600001819055505050565b600033905090565b6001816000016000828254019250508190555050565b60008060009054906101000a900473ffffffffffffffffffffffffffffffffffffffff169050816000806101000a81548173ffffffffffffffffffffffffffffffffffffffff021916908373ffffffffffffffffffffffffffffffffffffffff1602179055508173ffffffffffffffffffffffffffffffffffffffff168173ffffffffffffffffffffffffffffffffffffffff167f8be0079c531659141344cd1fd0a4f28419497f9722a3daafe3b4186f6b6457e060405160405180910390a35050565b6040518060c00160405280600081526020016000815260200160008152602001600073ffffffffffffffffffffffffffffffffffffffff168152602001600073ffffffffffffffffffffffffffffffffffffffff1681526020016000151581525090565b6040518060c0016040528060008152602001600081526020016000815260200160008152602001600073ffffffffffffffffffffffffffffffffffffffff1681526020016000151581525090565b600061279e612799846132be565b613299565b905080838252602082019050828560208602820111156127bd57600080fd5b60005b858110156127ed57816127d388826128b3565b8452602084019350602083019250506001810190506127c0565b5050509392505050565b600061280a612805846132ea565b613299565b90508281526020810184848401111561282257600080fd5b61282d8482856134f0565b509392505050565b600081359050612844816137f4565b92915050565b600082601f83011261285b57600080fd5b813561286b84826020860161278b565b91505092915050565b6000813590506128838161380b565b92915050565b600082601f83011261289a57600080fd5b81356128aa8482602086016127f7565b91505092915050565b6000813590506128c281613822565b92915050565b6000813590506128d781613839565b92915050565b6000602082840312156128ef57600080fd5b60006128fd84828501612835565b91505092915050565b600080600080600060a0868803121561291e57600080fd5b600061292c88828901612835565b955050602061293d88828901612835565b945050604086013567ffffffffffffffff81111561295a57600080fd5b6129668882890161284a565b935050606086013567ffffffffffffffff81111561298357600080fd5b61298f8882890161284a565b925050608086013567ffffffffffffffff8111156129ac57600080fd5b6129b888828901612889565b9150509295509295909350565b6000806000606084860312156129da57600080fd5b60006129e886828701612835565b93505060206129f986828701612835565b9250506040612a0a868287016128b3565b9150509250925092565b600080600080600060a08688031215612a2c57600080fd5b6000612a3a88828901612835565b9550506020612a4b88828901612835565b9450506040612a5c888289016128b3565b9350506060612a6d888289016128b3565b925050608086013567ffffffffffffffff811115612a8a57600080fd5b612a9688828901612889565b9150509295509295909350565b60008060008060808587031215612ab957600080fd5b6000612ac787828801612835565b9450506020612ad8878288016128b3565b9350506040612ae9878288016128b3565b9250506060612afa878288016128b3565b91505092959194509250565b60008060408385031215612b1957600080fd5b6000612b2785828601612835565b9250506020612b38858286016128c8565b9150509250929050565b600060208284031215612b5457600080fd5b6000612b6284828501612874565b91505092915050565b600060208284031215612b7d57600080fd5b6000612b8b848285016128b3565b91505092915050565b600080600060608486031215612ba957600080fd5b6000612bb7868287016128b3565b9350506020612bc886828701612835565b9250506040612bd9868287016128b3565b9150509250925092565b6000612bef8383612eb9565b60c08301905092915050565b6000612c078383612f34565b60c08301905092915050565b612c1c81613456565b82525050565b612c2b81613444565b82525050565b612c3a81613444565b82525050565b6000612c4b8261333b565b612c55818561336b565b9350612c608361331b565b8060005b83811015612c91578151612c788882612be3565b9750612c8383613351565b925050600181019050612c64565b5085935050505092915050565b6000612ca982613346565b612cb3818561337c565b9350612cbe8361332b565b8060005b83811015612cef578151612cd68882612bfb565b9750612ce18361335e565b925050600181019050612cc2565b5085935050505092915050565b612d0581613468565b82525050565b612d1481613468565b82525050565b612d2381613474565b82525050565b612d32816134de565b82525050565b6000612d456018836133a9565b9150612d50826135e8565b602082019050919050565b6000612d68601b836133a9565b9150612d7382613611565b602082019050919050565b6000612d8b6026836133a9565b9150612d968261363a565b604082019050919050565b6000612dae6040836133a9565b9150612db982613689565b604082019050919050565b6000612dd16020836133a9565b9150612ddc826136d8565b602082019050919050565b6000612df460008361338d565b9150612dff82613701565b600082019050919050565b6000612e1760008361339e565b9150612e2282613701565b600082019050919050565b6000612e3a6010836133a9565b9150612e4582613704565b602082019050919050565b6000612e5d6044836133a9565b9150612e688261372d565b606082019050919050565b6000612e80601f836133a9565b9150612e8b826137a2565b602082019050919050565b6000612ea3601c836133a9565b9150612eae826137cb565b602082019050919050565b60c082016000820151612ecf6000850182612faf565b506020820151612ee26020850182612faf565b506040820151612ef56040850182612faf565b506060820151612f086060850182612faf565b506080820151612f1b6080850182612c13565b5060a0820151612f2e60a0850182612cfc565b50505050565b60c082016000820151612f4a6000850182612faf565b506020820151612f5d6020850182612faf565b506040820151612f706040850182612faf565b506060820151612f836060850182612c22565b506080820151612f966080850182612c22565b5060a0820151612fa960a0850182612cfc565b50505050565b612fb8816134c0565b82525050565b612fc7816134c0565b82525050565b6000612fd882612e0a565b9150819050919050565b6000602082019050612ff76000830184612c31565b92915050565b600060a0820190506130126000830187612c31565b61301f6020830186612c31565b61302c6040830185612fbe565b6130396060830184612d29565b818103608083015261304a81612de7565b905095945050505050565b600060a08201905061306a6000830187612c31565b6130776020830186612c31565b6130846040830185612fbe565b6130916060830184612fbe565b81810360808301526130a281612de7565b905095945050505050565b600060208201905081810360008301526130c78184612c40565b905092915050565b600060208201905081810360008301526130e98184612c9e565b905092915050565b60006020820190506131066000830184612d0b565b92915050565b60006020820190506131216000830184612d1a565b92915050565b6000602082019050818103600083015261314081612d38565b9050919050565b6000602082019050818103600083015261316081612d5b565b9050919050565b6000602082019050818103600083015261318081612d7e565b9050919050565b600060208201905081810360008301526131a081612da1565b9050919050565b600060208201905081810360008301526131c081612dc4565b9050919050565b600060208201905081810360008301526131e081612e2d565b9050919050565b6000602082019050818103600083015261320081612e50565b9050919050565b6000602082019050818103600083015261322081612e73565b9050919050565b6000602082019050818103600083015261324081612e96565b9050919050565b600060208201905061325c6000830184612fbe565b92915050565b60006060820190506132776000830186612fbe565b6132846020830185612fbe565b6132916040830184612d0b565b949350505050565b60006132a36132b4565b90506132af82826134ff565b919050565b6000604051905090565b600067ffffffffffffffff8211156132d9576132d86135a8565b5b602082029050602081019050919050565b600067ffffffffffffffff821115613305576133046135a8565b5b61330e826135d7565b9050602081019050919050565b6000819050602082019050919050565b6000819050602082019050919050565b600081519050919050565b600081519050919050565b6000602082019050919050565b6000602082019050919050565b600082825260208201905092915050565b600082825260208201905092915050565b600082825260208201905092915050565b600081905092915050565b600082825260208201905092915050565b60006133c5826134c0565b91506133d0836134c0565b9250827fffffffffffffffffffffffffffffffffffffffffffffffffffffffffffffffff0382111561340557613404613579565b5b828201905092915050565b600061341b826134c0565b9150613426836134c0565b92508282101561343957613438613579565b5b828203905092915050565b600061344f826134a0565b9050919050565b6000613461826134a0565b9050919050565b60008115159050919050565b60007fffffffff0000000000000000000000000000000000000000000000000000000082169050919050565b600073ffffffffffffffffffffffffffffffffffffffff82169050919050565b6000819050919050565b600067ffffffffffffffff82169050919050565b60006134e9826134c0565b9050919050565b82818337600083830152505050565b613508826135d7565b810181811067ffffffffffffffff82111715613527576135266135a8565b5b80604052505050565b600061353b826134c0565b91507fffffffffffffffffffffffffffffffffffffffffffffffffffffffffffffffff82141561356e5761356d613579565b5b600182019050919050565b7f4e487b7100000000000000000000000000000000000000000000000000000000600052601160045260246000fd5b7f4e487b7100000000000000000000000000000000000000000000000000000000600052604160045260246000fd5b6000601f19601f8301169050919050565b7f4572726f7220343031203a20556e617574686f72697a65640000000000000000600082015250565b7f436f756e7465723a2064656372656d656e74206f766572666c6f770000000000600082015250565b7f4f776e61626c653a206e6577206f776e657220697320746865207a65726f206160008201527f6464726573730000000000000000000000000000000000000000000000000000602082015250565b7f506c65617365207375626d6974207468652061736b696e67207072696365206960008201527f6e206f7264657220746f20636f6d706c65746520746865207075726368617365602082015250565b7f4f776e61626c653a2063616c6c6572206973206e6f7420746865206f776e6572600082015250565b50565b7f5472616e73666572206661696c65642e00000000000000000000000000000000600082015250565b7f596f7520646f206e6f742068617665207065726d697373696f6e20746f20476960008201527f66742074686973204e465420617320796f7520617265206e6f7420746865206f60208201527f776e657200000000000000000000000000000000000000000000000000000000604082015250565b7f5265656e7472616e637947756172643a207265656e7472616e742063616c6c00600082015250565b7f5072696365206d757374206265206174206c6561737420312077656900000000600082015250565b6137fd81613444565b811461380857600080fd5b50565b61381481613474565b811461381f57600080fd5b50565b61382b816134c0565b811461383657600080fd5b50565b613842816134ca565b811461384d57600080fd5b5056fea2646970667358221220b07934e62343a4e97dcfc13c8c4c0a64106290ec859f7e57df81168e99584e6364736f6c63430008040033",
  "linkReferences": {},
  "deployedLinkReferences": {}
}